:040000009EEF01F07E
:10000800E9CF16F0EACF17F0E1CF18F0E2CF19F0F8
:10001800D9CF1AF0DACF1BF0F3CF1CF0F4CF1DF0D4
:10002800F6CF1EF0F7CF1FF0F8CF20F0F5CF21F074
:100038001AEEACF0D8CF61F00001606FE0CF62F04B
:10004800EACF63F0E9CF64F0F2BAF2A443D16505D0
:10005800D8A404D01B0EFC6E000E656F6FC0EAFFBB
:10006800000EE96E60C0EEFF61C0EEFF62C0EEFFF9
:10007800FCCFEEFF63C0EEFF64C0EEFFE2CFEEFF01
:10008800E1CFEEFFDACFEEFFD9CFEEFFF4CFEEFFF0
:10009800F3CFEEFFF8CFEEFFF7CFEEFFF6CFEEFF90
:1000A800F5CFEEFFFBCFEEFFFACFEEFF000EE26ECC
:1000B800000EE16EE6CFEEFFE6CFEEFFE6CFEEFFF5
:1000C800E6CFEEFFE6CFEEFFE6CFEEFFE6CFEEFFA0
:1000D800E6CFEEFFE6CFEEFFE6CFEEFFE6CFEEFF90
:1000E800E6CFEEFFE6CFEEFFE6CFEEFFE6CFEEFF80
:1000F800E6CFEEFFE6CFEEFFE6CFEEFFE6CFEEFF70
:10010800E6CFEEFFE6CFEEFFE6CFEEFFE6CFEEFF5F
:10011800E6CFEEFFE6CFEEFFE6CFEEFFE6CFEEFF4F
:10012800E6CFEEFFE6CFEEFFE6CFEEFFE6CFEEFF3F
:10013800E6CFEEFFE6CFEEFFE6CFEEFFE6CFEEFF2F
:10014800E6CFEEFFE6CFEEFFE6CFEEFFE6CFEEFF1F
:10015800E6CFEEFFE6CFEEFFE6CFEEFFE6CFEEFF0F
:10016800E6CFEEFFE6CFEEFFE6CFEEFFE6CFEEFFFF
:10017800E6CFEEFF8A0ED76ECF0ED66EF294714B95
:10018800722B702B060E7019D8A402D0000E706F57
:10019800690E7025D96EDA6A000EDA22DF506F6FA9
:1001A800000EE26E000EE16E6FC0EAFF120EE96EFD
:1001B800EECFE6FFEECFE6FFEECFE6FFEECFE6FFAF
:1001C800EECFE6FFEECFE6FFEECFE6FFEECFE6FF9F
:1001D800EECFE6FFEECFE6FFEECFE6FFEECFE6FF8F
:1001E800EECFE6FFEECFE6FFEECFE6FFEECFE6FF7F
:1001F800EECFE6FFEECFE6FFEECFE6FFEECFE6FF6F
:10020800EECFE6FFEECFE6FFEECFE6FFEECFE6FF5E
:10021800EECFE6FFEECFE6FFEECFE6FFEECFE6FF4E
:10022800EECFE6FFEECFE6FFEECFE6FFEECFE6FF3E
:10023800EECFE6FFEECFE6FFEECFE6FFEECFE6FF2E
:10024800EECFE6FFEECFE6FFEECFE6FFEECFE6FF1E
:10025800EECFE6FFEECFE6FFEECFE6FFEECFE6FF0E
:10026800EECFE6FFEECFE6FFEECFE6FFEECFE6FFFE
:100278006FC0EAFF000EE96EEECF60F0EECF61F0DE
:10028800EECF62F0EECFFCFFEECF63F0EECF64F07E
:10029800EECFE2FFEECFE1FFEECFDAFFEECFD9FFF0
:1002A800EECFF4FFEECFF3FFEECFF8FFEECFF7FF80
:1002B800EECFF6FFEECFF5FFEECFFBFFEECFFAFF66
:1002C80064C0E9FF63C0EAFF62C0E0FF605161C03B
:1002D800D8FF100064C0E9FF63C0EAFF62C0E0FF16
:1002E8000001605161C0D8FF100066EC08F05BECBB
:1002F8000BF048EC0CF0B7EC0CF0D5EC0BF099ECEB
:1003080010F021C0F5FF20C0F8FF1FC0F7FF1EC086
:10031800F6FF1DC0F4FF1CC0F3FF1BC0DAFF1AC0B4
:10032800D9FF19C0E2FF18C0E1FF17C0EAFF16C0E5
:0C033800E9FF110016EE42F054EF11F046
:1010000000415454454E54494F4E20766F7573201D
:101010006574657320706C65696E21212100204123
:101020005543554E20202020202020202020202005
:10103000202000524F5545534259474E4F4C45537F
:101040000054656D702E204875696C653A00582D06
:101050004A6F79737469636B3A00592D4A6F7973DB
:101060007469636B3A0054656D702E204561753A62
:101070000042617474657269653A005669746573FB
:1010800073653A004D61726368653A0042494720D2
:101090004D554D00434841524745520042616467F7
:1010A000653A0053696567653A00282821292900B7
:1010B00043686F633A00564944450020793D004E2D
:1010C0002000783D0041520041560000F29E1EEC87
:1010D0000DF053EC10F06BEC10F0BEEC10F0020EC3
:1010E000E66EADEC10F0010E0001806F520EAD6E99
:1010F000F28E8B948B928F90000E736F0F0E746F25
:10110000000E7F6F220E096E0D0E1AEC0FF0520EBC
:101110003AEC10F0200E3AEC10F0560E3AEC10F0CB
:10112000200E3AEC10F0420E3AEC10F0220E096E4E
:101130000E0E1AEC0FF0300E3AEC10F0200E3AECD6
:1011400010F0300E3AEC10F0200E3AEC10F0300EA9
:101150003AEC10F0220E096E0F0E1AEC0FF0310E61
:101160003AEC10F0200E3AEC10F0310E3AEC10F0A0
:10117000200E3AEC10F0310E3AEC10F0000E0001A7
:10118000666F140E0F6EE60E106E3C0E116EB40EEE
:10119000C0EC0FF0140E0F6EAA0E106E3C0E116E06
:1011A000780EC0EC0FF0020E086E000E096E2CECEB
:1011B0000EF0000E0001816F000E096E000E1AEC99
:1011C0000FF0840E086E100E096E2CEC0EF081B03C
:1011D00007D0C80E086E100E096E2CEC0EF00FD062
:1011E00081B207D0C50E086E100E096E2CEC0EF001
:1011F00006D0BF0E086E100E096E2CEC0EF0000E1D
:10120000096E010E1AEC0FF0A30E086E100E096E97
:101210002CEC0EF081B404D0310E3AEC10F003D077
:10122000300E3AEC10F0000E096E020E1AEC0FF0C0
:10123000660E086E100E096E2CEC0EF0020E1FECFE
:1012400010F0ECEC0EF0000E096E030E1AEC0FF02D
:10125000410E086E100E096E2CEC0EF0030E1FEC02
:1012600010F0ECEC0EF0000E096E040E1AEC0FF00C
:10127000B00E086E100E096E2CEC0EF081B604D084
:10128000310E3AEC10F003D0300E3AEC10F0000EB4
:10129000096E050E1AEC0FF07B0E086E100E096E2B
:1012A0002CEC0EF000018105D8A40DD084B004D040
:1012B0000F0E736101D0732B84B210D07351D8B468
:1012C0000DD073070BD084B004D0190E736101D018
:1012D000732B84B203D07351D8A4F3D77351ECECC1
:1012E0000EF0000E096E060E1AEC0FF0710E086E6D
:1012F000100E096E2CEC0EF084B405D0640E0001C3
:10130000746101D0742B84B604D000017451D8A448
:10131000740700017451ECEC0EF0000E096E070E1C
:101320001AEC0FF084B807D0AA0E086E100E096EE2
:101330002CEC0EF006D02D0E086E100E096E2CEC63
:101340000EF0000E096E080E1AEC0FF09C0E086EDF
:10135000100E096E2CEC0EF000017F51D8A407D0BE
:101360001E0E086E100E096E2CEC0EF012D0000E40
:10137000156E0AD0750E1524D96EDA6A000EDA22BF
:10138000DF50ECEC0EF0152A00017F51155CD8A05F
:10139000F1D7000E096E090E1AEC0FF04E0E086E12
:1013A000100E096E2CEC0EF00A0E1FEC10F0ECEC97
:1013B0000EF0000E096E0A0E1AEC0FF05A0E086EAF
:1013C000100E096E2CEC0EF00B0E1FEC10F0ECEC76
:1013D0000EF0000E096E0D0E1AEC0FF08C0E086E5A
:1013E000100E096E2CEC0EF0160E096E050E1AEC9E
:1013F0000FF0B60E086E100E096E2CEC0EF01F0EDC
:10140000096E050E1AEC0FF0940E086E100E096EA0
:101410002CEC0EF000016605D8A420D0140E096E45
:10142000000E1AEC0FF0C20E086E100E096E2CECB6
:101430000EF000016751ECEC0EF0BB0E086E100EC2
:10144000096E2CEC0EF000016851ECEC0EF068C057
:1014500009F00001675184EC0DF001D000F00001AB
:101460008105D8B448EC11F000018151D8A4A4D66C
:101470000E0EE0EC10F03CEC11F0030E9BD6010ECA
:101480000001656F010E696F020E6A6F030E6B6FCC
:10149000040E6C6F050E6D6F060E6E6F050E706F8D
:1014A000690E7025D96EDA6A000EDA22DF506F6F8E
:1014B000FCCF22F0020EFC6ECC0E2F6E100E306EA2
:1014C000000E316E2FC034F030C035F0340E326E65
:1014D000000E336E32C0D9FF33C0DAFFDF50FD6E2D
:1014E000324A332A32C0D9FF33C0DAFFDF50FE6EF2
:1014F000324A332A32C0D9FF33C0DAFFDF50FF6EE1
:10150000070EFC6EB60E2F6E160E306E000E316E8C
:101510002FC034F030C035F0340E326E000E336E12
:1015200032C0D9FF33C0DAFFDF50FD6E324A332AB2
:1015300032C0D9FF33C0DAFFDF50FE6E324A332AA1
:1015400032C0D9FF33C0DAFFDF50FF6E0C0EFC6EE5
:10155000900E2F6E180E306E000E316E2FC034F0CC
:1015600030C035F0340E326E000E336E32C0D9FF0B
:1015700033C0DAFFDF50FD6E324A332A32C0D9FF62
:1015800033C0DAFFDF50FE6E324A332A32C0D9FF51
:1015900033C0DAFFDF50FF6E110EFC6E6E0E2F6E41
:1015A000190E306E000E316E2FC034F030C035F0A1
:1015B000340E326E000E336E32C0D9FF33C0DAFF04
:1015C000DF50FD6E324A332A32C0D9FF33C0DAFF12
:1015D000DF50FE6E324A332A32C0D9FF33C0DAFF01
:1015E000DF50FF6E160EFC6EAA0E2F6E170E306EB9
:1015F000000E316E2FC034F030C035F0340E326E34
:10160000000E336E32C0D9FF33C0DAFFDF50FD6EFB
:10161000324A332A32C0D9FF33C0DAFFDF50FE6EC0
:10162000324A332A32C0D9FF33C0DAFFDF50FF6EAF
:101630001B0EFC6E320E2F6E210E306E000E316EC0
:101640002FC034F030C035F0340E326E000E336EE1
:1016500032C0D9FF33C0DAFFDF50FD6E324A332A81
:1016600032C0D9FF33C0DAFFDF50FE6E324A332A70
:1016700032C0D9FF33C0DAFFDF50FF6E22C0FCFF5B
:10168000020E0101036F070E0201036F0C0E03012E
:10169000036F110E0401036F160E0501036F1B0E7D
:1016A0000601036F000E0001726F000E716F010ED4
:1016B000D56EF28A1200000E0001666F8F868F9839
:1016C0000B0E026EB80E016E30EC11F0160EC06EED
:1016D000010EC26E030EC26EC2B2FED7C4CF0EF0B0
:1016E000C3CF0FF00FC008F00F0E0816D8B404D007
:1016F000000E0E6E000E0F6E090E0E64DCD78F9674
:101700008F880B0E026EB80E016E30EC11F0160EC3
:10171000C06E050EC26E070EC26EC2B2FED7C4CF37
:1017200010F0C3CF11F011C008F00F0E0816D8B496
:1017300004D0000E106E000E116E130E1064BBD795
:101740000E50086E0F500A6E08C00BF01050086E55
:1017500011500C6E08C00DF0B20E0A240A6EF30E82
:101760000B200B6E9C0E0C240C6EE60E0D200D6EE5
:101770000AC001F00BC002F0000E046EF60E036EFC
:1017800046EC0FF001500001676F0CC001F00DC076
:1017900002F0010E046E990E036E46EC0FF001503C
:1017A0007F080001686F010E88D79EA8FED7740ECF
:1017B000AD6EACA2FED79EA8FED7610EAD6EACA2F8
:1017C000FED79EA8FED7630EAD6EACA2FED79EA834
:1017D000FED7680EAD6EACA2FED79EA8FED7650EF2
:1017E000AD6EACA2FED79EA8FED7350EAD6EACA2F4
:1017F000FED79EA8FED75F0EAD6EACA2FED79EA808
:10180000FED7650EAD6EACA2FED79EA8FED76E0EBB
:10181000AD6EACA2FED79EA8FED75F0EAD6EACA299
:10182000FED79EA8FED7630EAD6EACA2FED79EA8D3
:10183000FED76F0EAD6EACA2FED79EA8FED7750E7A
:10184000AD6EACA2FED79EA8FED7720EAD6EACA256
:10185000FED79EA8FED7730EAD6EACA2FED7000ECB
:10186000026E000E016E014A022AE80E015CFD0EB6
:101870000258D8A0F8D7000E026E000E016E014A81
:10188000022AE80E015CFD0E0258D8B08ED7F7D7B9
:1018900000016605D8A414D0CA0E676511D0D10E18
:1018A00067610ED0700E686504D0790E686101D052
:1018B0008B84780E686504D07F0E686101D08B94AC
:1018C0006605D8A414D0D60E676511D0DD0E676109
:1018D0000ED0700E686504D0790E686101D08B82DD
:1018E000780E686504D07F0E686101D08B92660522
:1018F000D8A414D0E20E676511D0E90E67610ED04E
:10190000700E686504D0790E686101D08F80780E02
:10191000686504D07F0E686101D08F906605D8A4F9
:1019200011D0B30E67650ED0E60E67610BD0130EB3
:10193000686508D03C0E686105D08B948B828F80DF
:10194000010E816F6605D8A4A3D7770E6765A0D76F
:10195000AA0E67619DD7130E68659AD73C0E686121
:1019600097D78B948B928F90000E816F91D79EA802
:10197000FED7540EAD6EACA2FED79EA8FED7410E88
:10198000AD6EACA2FED79EA8FED7430EAD6EACA244
:10199000FED79EA8FED7480EAD6EACA2FED79EA87D
:1019A000FED7450EAD6EACA2FED79EA8FED7340E74
:1019B000AD6EACA2FED79EA8FED75F0EAD6EACA2F8
:1019C000FED79EA8FED7450EAD6EACA2FED79EA850
:1019D000FED74E0EAD6EACA2FED79EA8FED75F0E10
:1019E000AD6EACA2FED79EA8FED7430EAD6EACA2E4
:1019F000FED79EA8FED74F0EAD6EACA2FED79EA816
:101A0000FED7550EAD6EACA2FED79EA8FED7520EE5
:101A1000AD6EACA2FED79EA8FED7530EAD6EACA2A3
:101A2000FED7000E026E000E016E014A022AE80E79
:101A3000015CFD0E0258D8B09AD7F7D7000E096E98
:101A4000000E906E1F0E916E000E996E000E9A6E33
:101A5000919A918C9198040ECFEC10F091880C0E15
:101A6000CFEC10F00CD0092A0C0ECFEC10F0C80E01
:101A7000096405D08B828F808B94F29EFFD783EC14
:101A800010F00009D8B4EFD70F0E056E210E066EC8
:101A9000270E98EC0FF0000E056E220E066E000E5B
:101AA00098EC0FF0000E056E240E066E000E98ECFA
:101AB0000FF07B0E056E400E066E000E98EC0FF0D8
:101AC000000E056E410E066E280E98EC0FF0800E8B
:101AD000056E420E066E000E98EC0FF0000E056EBD
:101AE000430E066E280E98EC0FF0800EFDEC10F001
:101AF0009C0EFDEC10F0A00EFDEC10F0700E056ECB
:101B0000020EE6EC0FF012000E6E0EC001F0026A3B
:101B1000000E046E060E036E72EC0EF00950280DD6
:101B2000F3CF0AF0F4CF0BF001500A240C6E0250F0
:101B30000B200D6E0D50056E240E066E0C5098ECA9
:101B40000FF018D0FD0EFDEC10F01200FC0EFDECB5
:101B500010F01200FB0EFDEC10F01200FA0EFDEC7E
:101B600010F01200F90EFDEC10F01200F80EFDEC72
:101B700010F012000EC001F0026A000E046E060E94
:101B8000036EB4EC0EF00250000AD8A4120001500B
:101B9000000AD8B4D7D7010AD8B4D8D7030AD8B422
:101BA000D9D7010AD8B4DAD7070AD8B4DBD7010AE3
:101BB000D8A41200DBD795828C968C94000E026E0E
:101BC000640E016E24EC11F08C86000E056E030E7F
:101BD000026EE80E016E24EC11F0052A83A002D0FB
:101BE000410E056E400E0564F2D783A033D0000E7F
:101BF000066E000E086E000E076E83A203D008501A
:101C00000109086E08500824086E000E026E640E6A
:101C1000016E24EC11F08C84010E026EF40E016E44
:101C200024EC11F08C94010E026E900E016E24ECE7
:101C300011F0072A070E0764E0D706500324D96E77
:101C4000000E0420DA6E08C0DFFF062A83B0D1D769
:101C500006501200000E12001CD000F0C00E056EDF
:101C600008C0F6FF09C0F7FF000EF86E0F0EF7640C
:101C700003D00800F55005D0F6CFE9FFF7CFEAFF13
:101C8000EF50E00FE6EC0FF00009D8B4E6D7084AB1
:101C9000092A08C0F6FF09C0F7FF000EF86E0F0E04
:101CA000F76403D00800F55005D0F6CFE9FFF7CF71
:101CB000EAFFEF500009D8B4120008C0F6FF09C0CF
:101CC000F7FF000EF86E0F0EF76403D00800F55012
:101CD00005D0F6CFE9FFF7CFEAFFEF500009D8B4FF
:101CE0001200BCD7000E066E04AE06D0036C041EB4
:101CF000D8B0042A010E066E02AE06D0016C021E98
:101D0000D8B0022A010E061A000E086E000E076EE9
:101D100003500410D8B41CD0010E056E04D0D89026
:101D200003360436052A04AEFAD7D89007360836AB
:101D30000350015C04500258D8A005D00350015E46
:101D40000450025A0780D89004320332052EEDD792
:101D50000650D8B404D0076C081ED8B0082A07C0B3
:101D600001F008C002F01200000E066E02AE06D0AE
:101D7000016C021ED8B0022A010E066E04AE04D019
:101D8000036C041ED8B0042A03500410D8B418D031
:101D9000010E056E04D0D89003360436052A04AE31
:101DA000FAD70350015C04500258D8A004D0035065
:101DB000015E0450025AD89004320332052EF1D746
:101DC0000650D8B404D0016C021ED8B0022A01C05B
:101DD00001F002C002F01200086E08380F0B096E05
:101DE000090E096403D00950170F02D00950100FD3
:101DF000096E01D000F0C00E056E0950E6EC0FF040
:101E00000009D8B4F7D708500F0B096E090E096402
:101E100003D00950170F02D00950100F096E01D0DE
:101E200000F0C00E056E0950E6EC0FF00009D8A4D2
:101E30001200F6D70C6E7B0E0E6E000E0D6E0F0E9E
:101E40000C6402D0000E0C6E270E096402D0000E46
:101E5000096E0C50280DF3CF0AF0F4CF0BF00950A7
:101E60000A26000E0B220D500A240D6E0E500B2078
:101E70000E6E01D000F00E50056E240E066E0D5051
:101E800098EC0FF00009D8A41200F4D7000E066EEB
:101E9000000E056E03500410D8B41CD0010E076E5E
:101EA00004D0D89003360436072A04AEFAD7D89067
:101EB000053606360350015C04500258D8A005D000
:101EC0000350015E0450025A0580D8900432033258
:101ED000072EEDD705C001F006C002F01200000E7B
:101EE000026E020E1ED0996891809196919200F038
:101EF00087CF03F0918291860350030B036E030E8C
:101F00000318D8B40DD0022A0C0ECFEC10F0F90E45
:101F1000026408D0F29E8B948B828F80000E01D0D9
:101F2000010E046E020E0418D8B4DDD7045012005E
:101F3000076E000E086E6FEC0FF0E806D8A41ED0F6
:101F40000C0ECFEC10F007500AEC11F06FEC0FF014
:101F5000E806D8A413D00C0ECFEC10F005500AEC14
:101F600011F06FEC0FF0E806D8A408D00C0ECFECFF
:101F700010F0065017EC11F0010E086E0850120018
:101F8000126E12C013F00BD00FC009F0135084EC86
:101F90000DF011C009F0135084EC0DF0132A13500A
:101FA000105CD8B0F1D70FC014F00BD014C009F0FA
:101FB000125084EC0DF014C009F0105084EC0DF0B8
:101FC000142A1450115CD8A01200F0D7066E000E2F
:101FD000076E6FEC0FF0E806D8A413D00C0ECFEC10
:101FE00010F006500AEC11F06FEC0FF0E806D8A4E0
:101FF00008D00C0ECFEC10F0055017EC11F0010ECC
:10200000076E07501200A00E0F01266F000E256FFD
:10201000000E246F000E236F2581258325852587DB
:10202000248524878B848B828F80949494929890BB
:102030009896989895949596F19E538D1200026EFD
:10204000000EC16E160EC06E02501F0B026E0244CF
:10205000E846FC0B026E02500109C26EC282C2B297
:10206000FED7C3A003D0000E016E02D0C4CF01F092
:1020700001501200086E200E086002D03F0E086E5C
:102080009F0E086402D03F0E086E0850E00F086EE5
:1020900001D000F0C00E056E0850E6EC0FF000090C
:1020A000D8A41200F6D7000E056E240E066E000EA0
:1020B00098EC0FF0000E0A6E000E096EC00E056E51
:1020C000000EE6EC0FF0094A0A2A800E0A180910E1
:1020D000D8B41200F3D7800E056E240E066E000EE3
:1020E00098EC0FF0800E0A6E000E096EC00E056EA1
:1020F000000EE6EC0FF0094A0A2AF80E0A18091039
:10210000D8B41200F3D7996891809196919200F01B
:1021100000F000F087CF01F0918291860150030B0F
:10212000030AD8A402D0010E01D0000E016E0150A6
:102130001200750E036E000E046EDBEC0DF0096EDE
:102140000950D8B406D00A0E096003D009C07FF048
:10215000F0D7000E00017F6FECD706D0010E3A6E6B
:102160000BD0010E396E08D0FF0EE350010AD8B42F
:10217000F5D7030AD8B4F5D7E5521200949C948E93
:10218000080E656E040ED46EE10EAF6E040EAC6EDA
:10219000800EAB6E240EAC6E900EAB6E1200016E14
:1021A0000BD000F000F000F000F000F000F000F0C4
:1021B00000F000F000F001060150D8B41200F1D791
:1021C0000F6E000E106E10C009F00F501AEC0FF0D9
:1021D000200E3AEC10F0102A270E1064F4D71200EB
:1021E00003EC10F03FEC0AF0010EE66EADEC10F0DF
:1021F000D58EF284F28E00F0FED7056E6FEC0FF0F4
:10220000E806D8A412000C0ECFEC10F0055017EC25
:1022100011F01200016E01C090FF000E996E9190B6
:102220009196919400F000F0918491861200016ED5
:1022300001C090FF000E996E91809196919400F0EC
:1022400000F091849186120006D000F000F000F0BA
:102250000106D8A0020601500210D8B41200F5D72A
:1022600006D000F000F000F00106D8A002060150F0
:102270000210D8B41200F5D7000E096E0E0E1AEC3B
:102280000FF0330E086E100E096E2CEC0EF01200DB
:10229000000E096E0E0E1AEC0FF0010E086E100EF5
:1022A000096E2CEC0EF012003A6A396A386A376A05
:0822B000366A0001F0EF10F0A6
:020000040020DA
:08000000FFFFFFFFFFFFFFFF00
:020000040030CA
:0E00000015136100308081FFFFC0FFE0FF405C
:00000001FF
