:040000009EEF01F07E
:10000800E9CF17F0EACF18F0E1CF19F0E2CF1AF0F4
:10001800D9CF1BF0DACF1CF0F3CF1DF0F4CF1EF0D0
:10002800F6CF1FF0F7CF20F0F8CF21F0F5CF22F070
:100038001AEEACF0D8CF61F00001606FE0CF62F04B
:10004800EACF63F0E9CF64F0F2BAF2A443D16505D0
:10005800D8A404D01B0EFC6E000E656F6FC0EAFFBB
:10006800000EE96E60C0EEFF61C0EEFF62C0EEFFF9
:10007800FCCFEEFF63C0EEFF64C0EEFFE2CFEEFF01
:10008800E1CFEEFFDACFEEFFD9CFEEFFF4CFEEFFF0
:10009800F3CFEEFFF8CFEEFFF7CFEEFFF6CFEEFF90
:1000A800F5CFEEFFFBCFEEFFFACFEEFF000EE26ECC
:1000B800000EE16EE6CFEEFFE6CFEEFFE6CFEEFFF5
:1000C800E6CFEEFFE6CFEEFFE6CFEEFFE6CFEEFFA0
:1000D800E6CFEEFFE6CFEEFFE6CFEEFFE6CFEEFF90
:1000E800E6CFEEFFE6CFEEFFE6CFEEFFE6CFEEFF80
:1000F800E6CFEEFFE6CFEEFFE6CFEEFFE6CFEEFF70
:10010800E6CFEEFFE6CFEEFFE6CFEEFFE6CFEEFF5F
:10011800E6CFEEFFE6CFEEFFE6CFEEFFE6CFEEFF4F
:10012800E6CFEEFFE6CFEEFFE6CFEEFFE6CFEEFF3F
:10013800E6CFEEFFE6CFEEFFE6CFEEFFE6CFEEFF2F
:10014800E6CFEEFFE6CFEEFFE6CFEEFFE6CFEEFF1F
:10015800E6CFEEFFE6CFEEFFE6CFEEFFE6CFEEFF0F
:10016800E6CFEEFFE6CFEEFFE6CFEEFFE6CFEEFFFF
:10017800E6CFEEFF8A0ED76ECF0ED66EF294714B95
:10018800722B702B060E7019D8A402D0000E706F57
:10019800690E7025D96EDA6A000EDA22DF506F6FA9
:1001A800000EE26E000EE16E6FC0EAFF120EE96EFD
:1001B800EECFE6FFEECFE6FFEECFE6FFEECFE6FFAF
:1001C800EECFE6FFEECFE6FFEECFE6FFEECFE6FF9F
:1001D800EECFE6FFEECFE6FFEECFE6FFEECFE6FF8F
:1001E800EECFE6FFEECFE6FFEECFE6FFEECFE6FF7F
:1001F800EECFE6FFEECFE6FFEECFE6FFEECFE6FF6F
:10020800EECFE6FFEECFE6FFEECFE6FFEECFE6FF5E
:10021800EECFE6FFEECFE6FFEECFE6FFEECFE6FF4E
:10022800EECFE6FFEECFE6FFEECFE6FFEECFE6FF3E
:10023800EECFE6FFEECFE6FFEECFE6FFEECFE6FF2E
:10024800EECFE6FFEECFE6FFEECFE6FFEECFE6FF1E
:10025800EECFE6FFEECFE6FFEECFE6FFEECFE6FF0E
:10026800EECFE6FFEECFE6FFEECFE6FFEECFE6FFFE
:100278006FC0EAFF000EE96EEECF60F0EECF61F0DE
:10028800EECF62F0EECFFCFFEECF63F0EECF64F07E
:10029800EECFE2FFEECFE1FFEECFDAFFEECFD9FFF0
:1002A800EECFF4FFEECFF3FFEECFF8FFEECFF7FF80
:1002B800EECFF6FFEECFF5FFEECFFBFFEECFFAFF66
:1002C80064C0E9FF63C0EAFF62C0E0FF605161C03B
:1002D800D8FF100064C0E9FF63C0EAFF62C0E0FF16
:1002E8000001605161C0D8FF10006DEC08F07AEC95
:1002F8000BF067EC0CF0D6EC0CF0F4EC0BF098EC8F
:1003080010F022C0F5FF21C0F8FF20C0F7FF1FC082
:10031800F6FF1EC0F4FF1DC0F3FF1CC0DAFF1BC0B0
:10032800D9FF1AC0E2FF19C0E1FF18C0EAFF17C0E1
:0C033800E9FF110016EE42F017EF12F082
:1010000000415454454E54494F4E20766F7573201D
:101010006574657320706C65696E21212100204123
:101020005543554E20202020202020202020202005
:10103000202000524F5545534259474E4F4C45537F
:101040000054656D702E204875696C653A00582D06
:101050004A6F79737469636B3A00592D4A6F7973DB
:101060007469636B3A0054656D702E204561753A62
:101070000042617474657269653A005669746573FB
:1010800073653A004F70657261746F72004D6172E2
:101090006368653A0042616467653A005369656751
:1010A000653A00434841524745002041444D494E6E
:1010B0000028282129290043686F633A00415543DD
:1010C000554E00564944450020793D004E20007899
:0910D0003D0041520041560000B0
:1010DA00F29E3DEC0DF02AEC11F042EC11F081EC9D
:1010EA0011F0020EE66E70EC11F0010E0001806F35
:1010FA00520EAD6EF28E8B948B928F90000E736FA0
:10110A000F0E746F000E7F6F000E816F000E826FDC
:10111A00220E096E0D0ECCEC0FF0520E11EC11F0EE
:10112A00200E11EC11F0560E11EC11F0200E11ECFC
:10113A0011F0420E11EC11F0220E096E0E0ECCECDB
:10114A000FF0300E11EC11F0200E11EC11F0300EF0
:10115A0011EC11F0200E11EC11F0300E11EC11F01F
:10116A00220E096E0F0ECCEC0FF0310E11EC11F0BD
:10117A00200E11EC11F0310E11EC11F0200E11ECD1
:10118A0011F0310E11EC11F0000E0001666F140E11
:10119A000F6EE60E106E3C0E116EB40E72EC10F06D
:1011AA00140E0F6EAA0E106E3C0E116E780E72ECB3
:1011BA0010F0020E086E000E096E99EC0EF0000E89
:1011CA00096E000ECCEC0FF08D0E086E100E096E33
:1011DA0099EC0EF081B007D0D50E086E100E096E8C
:1011EA0099EC0EF030D081B207D0D20E086E100EF4
:1011FA00096E99EC0EF027D0CC0E086E100E096E0F
:10120A0099EC0EF0070E166E170E156E6A0EE82E82
:10121A00FED7152EFCD7162EFAD700D0000173512F
:10122A00D8B411D07305736F000E096E050ECCEC9D
:10123A000FF07B0E086E100E096E99EC0EF000018D
:10124A0073514BEC0EF0000E096E070ECCEC0FF04A
:10125A0084B807D0B10E086E100E096E99EC0EF024
:10126A0006D02D0E086E100E096E99EC0EF0000EC7
:10127A00096E010ECCEC0FF09C0E086E100E096E72
:10128A0099EC0EF081B404D0310E11EC11F003D0B8
:10129A00300E11EC11F0000E096E020ECCEC0FF0BC
:1012AA00660E086E100E096E99EC0EF0020EF6EC40
:1012BA0010F04BEC0EF0000E096E030ECCEC0FF0A2
:1012CA00410E086E100E096E99EC0EF0030EF6EC44
:1012DA0010F04BEC0EF0000E096E040ECCEC0FF081
:1012EA00B70E086E100E096E99EC0EF081B604D096
:1012FA00310E11EC11F003D0300E11EC11F0020E88
:10130A0000018219D8A406D082C001F0026ADFEC7B
:10131A000EF003D08205D8B4F7D7000E096E050E79
:10132A00CCEC0FF07B0E086E100E096E99EC0EF0E5
:10133A00000173514BEC0EF0000E096E060ECCEC58
:10134A000FF0710E086E100E096E99EC0EF084B44F
:10135A0005D0640E0001746101D0742B84B604D0E8
:10136A0000017451D8A47407000174514BEC0EF0BB
:10137A00000E096E080ECCEC0FF0950E086E100EDA
:10138A00096E99EC0EF000017F51D8A407D01E0E09
:10139A00086E100E096E99EC0EF01ED0020E82191C
:1013AA00D8A407D0840E086E100E096E99EC0EF0C0
:1013BA0013D08205D8A407D0AA0E086E100E096EA3
:1013CA0099EC0EF009D08251D8A406D0BD0E086E51
:1013DA00100E096E99EC0EF0000E096E090ECCEC97
:1013EA000FF04E0E086E100E096E99EC0EF00A0EF2
:1013FA00F6EC10F09EEC0FF0000E096E0A0ECCEC23
:10140A000FF05A0E086E100E096E99EC0EF00B0EC4
:10141A00F6EC10F09EEC0FF0160E096E050ECCECF1
:10142A000FF0C30E086E100E096E99EC0EF01F0E27
:10143A00096E050ECCEC0FF0A30E086E100E096EA5
:10144A0099EC0EF000016605D8A420D0140E096E9E
:10145A00000ECCEC0FF0CF0E086E100E096E99EC50
:10146A000EF0000167519EEC0FF0C80E086E100EC8
:10147A00096E99EC0EF0000168519EEC0FF068C0FD
:10148A0009F000016751A3EC0DF001D000F0000152
:10149A008105D8B40BEC12F000018151D8A48FD683
:1014AA000E0EA3EC11F0FFEC11F0030E0001816F98
:1014BA0086D6010E0001656F010E696F020E6A6F12
:1014CA00030E6B6F040E6C6F050E6D6F060E6E6F5A
:1014DA00050E706F690E7025D96EDA6A000EDA226F
:1014EA00DF506F6FFCCF23F0020EFC6EDA0E306E07
:1014FA00100E316E000E326E30C035F031C036F04B
:10150A00350E336E000E346E33C0D9FF34C0DAFFA5
:10151A00DF50FD6E334A342A33C0D9FF34C0DAFFB4
:10152A00DF50FE6E334A342A33C0D9FF34C0DAFFA3
:10153A00DF50FF6E070EFC6EF40E306E160E316E23
:10154A00000E326E30C035F031C036F0350E336ED3
:10155A00000E346E33C0D9FF34C0DAFFDF50FD6E9F
:10156A00334A342A33C0D9FF34C0DAFFDF50FE6E63
:10157A00334A342A33C0D9FF34C0DAFFDF50FF6E52
:10158A000C0EFC6ECE0E306E180E316E000E326EE0
:10159A0030C035F031C036F0350E336E000E346E81
:1015AA0033C0D9FF34C0DAFFDF50FD6E334A342A24
:1015BA0033C0D9FF34C0DAFFDF50FE6E334A342A13
:1015CA0033C0D9FF34C0DAFFDF50FF6E110EFC6E54
:1015DA00AC0E306E190E316E000E326E30C035F020
:1015EA0031C036F0350E336E000E346E33C0D9FF7B
:1015FA0034C0DAFFDF50FD6E334A342A33C0D9FFD4
:10160A0034C0DAFFDF50FE6E334A342A33C0D9FFC2
:10161A0034C0DAFFDF50FF6E160EFC6EE80E306E35
:10162A00170E316E000E326E30C035F031C036F012
:10163A00350E336E000E346E33C0D9FF34C0DAFF74
:10164A00DF50FD6E334A342A33C0D9FF34C0DAFF83
:10165A00DF50FE6E334A342A33C0D9FF34C0DAFF72
:10166A00DF50FF6E1B0EFC6E300E306E210E316E97
:10167A00000E326E30C035F031C036F0350E336EA2
:10168A00000E346E33C0D9FF34C0DAFFDF50FD6E6E
:10169A00334A342A33C0D9FF34C0DAFFDF50FE6E32
:1016AA00334A342A33C0D9FF34C0DAFFDF50FF6E21
:1016BA0023C0FCFF020E0101036F070E0201036F34
:1016CA000C0E0301036F110E0401036F160E0501C0
:1016DA00036F1B0E0601036F000E0001726F000EEE
:1016EA00716F010ED56EF28A1200000E0001666F4C
:1016FA008F868F980B0E026EB80E016EF3EC11F006
:10170A00160EC06E010EC26E030EC26EC2B2FED7B4
:10171A00C4CF0EF0C3CF0FF00FC008F00F0E08169B
:10172A00D8B404D0000E0E6E000E0F6E090E0E64B1
:10173A00DCD78F968F880B0E026EB80E016EF3EC13
:10174A0011F0160EC06E050EC26E070EC26EC2B240
:10175A00FED7C4CF10F0C3CF11F011C008F00F0E9E
:10176A000816D8B404D0000E106E000E116E130EB7
:10177A001064BBD70E50086E0F500A6E08C00BF0EB
:10178A001050086E11500C6E08C00DF0B20E0A24EB
:10179A000A6EF30E0B200B6E9C0E0C240C6EE60EDA
:1017AA000D200D6E0AC001F00BC002F0000E046E8F
:1017BA00F60E036EF8EC0FF001500001676F0CC0D3
:1017CA0001F00DC002F0010E046E990E036EF8ECE2
:1017DA000FF001507F080001686F010E88D79EA89C
:1017EA00FED7740EAD6EACA2FED79EA8FED7610ED0
:1017FA00AD6EACA2FED79EA8FED7630EAD6EACA2AC
:10180A00FED79EA8FED7680EAD6EACA2FED79EA8E4
:10181A00FED7650EAD6EACA2FED79EA8FED7350EDA
:10182A00AD6EACA2FED79EA8FED75F0EAD6EACA27F
:10183A00FED79EA8FED7650EAD6EACA2FED79EA8B7
:10184A00FED76E0EAD6EACA2FED79EA8FED75F0E77
:10185A00AD6EACA2FED79EA8FED7630EAD6EACA24B
:10186A00FED79EA8FED76F0EAD6EACA2FED79EA87D
:10187A00FED7750EAD6EACA2FED79EA8FED7720E2D
:10188A00AD6EACA2FED79EA8FED7730EAD6EACA20B
:10189A00FED7000E026E000E016E014A022AE80E01
:1018AA00015CFD0E0258D8A0F8D7000E026E000E99
:1018BA00016E014A022AE80E015CFD0E0258D8B0F8
:1018CA008ED7F7D700016605D8A414D0CA0E67656B
:1018DA0011D0D10E67610ED0700E686504D0790EF2
:1018EA00686101D08B84780E686504D07F0E6861C8
:1018FA0001D08B946605D8A414D0D60E676511D092
:10190A00DD0E67610ED0700E686504D0790E6861CD
:10191A0001D08B82780E686504D07F0E686101D091
:10192A008B926605D8A414D0E20E676511D0E90E31
:10193A0067610ED0700E686504D0790E686101D0B7
:10194A008F80780E686504D07F0E686101D08F9011
:10195A006605D8A411D0B30E67650ED0E60E67618E
:10196A000BD0130E686508D03C0E686105D08B94C5
:10197A008B828F80010E816F6605D8A4A3D7770E5C
:10198A006765A0D7AA0E67619DD7130E68659AD7B7
:10199A003C0E686197D78B948B928F90000E816F63
:1019AA0091D79EA8FED7540EAD6EACA2FED79EA8C4
:1019BA00FED7410EAD6EACA2FED79EA8FED7430E4F
:1019CA00AD6EACA2FED79EA8FED7480EAD6EACA2F5
:1019DA00FED79EA8FED7450EAD6EACA2FED79EA836
:1019EA00FED7340EAD6EACA2FED79EA8FED75F0E10
:1019FA00AD6EACA2FED79EA8FED7450EAD6EACA2C8
:101A0A00FED79EA8FED74E0EAD6EACA2FED79EA8FC
:101A1A00FED75F0EAD6EACA2FED79EA8FED7430ED0
:101A2A00AD6EACA2FED79EA8FED74F0EAD6EACA28D
:101A3A00FED79EA8FED7550EAD6EACA2FED79EA8C5
:101A4A00FED7520EAD6EACA2FED79EA8FED7530E9D
:101A5A00AD6EACA2FED7000E026E000E016E014AF8
:101A6A00022AE80E015CFD0E0258D8B09AD7F7D7C1
:101A7A00000E096E000E906E1F0E916E000E996E8A
:101A8A00000E9A6E919A918C9198040E92EC11F034
:101A9A0091880C0E92EC11F00CD0092A0C0E92ECE3
:101AAA0011F0C80E096405D08B828F808B94F29E48
:101ABA00FFD75AEC11F00009D8B4EFD70F0E056E14
:101ACA00210E066E270E4AEC10F0000E056E220E4D
:101ADA00066E000E4AEC10F0000E056E240E066E1D
:101AEA00000E4AEC10F07B0E056E400E066E000EDC
:101AFA004AEC10F0000E056E410E066E280E4AECF6
:101B0A0010F0800E056E420E066E000E4AEC10F0C2
:101B1A00000E056E430E066E280E4AEC10F0800E7B
:101B2A00C0EC11F09C0EC0EC11F0A00EC0EC11F04C
:101B3A00700E056E020EBDEC10F012000E6E0EC095
:101B4A0001F0026A000E046E060E036E24EC0FF01A
:101B5A000950280DF3CF0AF0F4CF0BF001500A24F4
:101B6A000C6E02500B200D6E0D50056E240E066E83
:101B7A000C504AEC10F018D0FD0EC0EC11F0120017
:101B8A00FC0EC0EC11F01200FB0EC0EC11F01200BA
:101B9A00FA0EC0EC11F01200F90EC0EC11F01200AE
:101BAA00F80EC0EC11F012000EC001F0026A000E2D
:101BBA00046E060E036E66EC0FF00250000AD8A4FB
:101BCA0012000150000AD8B4D7D7010AD8B4D8D71E
:101BDA00030AD8B4D9D7010AD8B4DAD7070AD8B4CD
:101BEA00DBD7010AD8A41200DBD795828C968C9495
:101BFA00000E026E640E016EE7EC11F08C86000E88
:101C0A00056E030E026EE80E016EE7EC11F0052A6E
:101C1A0083A002D0410E056E400E0564F2D783A060
:101C2A0033D0000E066E000E086E000E076E83A2F9
:101C3A0003D008500109086E08500824086E000EE7
:101C4A00026E640E016EE7EC11F08C84010E026ED6
:101C5A00F40E016EE7EC11F08C94010E026E900EF8
:101C6A00016EE7EC11F0072A070E0764E0D7065069
:101C7A000324D96E000E0420DA6E08C0DFFF062A9C
:101C8A0083B0D1D706501200000E12000B6E0BC0A3
:101C9A0001F0026A000E046E640E036E24EC0FF06B
:101CAA0001500C6E0C509C0DF3500B240D6E0DC0A0
:101CBA0001F0026A000E046E0A0E036E24EC0FF0A5
:101CCA0001500D6E0C509C0DF3CF09F00D50F60D1E
:101CDA00F35009240B240A6E0C50100F0E6E01D01B
:101CEA0000F0C00E056E0E50BDEC10F00009D8B41D
:101CFA00F7D70D50100F0E6E01D000F0C00E056E12
:101D0A000E50BDEC10F00009D8B4F7D70A50100FE6
:101D1A000E6E01D000F0C00E056E0E50BDEC10F034
:101D2A000009D8A41200F6D71CD000F0C00E056E28
:101D3A0008C0F6FF09C0F7FF000EF86E0F0EF76431
:101D4A0003D00800F55005D0F6CFE9FFF7CFEAFF38
:101D5A00EF50E00FBDEC10F00009D8B4E6D7084AFE
:101D6A00092A08C0F6FF09C0F7FF000EF86E0F0E29
:101D7A00F76403D00800F55005D0F6CFE9FFF7CF96
:101D8A00EAFFEF500009D8B4120008C0F6FF09C0F4
:101D9A00F7FF000EF86E0F0EF76403D00800F55037
:101DAA0005D0F6CFE9FFF7CFEAFFEF500009D8B424
:101DBA001200BCD701040210D8A408D0000E076E86
:101DCA00320E066E000E096E500E086E020E0118D3
:101DDA000210D8A408D0000E076E0F0E066E000E71
:101DEA00096E190E086E81A002D081B2120084A871
:101DFA00120000018105D8A416D084B00DD0735109
:101E0A00036E046A0650035C0450800A056E07508C
:101E1A00800A0558D8A0732B84B212007351D8B423
:101E2A0012007307120084B0F7D77351036E046A65
:101E3A000850035C0450800A056E0950E9D7000E69
:101E4A00066E04AE06D0036C041ED8B0042A010E36
:101E5A00066E02AE06D0016C021ED8B0022A010E2E
:101E6A00061A000E086E000E076E03500410D8B44E
:101E7A001CD0010E056E04D0D89003360436052A0C
:101E8A0004AEFAD7D890073608360350015C0450DE
:101E9A000258D8A005D00350015E0450025A0780A8
:101EAA00D89004320332052EEDD70650D8B404D0A8
:101EBA00076C081ED8B0082A07C001F008C002F053
:101ECA001200000E066E02AE06D0016C021ED8B0D9
:101EDA00022A010E066E04AE04D0036C041ED8B0AA
:101EEA00042A03500410D8B418D0010E056E04D089
:101EFA00D89003360436052A04AEFAD70350015C9B
:101F0A0004500258D8A004D00350015E0450025A6B
:101F1A00D89004320332052EF1D70650D8B404D033
:101F2A00016C021ED8B0022A01C001F002C002F000
:101F3A001200086E08380F0B096E090E096403D0E7
:101F4A000950170F02D00950100F096E01D000F086
:101F5A00C00E056E0950BDEC10F00009D8B4F7D7D1
:101F6A0008500F0B096E090E096403D00950170FA8
:101F7A0002D00950100F096E01D000F0C00E056E94
:101F8A000950BDEC10F00009D8A41200F6D70C6E67
:101F9A007B0E0E6E000E0D6E0F0E0C6402D0000E3C
:101FAA000C6E270E096402D0000E096E0C50280D23
:101FBA00F3CF0AF0F4CF0BF009500A26000E0B22D9
:101FCA000D500A240D6E0E500B200E6E01D000F03B
:101FDA000E50056E240E066E0D504AEC10F00009E4
:101FEA00D8A41200F4D7000E066E000E056E035038
:101FFA000410D8B41CD0010E076E04D0D890033652
:10200A000436072A04AEFAD7D890053606360350A6
:10201A00015C04500258D8A005D00350015E045058
:10202A00025A0580D89004320332072EEDD705C034
:10203A0001F006C002F01200000E026E020E1ED05F
:10204A00996891809196919200F087CF03F09182DE
:10205A0091860350030B036E030E0318D8B40DD0F8
:10206A00022A0C0E92EC11F0F90E026408D0F29ECC
:10207A008B948B828F80000E01D0010E046E020EAB
:10208A000418D8B4DDD704501200076E000E086E8B
:10209A0021EC10F0E806D8A41ED00C0E92EC11F038
:1020AA000750CDEC11F021EC10F0E806D8A413D0BB
:1020BA000C0E92EC11F00550CDEC11F021EC10F061
:1020CA00E806D8A408D00C0E92EC11F00650DAEC0F
:1020DA0011F0010E086E08501200126E12C013F0B1
:1020EA000BD00FC009F01350A3EC0DF011C009F08A
:1020FA001350A3EC0DF0132A1350105CD8B0F1D78B
:10210A000FC014F00BD014C009F01250A3EC0DF05C
:10211A0014C009F01050A3EC0DF0142A1450115CED
:10212A00D8A01200F0D7750E036E000E046EFAECFA
:10213A000DF0096E0950D8B415D0040E0918D8A4A8
:10214A0004D009C07FF0020E07D0080E0918D8A4DF
:10215A0005D009C07FF0010E000108D0000E000171
:10216A007F6FE1D7000E00017F6F000E826FDBD711
:10217A00066E000E076E21EC10F0E806D8A413D004
:10218A000C0E92EC11F00650CDEC11F021EC10F08F
:10219A00E806D8A408D00C0E92EC11F00550DAEC3F
:1021AA0011F0010E076E07501200A00E0F01266FE4
:1021BA00000E256F000E246F000E236F25812583E4
:1021CA0025852587248524878B848B828F80949408
:1021DA00949298909896989895949596F19E538D86
:1021EA001200026E000EC16E160EC06E02501F0B58
:1021FA00026E0244E846FC0B026E02500109C26EEE
:10220A00C282C2B2FED7C3A003D0000E016E02D0B2
:10221A00C4CF01F001501200086E200E086002D0EF
:10222A003F0E086E9F0E086402D03F0E086E0850DB
:10223A00E00F086E01D000F0C00E056E0850BDEC2C
:10224A0010F00009D8A41200F6D7000E056E240E6D
:10225A00066E000E4AEC10F0000E0A6E000E096EB1
:10226A00C00E056E000EBDEC10F0094A0A2A800E57
:10227A000A180910D8B41200F3D7800E056E240E7E
:10228A00066E000E4AEC10F0800E0A6E000E096E01
:10229A00C00E056E000EBDEC10F0094A0A2AF80EAF
:1022AA000A180910D8B41200F3D799689180919648
:1022BA00919200F000F000F087CF01F091829186B0
:1022CA000150030B030AD8A402D0010E01D0000E5C
:1022DA00016E0150120006D0010E3B6E0BD0010EAA
:1022EA003A6E08D0FF0EE350010AD8B4F5D7030AB4
:1022FA00D8B4F5D7E5521200949C948E080E656EF8
:10230A00040ED46EE10EAF6E040EAC6E800EAB6E90
:10231A00240EAC6E900EAB6E1200016E0BD000F064
:10232A0000F000F000F000F000F000F000F000F023
:10233A0000F001060150D8B41200F1D70F6E000E5A
:10234A00106E10C009F00F50CCEC0FF0200E11ECFB
:10235A0011F0102A270E1064F4D71200DAEC10F0EC
:10236A005EEC0AF0010EE66E70EC11F0D58EF28486
:10237A00F28E00F0FED7056E21EC10F0E806D8A424
:10238A0012000C0E92EC11F00550DAEC11F012006A
:10239A00016E01C090FF000E996E919091969194F2
:1023AA0000F000F0918491861200016E01C090FF46
:1023BA00000E996E91809196919400F000F09184AC
:1023CA009186120006D000F000F000F00106D8A0B5
:1023DA00020601500210D8B41200F5D706D000F058
:1023EA0000F000F00106D8A0020601500210D8B48D
:1023FA001200F5D7000E096E0E0ECCEC0FF0330E5C
:10240A00086E100E096E99EC0EF01200000E096E9D
:10241A000E0ECCEC0FF0010E086E100E096E99EC40
:10242A000EF012003B6A3A6A396A386A376A000162
:04243A00B3EF11F0FB
:020000040020DA
:08000000FFFFFFFFFFFFFFFF00
:020000040030CA
:0E00000015136100308081FFFFC0FFE0FF405C
:00000001FF
