:040000009EEF01F07E
:10000800E9CF1DF0EACF1EF0E1CF1FF0E2CF20F0DC
:10001800D9CF21F0DACF22F0F3CF23F0F4CF24F0B8
:10002800F6CF25F0F7CF26F0F8CF27F0F5CF28F058
:100038001AEEACF0D8CF61F00001606FE0CF62F04B
:10004800EACF63F0E9CF64F0F2BAF2A443D16505D0
:10005800D8A404D01B0EFC6E000E656F6FC0EAFFBB
:10006800000EE96E60C0EEFF61C0EEFF62C0EEFFF9
:10007800FCCFEEFF63C0EEFF64C0EEFFE2CFEEFF01
:10008800E1CFEEFFDACFEEFFD9CFEEFFF4CFEEFFF0
:10009800F3CFEEFFF8CFEEFFF7CFEEFFF6CFEEFF90
:1000A800F5CFEEFFFBCFEEFFFACFEEFF000EE26ECC
:1000B800000EE16EE6CFEEFFE6CFEEFFE6CFEEFFF5
:1000C800E6CFEEFFE6CFEEFFE6CFEEFFE6CFEEFFA0
:1000D800E6CFEEFFE6CFEEFFE6CFEEFFE6CFEEFF90
:1000E800E6CFEEFFE6CFEEFFE6CFEEFFE6CFEEFF80
:1000F800E6CFEEFFE6CFEEFFE6CFEEFFE6CFEEFF70
:10010800E6CFEEFFE6CFEEFFE6CFEEFFE6CFEEFF5F
:10011800E6CFEEFFE6CFEEFFE6CFEEFFE6CFEEFF4F
:10012800E6CFEEFFE6CFEEFFE6CFEEFFE6CFEEFF3F
:10013800E6CFEEFFE6CFEEFFE6CFEEFFE6CFEEFF2F
:10014800E6CFEEFFE6CFEEFFE6CFEEFFE6CFEEFF1F
:10015800E6CFEEFFE6CFEEFFE6CFEEFFE6CFEEFF0F
:10016800E6CFEEFFE6CFEEFFE6CFEEFFE6CFEEFFFF
:10017800E6CFEEFF8A0ED76ECF0ED66EF294714B95
:10018800722B702B060E7019D8A402D0000E706F57
:10019800690E7025D96EDA6A000EDA22DF506F6FA9
:1001A800000EE26E000EE16E6FC0EAFF120EE96EFD
:1001B800EECFE6FFEECFE6FFEECFE6FFEECFE6FFAF
:1001C800EECFE6FFEECFE6FFEECFE6FFEECFE6FF9F
:1001D800EECFE6FFEECFE6FFEECFE6FFEECFE6FF8F
:1001E800EECFE6FFEECFE6FFEECFE6FFEECFE6FF7F
:1001F800EECFE6FFEECFE6FFEECFE6FFEECFE6FF6F
:10020800EECFE6FFEECFE6FFEECFE6FFEECFE6FF5E
:10021800EECFE6FFEECFE6FFEECFE6FFEECFE6FF4E
:10022800EECFE6FFEECFE6FFEECFE6FFEECFE6FF3E
:10023800EECFE6FFEECFE6FFEECFE6FFEECFE6FF2E
:10024800EECFE6FFEECFE6FFEECFE6FFEECFE6FF1E
:10025800EECFE6FFEECFE6FFEECFE6FFEECFE6FF0E
:10026800EECFE6FFEECFE6FFEECFE6FFEECFE6FFFE
:100278006FC0EAFF000EE96EEECF60F0EECF61F0DE
:10028800EECF62F0EECFFCFFEECF63F0EECF64F07E
:10029800EECFE2FFEECFE1FFEECFDAFFEECFD9FFF0
:1002A800EECFF4FFEECFF3FFEECFF8FFEECFF7FF80
:1002B800EECFF6FFEECFF5FFEECFFBFFEECFFAFF66
:1002C80064C0E9FF63C0EAFF62C0E0FF605161C03B
:1002D800D8FF100064C0E9FF63C0EAFF62C0E0FF16
:1002E8000001605161C0D8FF10007BEC08F012ECEF
:1002F8000CF0FFEC0CF06EEC0DF08CEC0CF0E6EC76
:1003080011F028C0F5FF27C0F8FF26C0F7FF25C069
:10031800F6FF24C0F4FF23C0F3FF22C0DAFF21C098
:10032800D9FF20C0E2FF1FC0E1FF1EC0EAFF1DC0C9
:0C033800E9FF110016EE42F098EF13F000
:1010000000415454454E54494F4E20766F7573201D
:101010006574657320706C65696E21212100204123
:101020005543554E20202020202020202020202005
:10103000202000524F5545534259474E4F4C45537F
:101040000054656D702E204875696C653A00582D06
:101050004A6F79737469636B3A00592D4A6F7973DB
:101060007469636B3A0054656D702E204561753A62
:101070000042617474657269653A005669746573FB
:1010800073653A004F70657261746F7200302D2D78
:101090002D2D302D004D61726368653A0042616408
:1010A00067653A0053696567653A004348415247AE
:1010B00045002041444D494E002828212929002F70
:1010C0005E5E5E2D0043686F633A00415543554EA6
:1010D0000075702020005649444500646F776E000B
:1010E00020793D007C5F6F004E2000415200415648
:0510F00000783D000046
:1010F600F29ED5EC0DF098EC12F0B0EC12F002EC8A
:1011060013F0020EE66EF1EC12F0010E0001806F94
:10111600520EAD6EF28E8B948B928F90000E736F83
:10112600000E7F6F000E816F000E826F220E096E19
:101136000D0EF4EC10F0520E7FEC12F0200E7FEC48
:1011460012F0560E7FEC12F0200E7FEC12F0420EDB
:101156007FEC12F0220E096E0E0EF4EC10F0300E3B
:101166007FEC12F0200E7FEC12F0300E7FEC12F0C6
:10117600200E7FEC12F0300E7FEC12F0220E096E7C
:101186000F0EF4EC10F0310E7FEC12F0200E7FEC17
:1011960012F0310E7FEC12F0200E7FEC12F0310EC1
:1011A6007FEC12F0000E0001666FA00E856FBE0E7A
:1011B600876F640E866F130E096E0C0EF4EC10F03A
:1011C6008D0E086E100E096ECFEC0FF0140E096E20
:1011D6000B0EF4EC10F0E40E086E100E096ECFEC58
:1011E6000FF0130E096E0A0EF4EC10F0BF0E086E27
:1011F600100E096ECFEC0FF0140E156EE60E166E7D
:101206003C0E176EB40E9AEC11F0140E156EAA0E63
:10121600166E3C0E176E780E9AEC11F0500E156E87
:10122600A00E166E640E176EA00E9AEC11F086C014
:1012360015F087C016F086C017F0000185519AECAC
:1012460011F0020E086E000E096ECFEC0FF0000EC4
:10125600096E000EF4EC10F0950E086E100E096E75
:10126600CFEC0FF0000E096E070EF4EC10F084B808
:1012760017D0B90E086E100E096ECFEC0FF04E0E99
:101286001B6EEB0EE82EFED71B2EFCD700F073C0AC
:1012960001F0026AA0EC13F001500001736F06D052
:1012A6002D0E086E100E096ECFEC0FF0000E096EB3
:1012B600010EF4EC10F0A40E086E100E096ECFECC1
:1012C6000FF081B406D0310E7FEC12F08FEC10F0E7
:1012D60016D0300E7FEC12F0040E1C6E0C0E1B6E38
:1012E600340EE82EFED71B2EFCD71C2EFAD773C061
:1012F60001F0026AA0EC13F001500001736F000EBA
:10130600096E020EF4EC10F0660E086E100E096EF1
:10131600CFEC0FF0020E64EC12F01B6E1B500F6E3A
:10132600106A0BEC12F00F503AEC0FF0000E096E3B
:10133600030EF4EC10F0410E086E100E096ECFECA1
:101346000FF0030E64EC12F01B6E1B500F6E106A4A
:101356000BEC12F00F503AEC0FF0000E096E040E73
:10136600F4EC10F0C50E086E100E096ECFEC0FF0FF
:1013760081B604D0310E7FEC12F003D0300E7FEC34
:1013860012F0020E00018219D8A406D082C001F024
:10139600026A88EC0FF003D08205D8B4F7D7000EA6
:1013A600096E050EF4EC10F07B0E086E100E096E39
:1013B600CFEC0FF0000173513AEC0FF0000E096EFE
:1013C600060EF4EC10F0710E086E100E096ECFECDE
:1013D6000FF084B405D0640E0001746101D0742B43
:1013E60084B604D000017451D8A474070001745166
:1013F6003AEC0FF0000E096E080EF4EC10F09D0E9C
:10140600086E100E096ECFEC0FF000017F51D8A4C4
:1014160007D01E0E086E100E096ECFEC0FF01ED010
:10142600020E8219D8A407D0840E086E100E096E1B
:10143600CFEC0FF013D08205D8A407D0B20E086EF9
:10144600100E096ECFEC0FF009D08251D8A406D049
:10145600CB0E086E100E096ECFEC0FF0000E096E63
:10146600090EF4EC10F04E0E086E100E096ECFEC5D
:101476000FF00A0E64EC12F0C6EC10F0000E096EC6
:101486000A0EF4EC10F05A0E086E100E096ECFEC30
:101496000FF00B0E64EC12F0C6EC10F0160E096E8F
:1014A600050EF4EC10F0D60E086E100E096ECFEC99
:1014B6000FF01F0E096E050EF4EC10F0AB0E086E61
:1014C600100E096ECFEC0FF00B0E64EC12F01B6ED3
:1014D600B40E1B6425D0500E0001866516D086C05A
:1014E60015F08729166E86C017F08551C0EC11F0ED
:1014F60086C086F00001860786C015F087C016F004
:1015060086C017F085519AEC11F01F0E096E090E70
:10151600F4EC10F0D10E086E100E096ECFEC0FF041
:101526000B0E64EC12F01B6E640E1B6025D0640E6D
:101536000001866116D086C015F08729166E86C012
:1015460017F08551C0EC11F086C086F00001862B9D
:1015560086C015F087C016F086C017F085519AEC44
:1015660011F01F0E096E090EF4EC10F0DB0E086E7A
:10157600100E096ECFEC0FF000016605D8A420D03E
:10158600140E096E000EF4EC10F0F10E086E100E3B
:10159600096ECFEC0FF000016751C6EC10F0E00EBB
:1015A600086E100E096ECFEC0FF000016851C6EC04
:1015B60010F068C00FF0000167513BEC0EF001D04F
:1015C60000F000018105D8B48CEC13F000018151C4
:1015D600D8A43DD60E0E24EC13F080EC13F0030EC7
:1015E6000001816F34D6010E0001656F010E696F2F
:1015F600020E6A6F030E6B6F040E6C6F050E6D6F35
:10160600060E6E6F050E706F690E7025D96EDA6A5A
:10161600000EDA22DF506F6FFCCF88F0020EFC6EF0
:10162600F60E356E100E366E000E376E35C03AF079
:1016360036C03BF03A0E386E000E396E38C0D9FF10
:1016460039C0DAFFDF50FD6E384A392A38C0D9FF73
:1016560039C0DAFFDF50FE6E384A392A38C0D9FF62
:1016660039C0DAFFDF50FF6E070EFC6E240E356EB2
:10167600180E366E000E376E35C03AF036C03BF0A7
:101686003A0E386E000E396E38C0D9FF39C0DAFF0F
:10169600DF50FD6E384A392A38C0D9FF39C0DAFF23
:1016A600DF50FE6E384A392A38C0D9FF39C0DAFF12
:1016B600DF50FF6E0C0EFC6EFE0E356E190E366E8A
:1016C600000E376E35C03AF036C03BF03A0E386E33
:1016D600000E396E38C0D9FF39C0DAFFDF50FD6E13
:1016E600384A392A38C0D9FF39C0DAFFDF50FE6ED2
:1016F600384A392A38C0D9FF39C0DAFFDF50FF6EC1
:10170600110EFC6EDC0E356E1A0E366E000E376E3E
:1017160035C03AF036C03BF03A0E386E000E396EE0
:1017260038C0D9FF39C0DAFFDF50FD6E384A392A92
:1017360038C0D9FF39C0DAFFDF50FE6E384A392A81
:1017460038C0D9FF39C0DAFFDF50FF6E160EFC6EC7
:10175600180E356E190E366E000E376E35C03AF01D
:1017660036C03BF03A0E386E000E396E38C0D9FFDF
:1017760039C0DAFFDF50FD6E384A392A38C0D9FF42
:1017860039C0DAFFDF50FE6E384A392A38C0D9FF31
:1017960039C0DAFFDF50FF6E1B0EFC6ECC0E356EC5
:1017A600230E366E000E376E35C03AF036C03BF06B
:1017B6003A0E386E000E396E38C0D9FF39C0DAFFDE
:1017C600DF50FD6E384A392A38C0D9FF39C0DAFFF2
:1017D600DF50FE6E384A392A38C0D9FF39C0DAFFE1
:1017E600DF50FF6E88C0FCFF020E0101036F070E7B
:1017F6000201036F0C0E0301036F110E0401036F48
:10180600160E0501036F1B0E0601036F000E000185
:10181600726F000E716F010ED56EF28A1200000E05
:101826000001666F8F868F980B0E026EB80E016EE2
:1018360074EC13F0160EC06E010EC26E030EC26E6D
:10184600C2B2FED7C4CF0EF0C3CF0FF00FC008F060
:101856000F0E0816D8B404D0000E0E6E000E0F6ED2
:10186600090E0E64DCD78F968F880B0E026EB80EAB
:10187600016E74EC13F0160EC06E050EC26E070EE6
:10188600C26EC2B2FED7C4CF10F0C3CF11F011C0E2
:1018960008F00F0E0816D8B404D0000E106E000E15
:1018A600116E130E1064BBD70E50086E0F500A6EE1
:1018B60008C00BF01050086E11500C6E08C00DF0E9
:1018C600B20E0A240A6EF30E0B200B6E9C0E0C242D
:1018D6000C6EE60E0D200D6E0AC001F00BC002F074
:1018E600000E046EF60E036E20EC11F0015000019E
:1018F600676F0CC001F00DC002F0010E046E990E68
:10190600036E20EC11F001507F080001686F010E94
:1019160088D79EA8FED7740EAD6EACA2FED79EA841
:10192600FED7610EAD6EACA2FED79EA8FED7630EA3
:10193600AD6EACA2FED79EA8FED7680EAD6EACA269
:10194600FED79EA8FED7650EAD6EACA2FED79EA8AA
:10195600FED7350EAD6EACA2FED79EA8FED75F0EA3
:10196600AD6EACA2FED79EA8FED7650EAD6EACA23C
:10197600FED79EA8FED76E0EAD6EACA2FED79EA871
:10198600FED75F0EAD6EACA2FED79EA8FED7630E45
:10199600AD6EACA2FED79EA8FED76F0EAD6EACA202
:1019A600FED79EA8FED7750EAD6EACA2FED79EA83A
:1019B600FED7720EAD6EACA2FED79EA8FED7730EF2
:1019C600AD6EACA2FED7000E026E000E016E014A8D
:1019D600022AE80E015CFD0E0258D8A0F8D7000EC8
:1019E600026E000E016E014A022AE80E015CFD0E2F
:1019F6000258D8B08ED7F7D700016605D8A414D000
:101A0600CA0E676511D0D10E67610ED0700E68657B
:101A160004D0790E686101D08B84780E686504D095
:101A26007F0E686101D08B946605D8A414D0D60EBB
:101A3600676511D0DD0E67610ED0700E686504D043
:101A4600790E686101D08B82780E686504D07F0EAE
:101A5600686101D08B926605D8A414D0E20E676542
:101A660011D0E90E67610ED0700E686504D0790E4C
:101A7600686101D08F80780E686504D07F0E68613A
:101A860001D08F906605D8A411D0B30E67650ED02D
:101A9600E60E67610BD0130E686508D03C0E6861D0
:101AA60005D08B948B828F80010E816F6605D8A43A
:101AB600A3D7770E6765A0D7AA0E67619DD7130EC9
:101AC60068659AD73C0E686197D78B948B928F90F6
:101AD600000E816F91D79EA8FED7540EAD6EACA2B4
:101AE600FED79EA8FED7410EAD6EACA2FED79EA82D
:101AF600FED7430EAD6EACA2FED79EA8FED7480E0B
:101B0600AD6EACA2FED79EA8FED7450EAD6EACA2BA
:101B1600FED79EA8FED7340EAD6EACA2FED79EA809
:101B2600FED75F0EAD6EACA2FED79EA8FED7450EC1
:101B3600AD6EACA2FED79EA8FED74E0EAD6EACA281
:101B4600FED79EA8FED75F0EAD6EACA2FED79EA8AE
:101B5600FED7430EAD6EACA2FED79EA8FED74F0EA3
:101B6600AD6EACA2FED79EA8FED7550EAD6EACA24A
:101B7600FED79EA8FED7520EAD6EACA2FED79EA88B
:101B8600FED7530EAD6EACA2FED7000E026E000E4F
:101B9600016E014A022AE80E015CFD0E0258D8B019
:101BA6009AD7F7D7000E096E000E906E1F0E916E33
:101BB600000E996E000E9A6E919A918C9198040E71
:101BC60013EC13F091880C0E13EC13F00CD0092AC9
:101BD6000C0E13EC13F0C80E096405D08B828F80AF
:101BE6008B94F29EFFD7C8EC12F00009D8B4EFD759
:101BF6000F0E056E210E066E270E72EC11F0000E0A
:101C0600056E220E066E000E72EC11F0000E056EC9
:101C1600240E066E000E72EC11F07B0E056E400E61
:101C2600066E000E72EC11F0000E056E410E066E89
:101C3600280E72EC11F0800E056E420E066E000E36
:101C460072EC11F0000E056E430E066E280E72EC55
:101C560011F0800E41EC13F09C0E41EC13F0A00E37
:101C660041EC13F0700E056E020E2BEC12F0120012
:101C7600146E14C007F0086A000E0A6E060E096E8E
:101C860015EC10F00F50280DF3CF10F0F4CF11F033
:101C960007501024126E08501120136E1350056E53
:101CA600240E066E125072EC11F018D0FD0E41ECA7
:101CB60013F01200FC0E41EC13F01200FB0E41EC87
:101CC60013F01200FA0E41EC13F01200F90E41EC7B
:101CD60013F01200F80E41EC13F0120014C001F0DC
:101CE600026A000E046E060E036E57EC10F00250E8
:101CF600000AD8A412000150000AD8B4D7D7010AA6
:101D0600D8B4D8D7030AD8B4D9D7010AD8B4DAD701
:101D1600070AD8B4DBD7010AD8A41200DBD7146EA1
:101D260014C007F0086A000E0A6E060E096E15EC5E
:101D360010F00F50280DF3CF10F0F4CF11F007502C
:101D46001024126E08501120136E1350056E240EC7
:101D5600066E125072EC11F018D0F50E41EC13F02D
:101D66001200F40E41EC13F01200F30E41EC13F0E6
:101D76001200F20E41EC13F01200F10E41EC13F0DA
:101D86001200F00E41EC13F0120014C001F0026ACA
:101D9600000E046E060E036E57EC10F00250000A99
:101DA600D8A412000150000AD8B4D7D7010AD8B473
:101DB600D8D7030AD8B4D9D7010AD8B4DAD7070ACC
:101DC600D8B4DBD7010AD8A41200DBD795828C964B
:101DD6008C94000E026E640E016E68EC13F08C8615
:101DE600000E056E030E026EE80E016E68EC13F02F
:101DF600052A83A002D0410E056E400E0564F2D777
:101E060083A033D0000E066E000E086E000E076E1D
:101E160083A203D008500109086E08500824086EF2
:101E2600000E026E640E016E68EC13F08C84010ED7
:101E3600026EF40E016E68EC13F08C94010E026EC5
:101E4600900E016E68EC13F0072A070E0764E0D7C0
:101E560006500324D96E000E0420DA6E08C0DFFF98
:101E6600062A83B0D1D706501200000E1200116E5A
:101E760011C007F0086A000E0A6E640E096E15ECB2
:101E860010F00750126E12509C0DF3501124136E71
:101E960013C007F0086A000E0A6E0A0E096E15ECEA
:101EA60010F00750136E12509C0DF3CF0FF0135025
:101EB600F60DF3500F241124106E1250100F146EED
:101EC60001D000F0C00E056E14502BEC12F0000984
:101ED600D8B4F7D71350100F146E01D000F0C00E0F
:101EE600056E14502BEC12F00009D8B4F7D7105039
:101EF600100F146E01D000F0C00E056E14502BECBE
:101F060012F00009D8A41200F6D701040210D8A4D2
:101F160008D0000E076E320E066E000E096E500EC9
:101F2600086E020E01180210D8A408D0000E076E23
:101F36000F0E066E000E096E190E086E81B41200A1
:101F460081A002D081B2120084A81200000181058E
:101F5600D8A416D084B00DD07351036E046A06500F
:101F6600035C0450800A056E0750800A0558D8A005
:101F7600732B84B212007351D8B412007307120087
:101F860084B0F7D77351036E046A0850035C04509B
:101F9600800A056E0950E9D71CD000F0C00E056E08
:101FA60008C0F6FF09C0F7FF000EF86E0F0EF764C3
:101FB60003D00800F55005D0F6CFE9FFF7CFEAFFCA
:101FC600EF50E00F2BEC12F00009D8B4E6D7084A20
:101FD600092A08C0F6FF09C0F7FF000EF86E0F0EBB
:101FE600F76403D00800F55005D0F6CFE9FFF7CF28
:101FF600EAFFEF500009D8B4120008C0F6FF09C086
:10200600F7FF000EF86E0F0EF76403D00800F550C8
:1020160005D0F6CFE9FFF7CFEAFFEF500009D8B4B5
:102026001200BCD7000E0C6E0AAE06D0096C0A1E52
:10203600D8B00A2A010E0C6E08AE06D0076C081E30
:10204600D8B0082A010E0C1A000E0E6E000E0D6E88
:1020560009500A10D8B41CD0010E0B6E04D0D890CB
:1020660009360A360B2A0AAEFAD7D8900D360E363E
:102076000950075C0A500858D8A005D00950075ED9
:102086000A50085A0D80D8900A3209320B2EEDD725
:102096000C50D8B404D00D6C0E1ED8B00E2A0DC04C
:1020A60007F00EC008F01200000E066E02AE06D053
:1020B600016C021ED8B0022A010E066E04AE04D0D0
:1020C600036C041ED8B0042A03500410D8B418D0E8
:1020D600010E056E04D0D89003360436052A04AEE8
:1020E600FAD70350015C04500258D8A004D003501C
:1020F600015E0450025AD89004320332052EF1D7FD
:102106000650D8B404D0016C021ED8B0022A01C011
:1021160001F002C002F01200000E096E000EF4EC8F
:1021260010F0950E086E100E096ECFEC0FF081B010
:1021360007D0EE0E086E100E096ECFEC0FF01200EF
:1021460081B207D0EB0E086E100E096ECFEC0FF0C1
:102156001200E80E086E100E096ECFEC0FF0040E9A
:10216600106E0C0E0F6E340EE82EFED70F2EFCD717
:10217600102EFAD773C001F0026AA0EC13F00150DA
:102186000001736F1200086E08380F0B096E090EF6
:10219600096403D00950170F02D00950100F096EB9
:1021A60001D000F0C00E056E09502BEC12F00009AC
:1021B600D8B4F7D708500F0B096E090E096403D07F
:1021C6000950170F02D00950100F096E01D000F008
:1021D600C00E056E09502BEC12F00009D8A41200AF
:1021E600F6D70C6E7B0E0E6E000E0D6E0F0E0C6487
:1021F60002D0000E0C6E270E096402D0000E096E86
:102206000C50280DF3CF0AF0F4CF0BF009500A2634
:10221600000E0B220D500A240D6E0E500B200E6E72
:1022260001D000F00E50056E240E066E0D5072ECB5
:1022360011F00009D8A41200F4D7000E066E000EA5
:10224600056E03500410D8B41CD0010E076E04D0DE
:10225600D89003360436072A04AEFAD7D890053646
:1022660006360350015C04500258D8A005D003502E
:10227600015E0450025A0580D89004320332072EBC
:10228600EDD705C001F006C002F01200000E026E86
:10229600020E1ED0996891809196919200F087CF98
:1022A60003F0918291860350030B036E030E03180D
:1022B600D8B40DD0022A0C0E13EC13F0F90E0264FA
:1022C60008D0F29E8B948B828F80000E01D0010E77
:1022D600046E020E0418D8B4DDD704501200076E3F
:1022E600000E086E49EC11F0E806D8A41ED00C0EBC
:1022F60013EC13F007504EEC13F049EC11F0E8061E
:10230600D8A413D00C0E13EC13F005504EEC13F0BA
:1023160049EC11F0E806D8A408D00C0E13EC13F023
:1023260006505BEC13F0010E086E08501200186E92
:1023360018C019F00BD015C00FF019503BEC0EF079
:1023460017C00FF019503BEC0EF0192A1950165C05
:10235600D8B0F1D715C01AF00BD01AC00FF018502C
:102366003BEC0EF01AC00FF016503BEC0EF01A2A9A
:102376001A50175CD8A01200F0D7186E1828196EDC
:102386000BD015C00FF0195092EC0EF017C00FF0DD
:10239600195092EC0EF0192A1650195CD8A0F1D7F4
:1023A60015281A6E0BD01AC00FF0185092EC0EF0CA
:1023B6001AC00FF0165092EC0EF01A2A17501A5C3B
:1023C600D8B01200F0D7750E036E000E046EE9EC5D
:1023D6000EF0096E0950D8B415D0040E0918D8A409
:1023E60004D009C07FF0020E07D0080E0918D8A441
:1023F60005D009C07FF0010E000108D0000E0001D3
:102406007F6FE1D7000E00017F6F000E826FDBD772
:102416000FC011F010C012F011C001F012C002F08E
:10242600000E046E640E036EDEEC12F001C007F0BF
:1024360002C008F0000E0A6E096815EC10F007C01D
:1024460013F008C014F013C00FF014C010F01200FF
:10245600066E000E076E49EC11F0E806D8A413D0FC
:102466000C0E13EC13F006504EEC13F049EC11F081
:10247600E806D8A408D00C0E13EC13F005505BEC5C
:1024860013F0010E076E07501200A00E0F01266F03
:10249600000E256F000E246F000E236F2581258305
:1024A60025852587248524878B848B828F80949429
:1024B600949298909896989895949596F19E538DA7
:1024C6001200026E000EC16E160EC06E02501F0B79
:1024D600026E0244E846FC0B026E02500109C26E0F
:1024E600C282C2B2FED7C3A003D0000E016E02D0D4
:1024F600C4CF01F001501200086E200E086002D011
:102506003F0E086E9F0E086402D03F0E086E0850FC
:10251600E00F086E01D000F0C00E056E08502BECDF
:1025260012F00009D8A41200F6D7000E056E240E8C
:10253600066E000E72EC11F0000E0A6E000E096EA9
:10254600C00E056E000E2BEC12F0094A0A2A800E08
:102556000A180910D8B41200F3D7800E056E240E9F
:10256600066E000E72EC11F0800E0A6E000E096EF9
:10257600C00E056E000E2BEC12F0094A0A2AF80E60
:102586000A180910D8B41200F3D799689180919669
:10259600919200F000F000F087CF01F091829186D1
:1025A6000150030B030AD8A402D0010E01D0000E7D
:1025B600016E0150120001500302F3CF05F0F4CF73
:1025C60006F001500402F350062602500302F350AF
:1025D600062605C001F006C002F0120006D0010E64
:1025E600406E0BD0010E3F6E08D0FF0EE350010A7D
:1025F600D8B4F5D7030AD8B4F5D7E5521200949C9F
:10260600948E080E656E040ED46EE10EAF6E040E47
:10261600AC6E800EAB6E240EAC6E900EAB6E1200DE
:10262600016E0BD000F000F000F000F000F000F0BA
:1026360000F000F000F000F001060150D8B41200DE
:10264600F1D70F6E000E106E10C009F00F50F4ECAB
:1026560010F0200E7FEC12F0102A270E1064F4D72B
:10266600120048EC12F0F6EC0AF0010EE66EF1EC00
:1026760012F0D58EF284F28E00F0FED7056E49EC8C
:1026860011F0E806D8A412000C0E13EC13F0055056
:102696005BEC13F01200016E01C090FF000E996E04
:1026A60091909196919400F000F091849186120099
:1026B600016E01C090FF000E996E918091969194E3
:1026C60000F000F091849186120006D000F000F030
:1026D60000F00106D8A0020601500210D8B412007C
:1026E600F5D706D000F000F000F00106D8A00206EB
:1026F60001500210D8B41200F5D7000E096E0E0E66
:10270600F4EC10F0330E086E100E096ECFEC0FF0DD
:102716001200000E096E0E0EF4EC10F0010E086E9B
:10272600100E096ECFEC0FF01200406A3F6A3E6A47
:102736003D6A3C6A000134EF13F001500210D8B430
:0A27460012000106D8A002061200DE
:020000040020DA
:08000000FFFFFFFFFFFFFFFF00
:020000040030CA
:0E00000015136100308081FFFFC0FFE0FF405C
:00000001FF
