:040000009EEF01F07E
:10000800E9CF16F0EACF17F0E1CF18F0E2CF19F0F8
:10001800D9CF1AF0DACF1BF0F3CF1CF0F4CF1DF0D4
:10002800F6CF1EF0F7CF1FF0F8CF20F0F5CF21F074
:100038001AEEACF0D8CF61F00001606FE0CF62F04B
:10004800EACF63F0E9CF64F0F2BAF2A443D16505D0
:10005800D8A404D01B0EFC6E000E656F6FC0EAFFBB
:10006800000EE96E60C0EEFF61C0EEFF62C0EEFFF9
:10007800FCCFEEFF63C0EEFF64C0EEFFE2CFEEFF01
:10008800E1CFEEFFDACFEEFFD9CFEEFFF4CFEEFFF0
:10009800F3CFEEFFF8CFEEFFF7CFEEFFF6CFEEFF90
:1000A800F5CFEEFFFBCFEEFFFACFEEFF000EE26ECC
:1000B800000EE16EE6CFEEFFE6CFEEFFE6CFEEFFF5
:1000C800E6CFEEFFE6CFEEFFE6CFEEFFE6CFEEFFA0
:1000D800E6CFEEFFE6CFEEFFE6CFEEFFE6CFEEFF90
:1000E800E6CFEEFFE6CFEEFFE6CFEEFFE6CFEEFF80
:1000F800E6CFEEFFE6CFEEFFE6CFEEFFE6CFEEFF70
:10010800E6CFEEFFE6CFEEFFE6CFEEFFE6CFEEFF5F
:10011800E6CFEEFFE6CFEEFFE6CFEEFFE6CFEEFF4F
:10012800E6CFEEFFE6CFEEFFE6CFEEFFE6CFEEFF3F
:10013800E6CFEEFFE6CFEEFFE6CFEEFFE6CFEEFF2F
:10014800E6CFEEFFE6CFEEFFE6CFEEFFE6CFEEFF1F
:10015800E6CFEEFFE6CFEEFFE6CFEEFFE6CFEEFF0F
:10016800E6CFEEFFE6CFEEFFE6CFEEFFE6CFEEFFFF
:10017800E6CFEEFF8A0ED76ECF0ED66EF294714B95
:10018800722B702B060E7019D8A402D0000E706F57
:10019800690E7025D96EDA6A000EDA22DF506F6FA9
:1001A800000EE26E000EE16E6FC0EAFF120EE96EFD
:1001B800EECFE6FFEECFE6FFEECFE6FFEECFE6FFAF
:1001C800EECFE6FFEECFE6FFEECFE6FFEECFE6FF9F
:1001D800EECFE6FFEECFE6FFEECFE6FFEECFE6FF8F
:1001E800EECFE6FFEECFE6FFEECFE6FFEECFE6FF7F
:1001F800EECFE6FFEECFE6FFEECFE6FFEECFE6FF6F
:10020800EECFE6FFEECFE6FFEECFE6FFEECFE6FF5E
:10021800EECFE6FFEECFE6FFEECFE6FFEECFE6FF4E
:10022800EECFE6FFEECFE6FFEECFE6FFEECFE6FF3E
:10023800EECFE6FFEECFE6FFEECFE6FFEECFE6FF2E
:10024800EECFE6FFEECFE6FFEECFE6FFEECFE6FF1E
:10025800EECFE6FFEECFE6FFEECFE6FFEECFE6FF0E
:10026800EECFE6FFEECFE6FFEECFE6FFEECFE6FFFE
:100278006FC0EAFF000EE96EEECF60F0EECF61F0DE
:10028800EECF62F0EECFFCFFEECF63F0EECF64F07E
:10029800EECFE2FFEECFE1FFEECFDAFFEECFD9FFF0
:1002A800EECFF4FFEECFF3FFEECFF8FFEECFF7FF80
:1002B800EECFF6FFEECFF5FFEECFFBFFEECFFAFF66
:1002C80064C0E9FF63C0EAFF62C0E0FF605161C03B
:1002D800D8FF100064C0E9FF63C0EAFF62C0E0FF16
:1002E8000001605161C0D8FF100066EC08F044ECD2
:1002F8000BF031EC0CF0A0EC0CF0BEEC0BF082EC47
:1003080010F021C0F5FF20C0F8FF1FC0F7FF1EC086
:10031800F6FF1DC0F4FF1CC0F3FF1BC0DAFF1AC0B4
:10032800D9FF19C0E2FF18C0E1FF17C0EAFF16C0E5
:0C033800E9FF110016EE42F03DEF11F05D
:1010000000415454454E54494F4E20766F7573201D
:101010006574657320706C65696E21212100204123
:101020005543554E20202020202020202020202005
:10103000202000524F5545534259474E4F4C45537F
:101040000054656D702E204875696C653A00582D06
:101050004A6F79737469636B3A00592D4A6F7973DB
:101060007469636B3A0054656D702E204561753A62
:101070000042617474657269653A005669746573FB
:1010800073653A004D61726368653A0042494720D2
:101090004D554D00434841524745520042616467F7
:1010A000653A0053696567653A00282821292900B7
:1010B00043686F633A00564944450020793D004E2D
:1010C0002000783D0041520041560000F29E07EC9E
:1010D0000DF03CEC10F054EC10F0A7EC10F0020E08
:1010E000E66E96EC10F0010E0001806F520EAD6EB0
:1010F000F28E8B948B928F90000E736F0F0E746F25
:10110000000E7F6F220E096E0D0E03EC0FF0520ED3
:1011100023EC10F0200E23EC10F0560E23EC10F010
:10112000200E23EC10F0420E23EC10F0220E096E7C
:101130000E0E03EC0FF0300E23EC10F0200E23EC1B
:1011400010F0300E23EC10F0200E23EC10F0300ED7
:1011500023EC10F0220E096E0F0E03EC0FF0310E8F
:1011600023EC10F0200E23EC10F0310E23EC10F0E5
:10117000200E23EC10F0310E23EC10F0000E0001D5
:10118000666F140E0F6EE60E106E3C0E116EB40EEE
:10119000A9EC0FF0140E0F6EAA0E106E3C0E116E1D
:1011A000780EA9EC0FF0020E086E000E096E15EC19
:1011B0000EF0000E0001816F000E096E000E03ECB0
:1011C0000FF0840E086E100E096E15EC0EF081B053
:1011D00007D0C80E086E100E096E15EC0EF00FD079
:1011E00081B207D0C50E086E100E096E15EC0EF018
:1011F00006D0BF0E086E100E096E15EC0EF0000E34
:10120000096E010E03EC0FF0A30E086E100E096EAE
:1012100015EC0EF081B404D0310E23EC10F003D0A5
:10122000300E23EC10F0000E096E020E03EC0FF0EE
:10123000660E086E100E096E15EC0EF0020E08EC2C
:1012400010F0D5EC0EF0000E096E030E03EC0FF05B
:10125000410E086E100E096E15EC0EF0030E08EC30
:1012600010F0D5EC0EF0000E096E040E03EC0FF03A
:10127000B00E086E100E096E15EC0EF081B604D09B
:10128000310E23EC10F003D0300E23EC10F0000EE2
:10129000096E050E03EC0FF07B0E086E100E096E42
:1012A00015EC0EF084B002D00001732B84B202D092
:1012B00000017307000173517351D5EC0EF0000E5D
:1012C000096E060E03EC0FF0710E086E100E096E1B
:1012D00015EC0EF084B402D00001742B84B602D059
:1012E0000001740700017451D5EC0EF0000E096E78
:1012F000070E03EC0FF084B807D0AA0E086E100E8C
:10130000096E15EC0EF006D02D0E086E100E096E4B
:1013100015EC0EF0000E096E080E03EC0FF09C0E9B
:10132000086E100E096E15EC0EF000017F51D8A466
:1013300007D01E0E086E100E096E15EC0EF012D0BE
:10134000000E156E0AD0750E1524D96EDA6A000EDD
:10135000DA22DF50D5EC0EF0152A00017F51155C22
:10136000D8A0F1D7000E096E090E03EC0FF04E0E57
:10137000086E100E096E15EC0EF00A0E08EC10F057
:10138000D5EC0EF0000E096E0A0E03EC0FF05A0EAB
:10139000086E100E096E15EC0EF00B0E08EC10F036
:1013A000D5EC0EF0000E096E0D0E03EC0FF08C0E56
:1013B000086E100E096E15EC0EF0160E096E050E75
:1013C00003EC0FF0B60E086E100E096E15EC0EF061
:1013D0001F0E096E050E03EC0FF0940E086E100E32
:1013E000096E15EC0EF000016605D8A420D0140E8D
:1013F000096E000E03EC0FF0C20E086E100E096E9F
:1014000015EC0EF000016751D5EC0EF0BB0E086E26
:10141000100E096E15EC0EF000016851D5EC0EF0BF
:1014200068C009F0000167516DEC0DF001D000F0CB
:1014300000018105D8B431EC11F000018151D8A42C
:10144000BBD60E0EC9EC10F025EC11F0030EB2D68F
:10145000010E0001656F010E696F020E6A6F030EC7
:101460006B6F040E6C6F050E6D6F060E6E6F050EC2
:10147000706F690E7025D96EDA6A000EDA22DF50BD
:101480006F6FFCCF22F0020EFC6ECC0E2F6E100E92
:10149000306E000E316E2FC034F030C035F0340E97
:1014A000326E000E336E32C0D9FF33C0DAFFDF5028
:1014B000FD6E324A332A32C0D9FF33C0DAFFDF5023
:1014C000FE6E324A332A32C0D9FF33C0DAFFDF5012
:1014D000FF6E070EFC6E880E2F6E160E306E000E1D
:1014E000316E2FC034F030C035F0340E326E000E45
:1014F000336E32C0D9FF33C0DAFFDF50FD6E324A9F
:10150000332A32C0D9FF33C0DAFFDF50FE6E324AD1
:10151000332A32C0D9FF33C0DAFFDF50FF6E0C0E22
:10152000FC6E620E2F6E180E306E000E316E2FC0E4
:1015300034F030C035F0340E326E000E336E32C0EF
:10154000D9FF33C0DAFFDF50FD6E324A332A32C092
:10155000D9FF33C0DAFFDF50FE6E324A332A32C081
:10156000D9FF33C0DAFFDF50FF6E110EFC6E400E64
:101570002F6E190E306E000E316E2FC034F030C059
:1015800035F0340E326E000E336E32C0D9FF33C0E8
:10159000DAFFDF50FD6E324A332A32C0D9FF33C042
:1015A000DAFFDF50FE6E324A332A32C0D9FF33C031
:1015B000DAFFDF50FF6E160EFC6E7C0E2F6E170EDC
:1015C000306E000E316E2FC034F030C035F0340E66
:1015D000326E000E336E32C0D9FF33C0DAFFDF50F7
:1015E000FD6E324A332A32C0D9FF33C0DAFFDF50F2
:1015F000FE6E324A332A32C0D9FF33C0DAFFDF50E1
:10160000FF6E1B0EFC6E040E2F6E210E306E000E50
:10161000316E2FC034F030C035F0340E326E000E13
:10162000336E32C0D9FF33C0DAFFDF50FD6E324A6D
:10163000332A32C0D9FF33C0DAFFDF50FE6E324AA0
:10164000332A32C0D9FF33C0DAFFDF50FF6E22C029
:10165000FCFF020E0101036F070E0201036F0C0E67
:101660000301036F110E0401036F160E0501036FD2
:101670001B0E0601036F000E0001726F000E716FEA
:10168000010ED56EF28A1200000E0001666F8F8681
:101690008F980B0E026EB80E016E19EC11F0160E3B
:1016A000C06E010EC26E030EC26EC2B2FED7C4CFB0
:1016B0000EF0C3CF0FF00FC008F00F0E0816D8B40D
:1016C00004D0000E0E6E000E0F6E090E0E64DCD7F5
:1016D0008F968F880B0E026EB80E016E19EC11F00A
:1016E000160EC06E050EC26E070EC26EC2B2FED7D7
:1016F000C4CF10F0C3CF11F011C008F00F0E0816C0
:10170000D8B404D0000E106E000E116E130E1064CB
:10171000BBD70E50086E0F500A6E08C00BF0105069
:10172000086E11500C6E08C00DF0B20E0A240A6E3D
:10173000F30E0B200B6E9C0E0C240C6EE60E0D208F
:101740000D6E0AC001F00BC002F0000E046EF60E22
:10175000036E2FEC0FF001500001676F0CC001F019
:101760000DC002F0010E046E990E036E2FEC0FF007
:1017700001507F080001686F010E88D79EA8FED730
:10178000740EAD6EACA2FED79EA8FED7610EAD6EF4
:10179000ACA2FED79EA8FED7630EAD6EACA2FED75C
:1017A0009EA8FED7680EAD6EACA2FED79EA8FED74F
:1017B000650EAD6EACA2FED79EA8FED7350EAD6EFF
:1017C000ACA2FED79EA8FED75F0EAD6EACA2FED730
:1017D0009EA8FED7650EAD6EACA2FED79EA8FED722
:1017E0006E0EAD6EACA2FED79EA8FED75F0EAD6E9C
:1017F000ACA2FED79EA8FED7630EAD6EACA2FED7FC
:101800009EA8FED76F0EAD6EACA2FED79EA8FED7E7
:10181000750EAD6EACA2FED79EA8FED7720EAD6E51
:10182000ACA2FED79EA8FED7730EAD6EACA2FED7BB
:10183000000E026E000E016E014A022AE80E015CE3
:10184000FD0E0258D8A0F8D7000E026E000E016EF1
:10185000014A022AE80E015CFD0E0258D8B08ED76C
:10186000F7D700016605D8A414D0CA0E676511D059
:10187000D10E67610ED0700E686504D0790E686174
:1018800001D08B84780E686504D07F0E686101D02A
:101890008B946605D8A414D0D60E676511D0DD0EE2
:1018A00067610ED0700E686504D0790E686101D052
:1018B0008B82780E686504D07F0E686101D08B92B0
:1018C0006605D8A414D0E20E676511D0E90E6761F1
:1018D0000ED0700E686504D0790E686101D08F80DB
:1018E000780E686504D07F0E686101D08F90660520
:1018F000D8A411D0B30E67650ED0E60E67610BD089
:10190000130E686508D03C0E686105D08B948B82FD
:101910008F80010E816F6605D8A4A3D7770E676507
:10192000A0D7AA0E67619DD7130E68659AD73C0EA3
:10193000686197D78B948B928F90000E816F91D7AF
:101940009EA8FED7540EAD6EACA2FED79EA8FED7C1
:10195000410EAD6EACA2FED79EA8FED7430EAD6E73
:10196000ACA2FED79EA8FED7480EAD6EACA2FED7A5
:101970009EA8FED7450EAD6EACA2FED79EA8FED7A0
:10198000340EAD6EACA2FED79EA8FED75F0EAD6E34
:10199000ACA2FED79EA8FED7450EAD6EACA2FED778
:1019A0009EA8FED74E0EAD6EACA2FED79EA8FED767
:1019B0005F0EAD6EACA2FED79EA8FED7430EAD6EF5
:1019C000ACA2FED79EA8FED74F0EAD6EACA2FED73E
:1019D0009EA8FED7550EAD6EACA2FED79EA8FED730
:1019E000520EAD6EACA2FED79EA8FED7530EAD6EC2
:1019F000ACA2FED7000E026E000E016E014A022A52
:101A0000E80E015CFD0E0258D8B09AD7F7D7000E49
:101A1000096E000E906E1F0E916E000E996E000EF4
:101A20009A6E919A918C9198040EB8EC10F091886E
:101A30000C0EB8EC10F00CD0092A0C0EB8EC10F01B
:101A4000C80E096405D08B828F808B94F29EFFD7DD
:101A50006CEC10F00009D8B4EFD70F0E056E210E14
:101A6000066E270E81EC0FF0000E056E220E066E3C
:101A7000000E81EC0FF0000E056E240E066E000EB7
:101A800081EC0FF07B0E056E400E066E000E81ECB1
:101A90000FF0000E056E410E066E280E81EC0FF061
:101AA000800E056E420E066E000E81EC0FF0000EE9
:101AB000056E430E066E280E81EC0FF0800EE6ECEC
:101AC00010F09C0EE6EC10F0A00EE6EC10F0700E9C
:101AD000056E020ECFEC0FF012000E6E0EC001F07C
:101AE000026A000E046E060E036E5BEC0EF00950E7
:101AF000280DF3CF0AF0F4CF0BF001500A240C6E3E
:101B000002500B200D6E0D50056E240E066E0C500B
:101B100081EC0FF018D0FD0EE6EC10F01200FC0E78
:101B2000E6EC10F01200FB0EE6EC10F01200FA0EDC
:101B3000E6EC10F01200F90EE6EC10F01200F80ED0
:101B4000E6EC10F012000EC001F0026A000E046E06
:101B5000060E036E9DEC0EF00250000AD8A412008F
:101B60000150000AD8B4D7D7010AD8B4D8D7030A8D
:101B7000D8B4D9D7010AD8B4DAD7070AD8B4DBD792
:101B8000010AD8A41200DBD795828C968C94000EA3
:101B9000026E640E016E0DEC11F08C86000E056E67
:101BA000030E026EE80E016E0DEC11F0052A83A003
:101BB00002D0410E056E400E0564F2D783A033D0EB
:101BC000000E066E000E086E000E076E83A203D094
:101BD00008500109086E08500824086E000E026EB5
:101BE000640E016E0DEC11F08C84010E026EF40E89
:101BF000016E0DEC11F08C94010E026E900E016ED0
:101C00000DEC11F0072A070E0764E0D706500324F5
:101C1000D96E000E0420DA6E08C0DFFF062A83B0FA
:101C2000D1D706501200000E12001CD000F0C00EDA
:101C3000056E08C0F6FF09C0F7FF000EF86E0F0E24
:101C4000F76403D00800F55005D0F6CFE9FFF7CFD1
:101C5000EAFFEF50E00FCFEC0FF00009D8B4E6D761
:101C6000084A092A08C0F6FF09C0F7FF000EF86EFF
:101C70000F0EF76403D00800F55005D0F6CFE9FF4A
:101C8000F7CFEAFFEF500009D8B4120008C0F6FF02
:101C900009C0F7FF000EF86E0F0EF76403D00800BE
:101CA000F55005D0F6CFE9FFF7CFEAFFEF50000976
:101CB000D8B41200BCD7000E066E04AE06D0036C7A
:101CC000041ED8B0042A010E066E02AE06D0016CC6
:101CD000021ED8B0022A010E061A000E086E000E6F
:101CE000076E03500410D8B41CD0010E056E04D04A
:101CF000D89003360436052A04AEFAD7D8900736B2
:101D000008360350015C04500258D8A005D0035097
:101D1000015E0450025A0780D89004320332052E27
:101D2000EDD70650D8B404D0076C081ED8B0082AE6
:101D300007C001F008C002F01200000E066E02AEED
:101D400006D0016C021ED8B0022A010E066E04AE47
:101D500004D0036C041ED8B0042A03500410D8B475
:101D600018D0010E056E04D0D89003360436052A2B
:101D700004AEFAD70350015C04500258D8A004D036
:101D80000350015E0450025AD89004320332052EEB
:101D9000F1D70650D8B404D0016C021ED8B0022A84
:101DA00001C001F002C002F01200086E08380F0BEB
:101DB000096E090E096403D00950170F02D00950AB
:101DC000100F096E01D000F0C00E056E0950CFEC67
:101DD0000FF00009D8B4F7D708500F0B096E090EA1
:101DE000096403D00950170F02D00950100F096E73
:101DF00001D000F0C00E056E0950CFEC0FF00009C5
:101E0000D8A41200F6D70C6E7B0E0E6E000E0D6E6F
:101E10000F0E0C6402D0000E0C6E270E096402D067
:101E2000000E096E0C50280DF3CF0AF0F4CF0BF022
:101E300009500A26000E0B220D500A240D6E0E507A
:101E40000B200E6E01D000F00E50056E240E066EB3
:101E50000D5081EC0FF00009D8A41200F4D7000E49
:101E6000066E000E056E03500410D8B41CD0010E8F
:101E7000076E04D0D89003360436072A04AEFAD78A
:101E8000D890053606360350015C04500258D8A09D
:101E900005D00350015E0450025A0580D8900432E8
:101EA0000332072EEDD705C001F006C002F0120084
:101EB000000E026E020E1ED099689180919691924A
:101EC00000F087CF03F0918291860350030B036EDD
:101ED000030E0318D8B40DD0022A0C0EB8EC10F083
:101EE000F90E026408D0F29E8B948B828F80000ED4
:101EF00001D0010E046E020E0418D8B4DDD70450D0
:101F00001200076E000E086E58EC0FF0E806D8A419
:101F10001ED00C0EB8EC10F00750F3EC10F058EC9B
:101F20000FF0E806D8A413D00C0EB8EC10F0055052
:101F3000F3EC10F058EC0FF0E806D8A408D00C0E23
:101F4000B8EC10F0065000EC11F0010E086E0850CD
:101F50001200126E12C013F00BD00FC009F0135014
:101F60006DEC0DF011C009F013506DEC0DF0132A5B
:101F70001350105CD8B0F1D70FC014F00BD014C0C0
:101F800009F012506DEC0DF014C009F010506DEC1A
:101F90000DF0142A1450115CD8A01200F0D7066E70
:101FA000000E076E58EC0FF0E806D8A413D00C0E04
:101FB000B8EC10F00650F3EC10F058EC0FF0E80617
:101FC000D8A408D00C0EB8EC10F0055000EC11F0BD
:101FD000010E076E07501200A00E0F01266F000EB3
:101FE000256F000E246F000E236F25812583258524
:101FF0002587248524878B848B828F809494949268
:1020000098909896989895949596F19E538D120075
:10201000026E000EC16E160EC06E02501F0B026ED5
:102020000244E846FC0B026E02500109C26EC282F5
:10203000C2B2FED7C3A003D0000E016E02D0C4CF3F
:1020400001F001501200086E200E086002D03F0E11
:10205000086E9F0E086402D03F0E086E0850E00F15
:10206000086E01D000F0C00E056E0850CFEC0FF0E6
:102070000009D8A41200F6D7000E056E240E066ED5
:10208000000E81EC0FF0000E0A6E000E096EC00EFD
:10209000056E000ECFEC0FF0094A0A2A800E0A18CE
:1020A0000910D8B41200F3D7800E056E240E066E08
:1020B000000E81EC0FF0800E0A6E000E096EC00E4D
:1020C000056E000ECFEC0FF0094A0A2AF80E0A1826
:1020D0000910D8B41200F3D7996891809196919223
:1020E00000F000F000F087CF01F09182918601505E
:1020F000030B030AD8A402D0010E01D0000E016E1A
:1021000001501200750E036E000E046EC4EC0DF04B
:10211000096E0950D8B406D00A0E096003D009C070
:102120007FF0F0D7000E00017F6FECD706D0010ED4
:102130003A6E0BD0010E396E08D0FF0EE350010A43
:10214000D8B4F5D7030AD8B4F5D7E5521200949C59
:10215000948E080E656E040ED46EE10EAF6E040E02
:10216000AC6E800EAB6E240EAC6E900EAB6E120099
:10217000016E0BD000F000F000F000F000F000F075
:1021800000F000F000F000F001060150D8B4120099
:10219000F1D70F6E000E106E10C009F00F5003EC57
:1021A0000FF0200E23EC10F0102A270E1064F4D745
:1021B0001200ECEC0FF028EC0AF0010EE66E96EC43
:1021C00010F0D58EF284F28E00F0FED7056E58EC3A
:1021D0000FF0E806D8A412000C0EB8EC10F0055071
:1021E00000EC11F01200016E01C090FF000E996E1C
:1021F00091909196919400F000F091849186120054
:10220000016E01C090FF000E996E9180919691949D
:1022100000F000F091849186120006D000F000F0EA
:1022200000F00106D8A0020601500210D8B4120036
:10223000F5D706D000F000F000F00106D8A00206A5
:1022400001500210D8B41200F5D7000E096E0E0E20
:1022500003EC0FF0330E086E100E096E15EC0EF045
:102260001200000E096E0E0E03EC0FF0010E086E48
:10227000100E096E15EC0EF012003A6A396A386ACF
:0A228000376A366A0001D9EF10F04A
:020000040020DA
:08000000FFFFFFFFFFFFFFFF00
:020000040030CA
:0E00000015136100308081FFFFC0FFE0FF405C
:00000001FF
