:040000009EEF01F07E
:10000800E9CF1DF0EACF1EF0E1CF1FF0E2CF20F0DC
:10001800D9CF21F0DACF22F0F3CF23F0F4CF24F0B8
:10002800F6CF25F0F7CF26F0F8CF27F0F5CF28F058
:100038001AEEACF0D8CF61F00001606FE0CF62F04B
:10004800EACF63F0E9CF64F0F2BAF2A443D16505D0
:10005800D8A404D01B0EFC6E000E656F6FC0EAFFBB
:10006800000EE96E60C0EEFF61C0EEFF62C0EEFFF9
:10007800FCCFEEFF63C0EEFF64C0EEFFE2CFEEFF01
:10008800E1CFEEFFDACFEEFFD9CFEEFFF4CFEEFFF0
:10009800F3CFEEFFF8CFEEFFF7CFEEFFF6CFEEFF90
:1000A800F5CFEEFFFBCFEEFFFACFEEFF000EE26ECC
:1000B800000EE16EE6CFEEFFE6CFEEFFE6CFEEFFF5
:1000C800E6CFEEFFE6CFEEFFE6CFEEFFE6CFEEFFA0
:1000D800E6CFEEFFE6CFEEFFE6CFEEFFE6CFEEFF90
:1000E800E6CFEEFFE6CFEEFFE6CFEEFFE6CFEEFF80
:1000F800E6CFEEFFE6CFEEFFE6CFEEFFE6CFEEFF70
:10010800E6CFEEFFE6CFEEFFE6CFEEFFE6CFEEFF5F
:10011800E6CFEEFFE6CFEEFFE6CFEEFFE6CFEEFF4F
:10012800E6CFEEFFE6CFEEFFE6CFEEFFE6CFEEFF3F
:10013800E6CFEEFFE6CFEEFFE6CFEEFFE6CFEEFF2F
:10014800E6CFEEFFE6CFEEFFE6CFEEFFE6CFEEFF1F
:10015800E6CFEEFFE6CFEEFFE6CFEEFFE6CFEEFF0F
:10016800E6CFEEFFE6CFEEFFE6CFEEFFE6CFEEFFFF
:10017800E6CFEEFF8A0ED76ECF0ED66EF294714B95
:10018800722B702B060E7019D8A402D0000E706F57
:10019800690E7025D96EDA6A000EDA22DF506F6FA9
:1001A800000EE26E000EE16E6FC0EAFF120EE96EFD
:1001B800EECFE6FFEECFE6FFEECFE6FFEECFE6FFAF
:1001C800EECFE6FFEECFE6FFEECFE6FFEECFE6FF9F
:1001D800EECFE6FFEECFE6FFEECFE6FFEECFE6FF8F
:1001E800EECFE6FFEECFE6FFEECFE6FFEECFE6FF7F
:1001F800EECFE6FFEECFE6FFEECFE6FFEECFE6FF6F
:10020800EECFE6FFEECFE6FFEECFE6FFEECFE6FF5E
:10021800EECFE6FFEECFE6FFEECFE6FFEECFE6FF4E
:10022800EECFE6FFEECFE6FFEECFE6FFEECFE6FF3E
:10023800EECFE6FFEECFE6FFEECFE6FFEECFE6FF2E
:10024800EECFE6FFEECFE6FFEECFE6FFEECFE6FF1E
:10025800EECFE6FFEECFE6FFEECFE6FFEECFE6FF0E
:10026800EECFE6FFEECFE6FFEECFE6FFEECFE6FFFE
:100278006FC0EAFF000EE96EEECF60F0EECF61F0DE
:10028800EECF62F0EECFFCFFEECF63F0EECF64F07E
:10029800EECFE2FFEECFE1FFEECFDAFFEECFD9FFF0
:1002A800EECFF4FFEECFF3FFEECFF8FFEECFF7FF80
:1002B800EECFF6FFEECFF5FFEECFFBFFEECFFAFF66
:1002C80064C0E9FF63C0EAFF62C0E0FF605161C03B
:1002D800D8FF100064C0E9FF63C0EAFF62C0E0FF16
:1002E8000001605161C0D8FF10006FEC08F079EC94
:1002F8000BF0F3EC0BF001EC11F072EC11F0F6ECF2
:100308000FF028C0F5FF27C0F8FF26C0F7FF25C06B
:10031800F6FF24C0F4FF23C0F3FF22C0DAFF21C098
:10032800D9FF20C0E2FF1FC0E1FF1EC0EAFF1DC0C9
:0C033800E9FF110016EE42F0D6EF11F0C4
:1010000000415454454E54494F4E20766F7573201D
:101010006574657320706C65696E21212100204123
:101020005543554E20202020202020202020202005
:10103000202000524F5545534259474E4F4C45537F
:101040000054656D702E204875696C653A00582D06
:101050004A6F79737469636B3A00592D4A6F7973DB
:101060007469636B3A0054656D702E204561753A62
:101070000042617474657269653A005669746573FB
:1010800073653A004F70657261746F72004D6172E2
:101090006368653A0042616467653A005369656751
:1010A000653A00434841524745002041444D494E6E
:1010B0000028282129290043686F633A00415543DD
:1010C000554E005465737400564944450020793DDF
:1010D000004E2000415200415600783D0000F29E33
:1010E00062EC0CF0A8EC10F0C0EC10F024EC11F065
:1010F000020EE66E13EC11F0010E0001806F520E2D
:10110000AD6EF28E8B948B928F90000E736F000EEB
:101110007F6F000E816F000E826F220E096E0D0E22
:101120002AEC0FF0520E8FEC10F0200E8FEC10F026
:10113000560E8FEC10F0200E8FEC10F0420E8FEC5C
:1011400010F0220E096E0E0E2AEC0FF0300E8FEC0E
:1011500010F0200E8FEC10F0300E8FEC10F0200EFF
:101160008FEC10F0300E8FEC10F0220E096E0F0E87
:101170002AEC0FF0310E8FEC10F0200E8FEC10F0F7
:10118000310E8FEC10F0200E8FEC10F0310E8FEC42
:1011900010F0000E0001666F140E156EE60E166E4E
:1011A0003C0E176EB40ED0EC0FF0140E156EAA0E96
:1011B000166E3C0E176E780ED0EC0FF0020E086E15
:1011C000000E096E05EC0EF0000E096E000E2AEC02
:1011D0000FF08D0E086E100E096E05EC0EF0000E6D
:1011E000096E070E2AEC0FF084B817D0B10E086E06
:1011F000100E096E05EC0EF04E0E1B6EEB0EE82E77
:10120000FED71B2EFCD700F073C001F0026ADEECA3
:1012100011F001500001736F06D02D0E086E100EF4
:10122000096E05EC0EF0000E096E010E2AEC0FF0AF
:101230009C0E086E100E096E05EC0EF081B406D0FF
:10124000310E8FEC10F0C5EC0EF016D0300E8FEC96
:1012500010F0040E1C6E0C0E1B6E340EE82EFED722
:101260001B2EFCD71C2EFAD773C001F0026ADEECED
:1012700011F001500001736F000E096E020E2AEC8E
:101280000FF0660E086E100E096E05EC0EF0020EE1
:1012900074EC10F01B6E1B500F6E106A1BEC10F0FC
:1012A0000F5070EC0DF0000E096E030E2AEC0FF0DB
:1012B000410E086E100E096E05EC0EF0030E74EC74
:1012C00010F01B6E1B500F6E106A1BEC10F00F50CD
:1012D00070EC0DF0000E096E040E2AEC0FF0B70E44
:1012E000086E100E096E05EC0EF081B604D0310EBA
:1012F0008FEC10F003D0300E8FEC10F0020E0001D6
:101300008219D8A406D082C001F0026ABEEC0DF0AA
:1013100003D08205D8B4F7D7000E096E050E2AEC6B
:101320000FF07B0E086E100E096E05EC0EF000013A
:10133000735170EC0DF0000E096E060E2AEC0FF0E2
:10134000710E086E100E096E05EC0EF084B405D017
:10135000640E0001746101D0742B84B604D00001C6
:101360007451D8A474070001745170EC0DF0000E94
:10137000096E080E2AEC0FF0950E086E100E096E1D
:1013800005EC0EF000017F51D8A407D01E0E086EA8
:10139000100E096E05EC0EF01ED0020E8219D8A4B4
:1013A00007D0840E086E100E096E05EC0EF013D0F7
:1013B0008205D8A407D0AA0E086E100E096E05EC9F
:1013C0000EF009D08251D8A406D0BD0E086E100EC2
:1013D000096E05EC0EF0000E096E090E2AEC0FF0F6
:1013E0004E0E086E100E096E05EC0EF00A0E74EC2F
:1013F00010F0FCEC0EF0000E096E0A0E2AEC0FF055
:101400005A0E086E100E096E05EC0EF00B0E74EC01
:1014100010F0FCEC0EF0160E096E050E2AEC0FF023
:10142000C80E086E100E096E05EC0EF01F0E096E48
:10143000050E2AEC0FF0A30E086E100E096E05ECD7
:101440000EF000016605D8A420D0140E096E000E1F
:101450002AEC0FF0DA0E086E100E096E05EC0EF095
:1014600000016751FCEC0EF0CD0E086E100E096EF7
:1014700005EC0EF000016851FCEC0EF068C00FF0B6
:1014800000016751C8EC0CF001D000F000018105AB
:10149000D8B4CAEC11F000018151D8A495D60E0E33
:1014A00046EC11F0BEEC11F0030E0001816F8CD6FA
:1014B000010E0001656F010E696F020E6A6F030E67
:1014C0006B6F040E6C6F050E6D6F060E6E6F050E62
:1014D000706F690E7025D96EDA6A000EDA22DF505D
:1014E0006F6FFCCF85F0020EFC6EDE0E356E100EB7
:1014F000366E000E376E35C03AF036C03BF03A0E0D
:10150000386E000E396E38C0D9FF39C0DAFFDF50AF
:10151000FD6E384A392A38C0D9FF39C0DAFFDF50AA
:10152000FE6E384A392A38C0D9FF39C0DAFFDF5099
:10153000FF6E070EFC6EF20E356E160E366E000E46
:10154000376E35C03AF036C03BF03A0E386E000EBA
:10155000396E38C0D9FF39C0DAFFDF50FD6E384A26
:10156000392A38C0D9FF39C0DAFFDF50FE6E384A59
:10157000392A38C0D9FF39C0DAFFDF50FF6E0C0EB0
:10158000FC6EE60E356E170E366E000E376E35C0E9
:101590003AF036C03BF03A0E386E000E396E38C065
:1015A000D9FF39C0DAFFDF50FD6E384A392A38C01A
:1015B000D9FF39C0DAFFDF50FE6E384A392A38C009
:1015C000D9FF39C0DAFFDF50FF6E110EFC6E020E3C
:1015D000356E220E366E000E376E35C03AF036C0CC
:1015E0003BF03A0E386E000E396E38C0D9FF39C064
:1015F000DAFFDF50FD6E384A392A38C0D9FF39C0CA
:10160000DAFFDF50FE6E384A392A38C0D9FF39C0B8
:10161000DAFFDF50FF6E160EFC6EE40E356E220E02
:10162000366E000E376E35C03AF036C03BF03A0EDB
:10163000386E000E396E38C0D9FF39C0DAFFDF507E
:10164000FD6E384A392A38C0D9FF39C0DAFFDF5079
:10165000FE6E384A392A38C0D9FF39C0DAFFDF5068
:10166000FF6E1B0EFC6EEC0E356E1F0E366E000EFE
:10167000376E35C03AF036C03BF03A0E386E000E89
:10168000396E38C0D9FF39C0DAFFDF50FD6E384AF5
:10169000392A38C0D9FF39C0DAFFDF50FE6E384A28
:1016A000392A38C0D9FF39C0DAFFDF50FF6E85C054
:1016B000FCFF020E0101036F070E0201036F0C0E07
:1016C0000301036F110E0401036F160E0501036F72
:1016D0001B0E0601036F000E0001726F000E716F8A
:1016E000010ED56EF28AF0B412008B948B828F803B
:1016F0001200000E0001666F8F868F980B0E026E2F
:10170000B80E016EB2EC11F0160EC06E010EC26E74
:10171000030EC26EC2B2FED7C4CF0EF0C3CF0FF01D
:101720000FC008F00F0E0816D8B404D0000E0E6ECD
:10173000000E0F6E090E0E64DCD78F968F880B0E8D
:10174000026EB80E016EB2EC11F0160EC06E050EF0
:10175000C26E070EC26EC2B2FED7C4CF10F0C3CFA6
:1017600011F011C008F00F0E0816D8B404D0000E06
:10177000106E000E116E130E1064BBD70E50086E63
:101780000F500A6E08C00BF01050086E11500C6E0E
:1017900008C00DF0B20E0A240A6EF30E0B200B6E79
:1017A0009C0E0C240C6EE60E0D200D6E0AC001F08E
:1017B0000BC002F0000E046EF60E036E56EC0FF036
:1017C00001500001676F0CC001F00DC002F0010E66
:1017D000046E990E036E56EC0FF001507F08000165
:1017E000686F010E88D700016605D8A414D0CA0E10
:1017F000676511D0D10E67610ED0700E686504D098
:10180000790E686101D08B84780E686504D07F0EF4
:10181000686101D08B946605D8A414D0D60E676594
:1018200011D0DD0E67610ED0700E686504D0790EA0
:10183000686101D08B82780E686504D07F0E686184
:1018400001D08B926605D8A414D0E20E676511D042
:10185000E90E67610ED0700E686504D0790E68617C
:1018600001D08F80780E686504D07F0E686101D04A
:101870008F906605D8A411D0B30E67650ED0E60E22
:1018800067610BD0130E686508D03C0E686105D007
:101890008B948B828F80010E816F6605D8A4A3D7AD
:1018A000770E6765A0D7AA0E67619DD7130E68658E
:1018B0009AD73C0E686197D78B948B928F90000ECD
:1018C000816F91D7000E096E000E906E1F0E916E03
:1018D000000E996E000E9A6E919A918C9198040E5A
:1018E00035EC11F091880C0E35EC11F00CD0092A72
:1018F0000C0E35EC11F0C80E096405D08B828F8078
:101900008B94F29EFFD7D8EC10F00009D8B4EFD733
:101910000F0E056E210E066E270EA8EC0FF0000EBE
:10192000056E220E066E000EA8EC0FF0000E056E7E
:10193000240E066E000EA8EC0FF07B0E056E400E16
:10194000066E000EA8EC0FF0000E056E410E066E3E
:10195000280EA8EC0FF0800E056E420E066E000EEB
:10196000A8EC0FF0000E056E430E066E280EA8ECD4
:101970000FF0800E7FEC11F09C0E7FEC11F0A00EAA
:101980007FEC11F0700E056E020E3BEC10F01200B1
:10199000146E14C007F0086A000E0A6E060E096E77
:1019A0004BEC0EF00F50280DF3CF10F0F4CF11F0E8
:1019B00007501024126E08501120136E1350056E3C
:1019C000240E066E1250A8EC0FF018D0FD0E7FEC1E
:1019D00011F01200FC0E7FEC11F01200FB0E7FECF8
:1019E00011F01200FA0E7FEC11F01200F90E7FECEC
:1019F00011F01200F80E7FEC11F0120014C001F08B
:101A0000026A000E046E060E036E8DEC0EF002509C
:101A1000000AD8A412000150000AD8B4D7D7010A8E
:101A2000D8B4D8D7030AD8B4D9D7010AD8B4DAD7EA
:101A3000070AD8B4DBD7010AD8A41200DBD79582F5
:101A40008C968C94000E026E640E016EA6EC11F062
:101A50008C86000E056E030E026EE80E016EA6EC7B
:101A600011F0052A83A002D0410E056E400E0564D8
:101A7000F2D783A033D0000E066E000E086E000E63
:101A8000076E83A203D008500109086E085008248D
:101A9000086E000E026E640E016EA6EC11F08C84CE
:101AA000010E026EF40E016EA6EC11F08C94010E84
:101AB000026E900E016EA6EC11F0072A070E076465
:101AC000E0D706500324D96E000E0420DA6E08C059
:101AD000DFFF062A83B0D1D706501200000E120095
:101AE000116E11C007F0086A000E0A6E640E096ECE
:101AF0004BEC0EF00750126E12509C0DF350112457
:101B0000136E13C007F0086A000E0A6E0A0E096E03
:101B10004BEC0EF00750136E12509C0DF3CF0FF0EC
:101B20001350F60DF3500F241124106E1250100FA5
:101B3000146E01D000F0C00E056E14503BEC10F096
:101B40000009D8B4F7D71350100F146E01D000F06D
:101B5000C00E056E14503BEC10F00009D8B4F7D756
:101B60001050100F146E01D000F0C00E056E14500E
:101B70003BEC10F00009D8A41200F6D701040210C3
:101B8000D8A408D0000E076E320E066E000E096E45
:101B9000500E086E020E01180210D8A408D0000ED4
:101BA000076E0F0E066E000E096E190E086E81B4D8
:101BB000120081A002D081B2120084A8120000019C
:101BC0008105D8A416D084B00DD07351036E046A79
:101BD0000650035C0450800A056E0750800A0558C1
:101BE000D8A0732B84B212007351D8B412007307BB
:101BF000120084B0F7D77351036E046A0850035C77
:101C00000450800A056E0950E9D71CD000F0C00EC0
:101C1000056E08C0F6FF09C0F7FF000EF86E0F0E44
:101C2000F76403D00800F55005D0F6CFE9FFF7CFF1
:101C3000EAFFEF50E00F3BEC10F00009D8B4E6D714
:101C4000084A092A08C0F6FF09C0F7FF000EF86E1F
:101C50000F0EF76403D00800F55005D0F6CFE9FF6A
:101C6000F7CFEAFFEF500009D8B4120008C0F6FF22
:101C700009C0F7FF000EF86E0F0EF76403D00800DE
:101C8000F55005D0F6CFE9FFF7CFEAFFEF50000996
:101C9000D8B41200BCD7000E0C6E0AAE06D0096C88
:101CA0000A1ED8B00A2A010E0C6E08AE06D0076CC8
:101CB000081ED8B0082A010E0C1A000E0E6E000E77
:101CC0000D6E09500A10D8B41CD0010E0B6E04D052
:101CD000D89009360A360B2A0AAEFAD7D8900D36B4
:101CE0000E360950075C0A500858D8A005D0095094
:101CF000075E0A50085A0D80D8900A3209320B2E1E
:101D0000EDD70C50D8B404D00D6C0E1ED8B00E2AEE
:101D10000DC007F00EC008F01200000E066E02AEF5
:101D200006D0016C021ED8B0022A010E066E04AE67
:101D300004D0036C041ED8B0042A03500410D8B495
:101D400018D0010E056E04D0D89003360436052A4B
:101D500004AEFAD70350015C04500258D8A004D056
:101D60000350015E0450025AD89004320332052E0B
:101D7000F1D70650D8B404D0016C021ED8B0022AA4
:101D800001C001F002C002F01200000E096E000E48
:101D90002AEC0FF08D0E086E100E096E05EC0EF099
:101DA00081B007D0D70E086E100E096E05EC0EF04C
:101DB000120081B207D0D40E086E100E096E05EC29
:101DC0000EF01200D10E086E100E096E05EC0EF02A
:101DD000040E106E0C0E0F6E340EE82EFED70F2E72
:101DE000FCD7102EFAD773C001F0026ADEEC11F0B6
:101DF00001500001736F1200086E08380F0B096E56
:101E0000090E096403D00950170F02D00950100FB2
:101E1000096E01D000F0C00E056E09503BEC10F0C9
:101E20000009D8B4F7D708500F0B096E090E0964E2
:101E300003D00950170F02D00950100F096E01D0BE
:101E400000F0C00E056E09503BEC10F00009D8A45C
:101E50001200F6D70C6E7B0E0E6E000E0D6E0F0E7E
:101E60000C6402D0000E0C6E270E096402D0000E26
:101E7000096E0C50280DF3CF0AF0F4CF0BF0095087
:101E80000A26000E0B220D500A240D6E0E500B2058
:101E90000E6E01D000F00E50056E240E066E0D5031
:101EA000A8EC0FF00009D8A41200F4D7000E066EBB
:101EB000000E056E03500410D8B41CD0010E076E3E
:101EC00004D0D89003360436072A04AEFAD7D89047
:101ED000053606360350015C04500258D8A005D0E0
:101EE0000350015E0450025A0580D8900432033238
:101EF000072EEDD705C001F006C002F01200000E5B
:101F0000026E020E1ED0996891809196919200F017
:101F100087CF03F0918291860350030B036E030E6B
:101F20000318D8B40DD0022A0C0E35EC11F0F90EBE
:101F3000026408D0F29E8B948B828F80000E01D0B9
:101F4000010E046E020E0418D8B4DDD7045012003E
:101F5000076E000E086E7FEC0FF0E806D8A41ED0C6
:101F60000C0E35EC11F007508CEC11F07FEC0FF0FB
:101F7000E806D8A413D00C0E35EC11F005508CEC0B
:101F800011F07FEC0FF0E806D8A408D00C0E35EC69
:101F900011F0065099EC11F0010E086E0850120075
:101FA000186E18C019F00BD015C00FF01950C8ECFE
:101FB0000CF017C00FF01950C8EC0CF0192A19508A
:101FC000165CD8B0F1D715C01AF00BD01AC00FF0BC
:101FD0001850C8EC0CF01AC00FF01650C8EC0CF0FA
:101FE0001A2A1A50175CD8A01200F0D7750E036E8B
:101FF000000E046E1FEC0DF0096E0950D8B415D018
:10200000040E0918D8A404D009C07FF0020E07D02E
:10201000080E0918D8A405D009C07FF0010E0001F0
:1020200008D0000E00017F6FE1D7000E00017F6F26
:10203000000E826FDBD70FC011F010C012F011C07C
:1020400001F012C002F0000E046E640E036EEEEC9E
:1020500010F001C007F002C008F0000E0A6E096817
:102060004BEC0EF007C013F008C014F013C00FF0D3
:1020700014C010F01200066E000E076E7FEC0FF019
:10208000E806D8A413D00C0E35EC11F006508CECF9
:1020900011F07FEC0FF0E806D8A408D00C0E35EC58
:1020A00011F0055099EC11F0010E076E0750120067
:1020B000A00E0F01266F000E256F000E246F000E7C
:1020C000236F2581258325852587248524878B8477
:1020D0008B828F80949494929890989698989594E7
:1020E0009596F19E538D1200026E000EC16E160E73
:1020F000C06E02501F0B026E0244E846FC0B026EDB
:1021000002500109C26EC282C2B2FED7C3A003D080
:10211000000E016E02D0C4CF01F001501200086E13
:10212000200E086002D03F0E086E9F0E086402D099
:102130003F0E086E0850E00F086E01D000F0C00E90
:10214000056E08503BEC10F00009D8A41200F6D739
:10215000000E056E240E066E000EA8EC0FF0000EA9
:102160000A6E000E096EC00E056E000E3BEC10F0FC
:10217000094A0A2A800E0A180910D8B41200F3D7A7
:10218000800E056E240E066E000EA8EC0FF0800E79
:102190000A6E000E096EC00E056E000E3BEC10F0CC
:1021A000094A0A2AF80E0A180910D8B41200F3D7FF
:1021B000996891809196919200F000F000F087CF9D
:1021C00001F0918291860150030B030AD8A402D03A
:1021D000010E01D0000E016E0150120001500302E9
:1021E000F3CF05F0F4CF06F001500402F3500626B9
:1021F00002500302F350062605C001F006C002F0AB
:102200001200C30E026E0250E6EC11F0000E046ED6
:10221000000E036E034A042AE80E035CFD0E045808
:10222000D8B0F1D7F7D706D0010E406E0BD0010E13
:102230003F6E08D0FF0EE350010AD8B4F5D7030A69
:10224000D8B4F5D7E5521200949C948E080E656EB2
:10225000040ED46EE10EAF6E040EAC6E800EAB6E4B
:10226000240EAC6E900EAB6E1200016E0BD000F01F
:1022700000F000F000F000F000F000F000F000F0DE
:1022800000F001060150D8B41200F1D70F6E000E15
:10229000106E10C009F00F502AEC0FF0200E8FECDA
:1022A00010F0102A270E1064F4D7120058EC10F02A
:1022B00058EC0AF065EC11F0010EE66E13EC11F02B
:1022C000D58EF284F28E00F0FED7D08EF182F08EA1
:1022D000F08CF196F198F19AF094F092F090F292DD
:1022E000F2901200000E026E000E016E014A022AE8
:1022F000E80E015CFD0E0258D8B0F4D7F7D7056E92
:102300007FEC0FF0E806D8A412000C0E35EC11F0AB
:10231000055099EC11F01200016E01C090FF000E03
:10232000996E91909196919400F000F0918491862D
:102330001200016E01C090FF000E996E918091967F
:10234000919400F000F091849186120006D000F084
:1023500000F000F00106D8A0020601500210D8B427
:102360001200F5D706D000F000F000F00106D8A06A
:10237000020601500210D8B41200F5D7000E096E03
:102380000E0E2AEC0FF0330E086E100E096E05ECDF
:102390000EF01200000E096E0E0E2AEC0FF0010E68
:1023A000086E100E096E05EC0EF01200406A3F6ACE
:1023B0003E6A3D6A3C6A000156EF11F0015002107E
:0E23C000D8B412000106D8A0020612001200C6
:020000040020DA
:08000000FFFFFFFFFFFFFFFF00
:020000040030CA
:0E00000015136100308081FFFFC0FFE0FF405C
:00000001FF
