:040000009EEF01F07E
:10000800E9CF1DF0EACF1EF0E1CF1FF0E2CF20F0DC
:10001800D9CF21F0DACF22F0F3CF23F0F4CF24F0B8
:10002800F6CF25F0F7CF26F0F8CF27F0F5CF28F058
:100038001AEEACF0D8CF61F00001606FE0CF62F04B
:10004800EACF63F0E9CF64F0F2BAF2A443D16505D0
:10005800D8A404D01B0EFC6E000E656F6FC0EAFFBB
:10006800000EE96E60C0EEFF61C0EEFF62C0EEFFF9
:10007800FCCFEEFF63C0EEFF64C0EEFFE2CFEEFF01
:10008800E1CFEEFFDACFEEFFD9CFEEFFF4CFEEFFF0
:10009800F3CFEEFFF8CFEEFFF7CFEEFFF6CFEEFF90
:1000A800F5CFEEFFFBCFEEFFFACFEEFF000EE26ECC
:1000B800000EE16EE6CFEEFFE6CFEEFFE6CFEEFFF5
:1000C800E6CFEEFFE6CFEEFFE6CFEEFFE6CFEEFFA0
:1000D800E6CFEEFFE6CFEEFFE6CFEEFFE6CFEEFF90
:1000E800E6CFEEFFE6CFEEFFE6CFEEFFE6CFEEFF80
:1000F800E6CFEEFFE6CFEEFFE6CFEEFFE6CFEEFF70
:10010800E6CFEEFFE6CFEEFFE6CFEEFFE6CFEEFF5F
:10011800E6CFEEFFE6CFEEFFE6CFEEFFE6CFEEFF4F
:10012800E6CFEEFFE6CFEEFFE6CFEEFFE6CFEEFF3F
:10013800E6CFEEFFE6CFEEFFE6CFEEFFE6CFEEFF2F
:10014800E6CFEEFFE6CFEEFFE6CFEEFFE6CFEEFF1F
:10015800E6CFEEFFE6CFEEFFE6CFEEFFE6CFEEFF0F
:10016800E6CFEEFFE6CFEEFFE6CFEEFFE6CFEEFFFF
:10017800E6CFEEFF8A0ED76ECF0ED66EF294714B95
:10018800722B702B060E7019D8A402D0000E706F57
:10019800690E7025D96EDA6A000EDA22DF506F6FA9
:1001A800000EE26E000EE16E6FC0EAFF120EE96EFD
:1001B800EECFE6FFEECFE6FFEECFE6FFEECFE6FFAF
:1001C800EECFE6FFEECFE6FFEECFE6FFEECFE6FF9F
:1001D800EECFE6FFEECFE6FFEECFE6FFEECFE6FF8F
:1001E800EECFE6FFEECFE6FFEECFE6FFEECFE6FF7F
:1001F800EECFE6FFEECFE6FFEECFE6FFEECFE6FF6F
:10020800EECFE6FFEECFE6FFEECFE6FFEECFE6FF5E
:10021800EECFE6FFEECFE6FFEECFE6FFEECFE6FF4E
:10022800EECFE6FFEECFE6FFEECFE6FFEECFE6FF3E
:10023800EECFE6FFEECFE6FFEECFE6FFEECFE6FF2E
:10024800EECFE6FFEECFE6FFEECFE6FFEECFE6FF1E
:10025800EECFE6FFEECFE6FFEECFE6FFEECFE6FF0E
:10026800EECFE6FFEECFE6FFEECFE6FFEECFE6FFFE
:100278006FC0EAFF000EE96EEECF60F0EECF61F0DE
:10028800EECF62F0EECFFCFFEECF63F0EECF64F07E
:10029800EECFE2FFEECFE1FFEECFDAFFEECFD9FFF0
:1002A800EECFF4FFEECFF3FFEECFF8FFEECFF7FF80
:1002B800EECFF6FFEECFF5FFEECFFBFFEECFFAFF66
:1002C80064C0E9FF63C0EAFF62C0E0FF605161C03B
:1002D800D8FF100064C0E9FF63C0EAFF62C0E0FF16
:1002E8000001605161C0D8FF10006DEC08F08AEC85
:1002F8000BF077EC0CF0E6EC0CF004EC0CF0A8EC4E
:1003080010F028C0F5FF27C0F8FF26C0F7FF25C06A
:10031800F6FF24C0F4FF23C0F3FF22C0DAFF21C098
:10032800D9FF20C0E2FF1FC0E1FF1EC0EAFF1DC0C9
:0C033800E9FF110016EE42F05AEF12F03F
:1010000000415454454E54494F4E20766F7573201D
:101010006574657320706C65696E21212100204123
:101020005543554E20202020202020202020202005
:10103000202000524F5545534259474E4F4C45537F
:101040000054656D702E204875696C653A00582D06
:101050004A6F79737469636B3A00592D4A6F7973DB
:101060007469636B3A0054656D702E204561753A62
:101070000042617474657269653A005669746573FB
:1010800073653A004F70657261746F72004D6172E2
:101090006368653A0042616467653A005369656751
:1010A000653A00434841524745002041444D494E6E
:1010B0000028282129290043686F633A00415543DD
:1010C000554E00564944450020793D004E20007899
:0910D0003D0041520041560000B0
:1010DA00F29E4DEC0DF05AEC11F072EC11F0C4ECEA
:1010EA0011F0020EE66EB3EC11F0010E0001806FF2
:1010FA00520EAD6EF28E8B948B928F90000E736FA0
:10110A000F0E746F000E7F6F000E816F000E826FDC
:10111A00220E096E0D0EDCEC0FF0520E41EC11F0AE
:10112A00200E41EC11F0560E41EC11F0200E41EC6C
:10113A0011F0420E41EC11F0220E096E0E0EDCEC9B
:10114A000FF0300E41EC11F0200E41EC11F0300E90
:10115A0041EC11F0200E41EC11F0300E41EC11F08F
:10116A00220E096E0F0EDCEC0FF0310E41EC11F07D
:10117A00200E41EC11F0310E41EC11F0200E41EC41
:10118A0011F0310E41EC11F0000E0001666F140EE1
:10119A00156EE60E166E3C0E176EB40E82EC10F04B
:1011AA00140E156EAA0E166E3C0E176E780E82EC91
:1011BA0010F0020E086E000E096EA9EC0EF0000E79
:1011CA00096E000EDCEC0FF08D0E086E100E096E23
:1011DA00A9EC0EF081B007D0D50E086E100E096E7C
:1011EA00A9EC0EF022D081B207D0D20E086E100EF2
:1011FA00096EA9EC0EF019D0CC0E086E100E096E0D
:10120A00A9EC0EF0040E1C6E0C0E1B6E340EE82EAA
:10121A00FED71B2EFCD71C2EFAD773C001F0026A28
:10122A0062EC12F001500001736F000E096E070E96
:10123A00DCEC0FF084B817D0B10E086E100E096EF0
:10124A00A9EC0EF04E0E1B6EEB0EE82EFED71B2EEF
:10125A00FCD700F073C001F0026A62EC12F0015090
:10126A000001736F06D02D0E086E100E096EA9ECE0
:10127A000EF0000E096E010EDCEC0FF09C0E086EEB
:10128A00100E096EA9EC0EF081B404D0310E41ECB7
:10129A0011F003D0300E41EC11F0000E096E020E6F
:1012AA00DCEC0FF0660E086E100E096EA9EC0EF05B
:1012BA00020E26EC11F01B6E1B500F6E106ACDEC5D
:1012CA0010F00F505BEC0EF0000E096E030EDCEC12
:1012DA000FF0410E086E100E096EA9EC0EF0030E07
:1012EA0026EC11F01B6E1B500F6E106ACDEC10F03D
:1012FA000F505BEC0EF0000E096E040EDCEC0FF0E2
:10130A00B70E086E100E096EA9EC0EF081B604D065
:10131A00310E41EC11F003D0300E41EC11F0020E07
:10132A0000018219D8A406D082C001F0026AEFEC4B
:10133A000EF003D08205D8B4F7D7000E096E050E59
:10134A00DCEC0FF07B0E086E100E096EA9EC0EF0A5
:10135A00000173515BEC0EF0000E096E060EDCEC18
:10136A000FF0710E086E100E096EA9EC0EF084B41F
:10137A0005D0640E0001746101D0742B84B604D0C8
:10138A0000017451D8A47407000174515BEC0EF08B
:10139A00000E096E080EDCEC0FF0950E086E100EAA
:1013AA00096EA9EC0EF000017F51D8A407D01E0ED9
:1013BA00086E100E096EA9EC0EF01ED0020E8219EC
:1013CA00D8A407D0840E086E100E096EA9EC0EF090
:1013DA0013D08205D8A407D0AA0E086E100E096E83
:1013EA00A9EC0EF009D08251D8A406D0BD0E086E21
:1013FA00100E096EA9EC0EF0000E096E090EDCEC57
:10140A000FF04E0E086E100E096EA9EC0EF00A0EC1
:10141A0026EC11F0AEEC0FF0000E096E0A0EDCECB1
:10142A000FF05A0E086E100E096EA9EC0EF00B0E94
:10143A0026EC11F0AEEC0FF0160E096E050EDCEC80
:10144A000FF0C30E086E100E096EA9EC0EF01F0EF7
:10145A00096E050EDCEC0FF0A30E086E100E096E75
:10146A00A9EC0EF000016605D8A420D0140E096E6E
:10147A00000EDCEC0FF0CF0E086E100E096EA9EC10
:10148A000EF000016751AEEC0FF0C80E086E100E98
:10149A00096EA9EC0EF000016851AEEC0FF068C0BD
:1014AA000FF000016751B3EC0DF001D000F000011C
:1014BA008105D8B44EEC12F000018151D8A47FD630
:1014CA000E0EE6EC11F042EC12F0030E0001816FF1
:1014DA0076D6010E0001656F010E696F020E6A6F02
:1014EA00030E6B6F040E6C6F050E6D6F060E6E6F3A
:1014FA00050E706F690E7025D96EDA6A000EDA224F
:10150A00DF506F6FFCCF85F0020EFC6EDA0E356E7F
:10151A00100E366E000E376E35C03AF036C03BF00C
:10152A003A0E386E000E396E38C0D9FF39C0DAFF6C
:10153A00DF50FD6E384A392A38C0D9FF39C0DAFF80
:10154A00DF50FE6E384A392A38C0D9FF39C0DAFF6F
:10155A00DF50FF6E070EFC6E140E356E170E366ED8
:10156A00000E376E35C03AF036C03BF03A0E386E90
:10157A00000E396E38C0D9FF39C0DAFFDF50FD6E70
:10158A00384A392A38C0D9FF39C0DAFFDF50FE6E2F
:10159A00384A392A38C0D9FF39C0DAFFDF50FF6E1E
:1015AA000C0EFC6EEE0E356E180E366E000E376E91
:1015BA0035C03AF036C03BF03A0E386E000E396E3E
:1015CA0038C0D9FF39C0DAFFDF50FD6E384A392AF0
:1015DA0038C0D9FF39C0DAFFDF50FE6E384A392ADF
:1015EA0038C0D9FF39C0DAFFDF50FF6E110EFC6E2A
:1015FA00CC0E356E190E366E000E376E35C03AF0C7
:10160A0036C03BF03A0E386E000E396E38C0D9FF3C
:10161A0039C0DAFFDF50FD6E384A392A38C0D9FF9F
:10162A0039C0DAFFDF50FE6E384A392A38C0D9FF8E
:10163A0039C0DAFFDF50FF6E160EFC6E080E356EEB
:10164A00180E366E000E376E35C03AF036C03BF0D3
:10165A003A0E386E000E396E38C0D9FF39C0DAFF3B
:10166A00DF50FD6E384A392A38C0D9FF39C0DAFF4F
:10167A00DF50FE6E384A392A38C0D9FF39C0DAFF3E
:10168A00DF50FF6E1B0EFC6E500E356E210E366E4D
:10169A00000E376E35C03AF036C03BF03A0E386E5F
:1016AA00000E396E38C0D9FF39C0DAFFDF50FD6E3F
:1016BA00384A392A38C0D9FF39C0DAFFDF50FE6EFE
:1016CA00384A392A38C0D9FF39C0DAFFDF50FF6EED
:1016DA0085C0FCFF020E0101036F070E0201036FB2
:1016EA000C0E0301036F110E0401036F160E0501A0
:1016FA00036F1B0E0601036F000E0001726F000ECE
:10170A00716F010ED56EF28A1200000E0001666F2B
:10171A008F868F980B0E026EB80E016E36EC12F0A1
:10172A00160EC06E010EC26E030EC26EC2B2FED794
:10173A00C4CF0EF0C3CF0FF00FC008F00F0E08167B
:10174A00D8B404D0000E0E6E000E0F6E090E0E6491
:10175A00DCD78F968F880B0E026EB80E016E36ECB0
:10176A0012F0160EC06E050EC26E070EC26EC2B21F
:10177A00FED7C4CF10F0C3CF11F011C008F00F0E7E
:10178A000816D8B404D0000E106E000E116E130E97
:10179A001064BBD70E50086E0F500A6E08C00BF0CB
:1017AA001050086E11500C6E08C00DF0B20E0A24CB
:1017BA000A6EF30E0B200B6E9C0E0C240C6EE60EBA
:1017CA000D200D6E0AC001F00BC002F0000E046E6F
:1017DA00F60E036E08EC10F001500001676F0CC0A2
:1017EA0001F00DC002F0010E046E990E036E08ECB2
:1017FA0010F001507F080001686F010E88D79EA87B
:10180A00FED7740EAD6EACA2FED79EA8FED7610EAF
:10181A00AD6EACA2FED79EA8FED7630EAD6EACA28B
:10182A00FED79EA8FED7680EAD6EACA2FED79EA8C4
:10183A00FED7650EAD6EACA2FED79EA8FED7350EBA
:10184A00AD6EACA2FED79EA8FED75F0EAD6EACA25F
:10185A00FED79EA8FED7650EAD6EACA2FED79EA897
:10186A00FED76E0EAD6EACA2FED79EA8FED75F0E57
:10187A00AD6EACA2FED79EA8FED7630EAD6EACA22B
:10188A00FED79EA8FED76F0EAD6EACA2FED79EA85D
:10189A00FED7750EAD6EACA2FED79EA8FED7720E0D
:1018AA00AD6EACA2FED79EA8FED7730EAD6EACA2EB
:1018BA00FED7000E026E000E016E014A022AE80EE1
:1018CA00015CFD0E0258D8A0F8D7000E026E000E79
:1018DA00016E014A022AE80E015CFD0E0258D8B0D8
:1018EA008ED7F7D700016605D8A414D0CA0E67654B
:1018FA0011D0D10E67610ED0700E686504D0790ED2
:10190A00686101D08B84780E686504D07F0E6861A7
:10191A0001D08B946605D8A414D0D60E676511D071
:10192A00DD0E67610ED0700E686504D0790E6861AD
:10193A0001D08B82780E686504D07F0E686101D071
:10194A008B926605D8A414D0E20E676511D0E90E11
:10195A0067610ED0700E686504D0790E686101D097
:10196A008F80780E686504D07F0E686101D08F90F1
:10197A006605D8A411D0B30E67650ED0E60E67616E
:10198A000BD0130E686508D03C0E686105D08B94A5
:10199A008B828F80010E816F6605D8A4A3D7770E3C
:1019AA006765A0D7AA0E67619DD7130E68659AD797
:1019BA003C0E686197D78B948B928F90000E816F43
:1019CA0091D79EA8FED7540EAD6EACA2FED79EA8A4
:1019DA00FED7410EAD6EACA2FED79EA8FED7430E2F
:1019EA00AD6EACA2FED79EA8FED7480EAD6EACA2D5
:1019FA00FED79EA8FED7450EAD6EACA2FED79EA816
:101A0A00FED7340EAD6EACA2FED79EA8FED75F0EEF
:101A1A00AD6EACA2FED79EA8FED7450EAD6EACA2A7
:101A2A00FED79EA8FED74E0EAD6EACA2FED79EA8DC
:101A3A00FED75F0EAD6EACA2FED79EA8FED7430EB0
:101A4A00AD6EACA2FED79EA8FED74F0EAD6EACA26D
:101A5A00FED79EA8FED7550EAD6EACA2FED79EA8A5
:101A6A00FED7520EAD6EACA2FED79EA8FED7530E7D
:101A7A00AD6EACA2FED7000E026E000E016E014AD8
:101A8A00022AE80E015CFD0E0258D8B09AD7F7D7A1
:101A9A00000E096E000E906E1F0E916E000E996E6A
:101AAA00000E9A6E919A918C9198040ED5EC11F0D1
:101ABA0091880C0ED5EC11F00CD0092A0C0ED5EC3D
:101ACA0011F0C80E096405D08B828F808B94F29E28
:101ADA00FFD78AEC11F00009D8B4EFD70F0E056EC4
:101AEA00210E066E270E5AEC10F0000E056E220E1D
:101AFA00066E000E5AEC10F0000E056E240E066EED
:101B0A00000E5AEC10F07B0E056E400E066E000EAB
:101B1A005AEC10F0000E056E410E066E280E5AECB5
:101B2A0010F0800E056E420E066E000E5AEC10F092
:101B3A00000E056E430E066E280E5AEC10F0800E4B
:101B4A0003EC12F09C0E03EC12F0A00E03EC12F060
:101B5A00700E056E020EEDEC10F01200146E14C039
:101B6A0007F0086A000E0A6E060E096E34EC0FF0D2
:101B7A000F50280DF3CF10F0F4CF11F007501024B6
:101B8A00126E08501120136E1350056E240E066E45
:101B9A0012505AEC10F018D0FD0E03EC12F012009D
:101BAA00FC0E03EC12F01200FB0E03EC12F0120012
:101BBA00FA0E03EC12F01200F90E03EC12F0120006
:101BCA00F80E03EC12F0120014C001F0026A000EC3
:101BDA00046E060E036E76EC0FF00250000AD8A4CB
:101BEA0012000150000AD8B4D7D7010AD8B4D8D7FE
:101BFA00030AD8B4D9D7010AD8B4DAD7070AD8B4AD
:101C0A00DBD7010AD8A41200DBD795828C968C9474
:101C1A00000E026E640E016E2AEC12F08C86000E23
:101C2A00056E030E026EE80E016E2AEC12F0052A0A
:101C3A0083A002D0410E056E400E0564F2D783A040
:101C4A0033D0000E066E000E086E000E076E83A2D9
:101C5A0003D008500109086E08500824086E000EC7
:101C6A00026E640E016E2AEC12F08C84010E026E72
:101C7A00F40E016E2AEC12F08C94010E026E900E94
:101C8A00016E2AEC12F0072A070E0764E0D7065005
:101C9A000324D96E000E0420DA6E08C0DFFF062A7C
:101CAA0083B0D1D706501200000E1200116E11C077
:101CBA0007F0086A000E0A6E640E096E34EC0FF023
:101CCA000750126E12509C0DF3501124136E13C05C
:101CDA0007F0086A000E0A6E0A0E096E34EC0FF05D
:101CEA000750136E12509C0DF3CF0FF01350F60DE0
:101CFA00F3500F241124106E1250100F146E01D0DD
:101D0A0000F0C00E056E1450EDEC10F00009D8B4C6
:101D1A00F7D71350100F146E01D000F0C00E056EE5
:101D2A001450EDEC10F00009D8B4F7D71050100F8A
:101D3A00146E01D000F0C00E056E1450EDEC10F0D8
:101D4A000009D8A41200F6D71CD000F0C00E056E08
:101D5A0008C0F6FF09C0F7FF000EF86E0F0EF76411
:101D6A0003D00800F55005D0F6CFE9FFF7CFEAFF18
:101D7A00EF50E00FEDEC10F00009D8B4E6D7084AAE
:101D8A00092A08C0F6FF09C0F7FF000EF86E0F0E09
:101D9A00F76403D00800F55005D0F6CFE9FFF7CF76
:101DAA00EAFFEF500009D8B4120008C0F6FF09C0D4
:101DBA00F7FF000EF86E0F0EF76403D00800F55017
:101DCA0005D0F6CFE9FFF7CFEAFFEF500009D8B404
:101DDA001200BCD701040210D8A408D0000E076E66
:101DEA00320E066E000E096E500E086E020E0118B3
:101DFA000210D8A408D0000E076E0F0E066E000E51
:101E0A00096E190E086E81A002D081B2120084A850
:101E1A00120000018105D8A416D084B00DD07351E8
:101E2A00036E046A0650035C0450800A056E07506C
:101E3A00800A0558D8A0732B84B212007351D8B403
:101E4A0012007307120084B0F7D77351036E046A45
:101E5A000850035C0450800A056E0950E9D7000E49
:101E6A000C6E0AAE06D0096C0A1ED8B00A2A010EF8
:101E7A000C6E08AE06D0076C081ED8B0082A010EF0
:101E8A000C1A000E0E6E000E0D6E09500A10D8B410
:101E9A001CD0010E0B6E04D0D89009360A360B2AD4
:101EAA000AAEFAD7D8900D360E360950075C0A509A
:101EBA000858D8A005D00950075E0A50085A0D8064
:101ECA00D8900A3209320B2EEDD70C50D8B404D070
:101EDA000D6C0E1ED8B00E2A0DC007F00EC008F009
:101EEA001200000E066E02AE06D0016C021ED8B0B9
:101EFA00022A010E066E04AE04D0036C041ED8B08A
:101F0A00042A03500410D8B418D0010E056E04D068
:101F1A00D89003360436052A04AEFAD70350015C7A
:101F2A0004500258D8A004D00350015E0450025A4B
:101F3A00D89004320332052EF1D70650D8B404D013
:101F4A00016C021ED8B0022A01C001F002C002F0E0
:101F5A001200086E08380F0B096E090E096403D0C7
:101F6A000950170F02D00950100F096E01D000F066
:101F7A00C00E056E0950EDEC10F00009D8B4F7D781
:101F8A0008500F0B096E090E096403D00950170F88
:101F9A0002D00950100F096E01D000F0C00E056E74
:101FAA000950EDEC10F00009D8A41200F6D70C6E17
:101FBA007B0E0E6E000E0D6E0F0E0C6402D0000E1C
:101FCA000C6E270E096402D0000E096E0C50280D03
:101FDA00F3CF0AF0F4CF0BF009500A26000E0B22B9
:101FEA000D500A240D6E0E500B200E6E01D000F01B
:101FFA000E50056E240E066E0D505AEC10F00009B4
:10200A00D8A41200F4D7000E066E000E056E035017
:10201A000410D8B41CD0010E076E04D0D890033631
:10202A000436072A04AEFAD7D89005360636035086
:10203A00015C04500258D8A005D00350015E045038
:10204A00025A0580D89004320332072EEDD705C014
:10205A0001F006C002F01200000E026E020E1ED03F
:10206A00996891809196919200F087CF03F09182BE
:10207A0091860350030B036E030E0318D8B40DD0D8
:10208A00022A0C0ED5EC11F0F90E026408D0F29E69
:10209A008B948B828F80000E01D0010E046E020E8B
:1020AA000418D8B4DDD704501200076E000E086E6B
:1020BA0031EC10F0E806D8A41ED00C0ED5EC11F0C5
:1020CA00075010EC12F031EC10F0E806D8A413D047
:1020DA000C0ED5EC11F0055010EC12F031EC10F0AA
:1020EA00E806D8A408D00C0ED5EC11F006501DEC69
:1020FA0012F0010E086E08501200186E18C019F07E
:10210A000BD015C00FF01950B3EC0DF017C00FF03B
:10211A001950B3EC0DF0192A1950165CD8B0F1D742
:10212A0015C01AF00BD01AC00FF01850B3EC0DF00E
:10213A001AC00FF01650B3EC0DF01A2A1A50175C99
:10214A00D8A01200F0D7750E036E000E046E0AECCA
:10215A000EF0096E0950D8B415D0040E0918D8A487
:10216A0004D009C07FF0020E07D0080E0918D8A4BF
:10217A0005D009C07FF0010E000108D0000E000151
:10218A007F6FE1D7000E00017F6F000E826FDBD7F1
:10219A000FC011F010C012F011C001F012C002F00D
:1021AA00000E046E640E036EA0EC11F001C007F07D
:1021BA0002C008F0000E0A6E096834EC0FF007C07E
:1021CA0013F008C014F013C00FF014C010F012007E
:1021DA00066E000E076E31EC10F0E806D8A413D094
:1021EA000C0ED5EC11F0065010EC12F031EC10F098
:1021FA00E806D8A408D00C0ED5EC11F005501DEC59
:10220A0012F0010E076E07501200A00E0F01266F82
:10221A00000E256F000E246F000E236F2581258383
:10222A0025852587248524878B848B828F809494A7
:10223A00949298909896989895949596F19E538D25
:10224A001200026E000EC16E160EC06E02501F0BF7
:10225A00026E0244E846FC0B026E02500109C26E8D
:10226A00C282C2B2FED7C3A003D0000E016E02D052
:10227A00C4CF01F001501200086E200E086002D08F
:10228A003F0E086E9F0E086402D03F0E086E08507B
:10229A00E00F086E01D000F0C00E056E0850EDEC9C
:1022AA0010F00009D8A41200F6D7000E056E240E0D
:1022BA00066E000E5AEC10F0000E0A6E000E096E41
:1022CA00C00E056E000EEDEC10F0094A0A2A800EC7
:1022DA000A180910D8B41200F3D7800E056E240E1E
:1022EA00066E000E5AEC10F0800E0A6E000E096E91
:1022FA00C00E056E000EEDEC10F0094A0A2AF80E1F
:10230A000A180910D8B41200F3D7996891809196E7
:10231A00919200F000F000F087CF01F0918291864F
:10232A000150030B030AD8A402D0010E01D0000EFB
:10233A00016E0150120001500302F3CF05F0F4CFF1
:10234A0006F001500402F350062602500302F3502D
:10235A00062605C001F006C002F0120006D0010EE2
:10236A00406E0BD0010E3F6E08D0FF0EE350010AFB
:10237A00D8B4F5D7030AD8B4F5D7E5521200949C1D
:10238A00948E080E656E040ED46EE10EAF6E040EC6
:10239A00AC6E800EAB6E240EAC6E900EAB6E12005D
:1023AA00016E0BD000F000F000F000F000F000F039
:1023BA0000F000F000F000F001060150D8B412005D
:1023CA00F1D70F6E000E106E10C009F00F50DCEC42
:1023DA000FF0200E41EC11F0102A270E1064F4D7EA
:1023EA0012000AEC11F06EEC0AF0010EE66EB3EC84
:1023FA0011F0D58EF284F28E00F0FED7056E31EC24
:10240A0010F0E806D8A412000C0ED5EC11F0055015
:10241A001DEC12F01200016E01C090FF000E996EC1
:10242A0091909196919400F000F091849186120017
:10243A00016E01C090FF000E996E91809196919461
:10244A0000F000F091849186120006D000F000F0AE
:10245A0000F00106D8A0020601500210D8B41200FA
:10246A00F5D706D000F000F000F00106D8A0020669
:10247A0001500210D8B41200F5D7000E096E0E0EE4
:10248A00DCEC0FF0330E086E100E096EA9EC0EF09C
:10249A001200000E096E0E0EDCEC0FF0010E086E33
:1024AA00100E096EA9EC0EF01200406A3F6A3E6AED
:1024BA003D6A3C6A0001F6EF11F001500210D8B4EF
:0A24CA0012000106D8A0020612005D
:020000040020DA
:08000000FFFFFFFFFFFFFFFF00
:020000040030CA
:0E00000015136100308081FFFFC0FFE0FF405C
:00000001FF
