:040000009EEF01F07E
:10000800E9CF1DF0EACF1EF0E1CF1FF0E2CF20F0DC
:10001800D9CF21F0DACF22F0F3CF23F0F4CF24F0B8
:10002800F6CF25F0F7CF26F0F8CF27F0F5CF28F058
:100038001AEEACF0D8CF61F00001606FE0CF62F04B
:10004800EACF63F0E9CF64F0F2BAF2A443D16505D0
:10005800D8A404D01B0EFC6E000E656F6FC0EAFFBB
:10006800000EE96E60C0EEFF61C0EEFF62C0EEFFF9
:10007800FCCFEEFF63C0EEFF64C0EEFFE2CFEEFF01
:10008800E1CFEEFFDACFEEFFD9CFEEFFF4CFEEFFF0
:10009800F3CFEEFFF8CFEEFFF7CFEEFFF6CFEEFF90
:1000A800F5CFEEFFFBCFEEFFFACFEEFF000EE26ECC
:1000B800000EE16EE6CFEEFFE6CFEEFFE6CFEEFFF5
:1000C800E6CFEEFFE6CFEEFFE6CFEEFFE6CFEEFFA0
:1000D800E6CFEEFFE6CFEEFFE6CFEEFFE6CFEEFF90
:1000E800E6CFEEFFE6CFEEFFE6CFEEFFE6CFEEFF80
:1000F800E6CFEEFFE6CFEEFFE6CFEEFFE6CFEEFF70
:10010800E6CFEEFFE6CFEEFFE6CFEEFFE6CFEEFF5F
:10011800E6CFEEFFE6CFEEFFE6CFEEFFE6CFEEFF4F
:10012800E6CFEEFFE6CFEEFFE6CFEEFFE6CFEEFF3F
:10013800E6CFEEFFE6CFEEFFE6CFEEFFE6CFEEFF2F
:10014800E6CFEEFFE6CFEEFFE6CFEEFFE6CFEEFF1F
:10015800E6CFEEFFE6CFEEFFE6CFEEFFE6CFEEFF0F
:10016800E6CFEEFFE6CFEEFFE6CFEEFFE6CFEEFFFF
:10017800E6CFEEFF8A0ED76ECF0ED66EF294714B95
:10018800722B702B060E7019D8A402D0000E706F57
:10019800690E7025D96EDA6A000EDA22DF506F6FA9
:1001A800000EE26E000EE16E6FC0EAFF120EE96EFD
:1001B800EECFE6FFEECFE6FFEECFE6FFEECFE6FFAF
:1001C800EECFE6FFEECFE6FFEECFE6FFEECFE6FF9F
:1001D800EECFE6FFEECFE6FFEECFE6FFEECFE6FF8F
:1001E800EECFE6FFEECFE6FFEECFE6FFEECFE6FF7F
:1001F800EECFE6FFEECFE6FFEECFE6FFEECFE6FF6F
:10020800EECFE6FFEECFE6FFEECFE6FFEECFE6FF5E
:10021800EECFE6FFEECFE6FFEECFE6FFEECFE6FF4E
:10022800EECFE6FFEECFE6FFEECFE6FFEECFE6FF3E
:10023800EECFE6FFEECFE6FFEECFE6FFEECFE6FF2E
:10024800EECFE6FFEECFE6FFEECFE6FFEECFE6FF1E
:10025800EECFE6FFEECFE6FFEECFE6FFEECFE6FF0E
:10026800EECFE6FFEECFE6FFEECFE6FFEECFE6FFFE
:100278006FC0EAFF000EE96EEECF60F0EECF61F0DE
:10028800EECF62F0EECFFCFFEECF63F0EECF64F07E
:10029800EECFE2FFEECFE1FFEECFDAFFEECFD9FFF0
:1002A800EECFF4FFEECFF3FFEECFF8FFEECFF7FF80
:1002B800EECFF6FFEECFF5FFEECFFBFFEECFFAFF66
:1002C80064C0E9FF63C0EAFF62C0E0FF605161C03B
:1002D800D8FF100064C0E9FF63C0EAFF62C0E0FF16
:1002E8000001605161C0D8FF10006DEC08F072EC9D
:1002F8000BF05FEC0CF0CEEC0CF0ECEC0BF0C9EC76
:1003080010F028C0F5FF27C0F8FF26C0F7FF25C06A
:10031800F6FF24C0F4FF23C0F3FF22C0DAFF21C098
:10032800D9FF20C0E2FF1FC0E1FF1EC0EAFF1DC0C9
:0C033800E9FF110016EE42F07BEF12F01E
:1010000000415454454E54494F4E20766F7573201D
:101010006574657320706C65696E21212100204123
:101020005543554E20202020202020202020202005
:10103000202000524F5545534259474E4F4C45537F
:101040000054656D702E204875696C653A00582D06
:101050004A6F79737469636B3A00592D4A6F7973DB
:101060007469636B3A0054656D702E204561753A62
:101070000042617474657269653A005669746573FB
:1010800073653A004F70657261746F72004D6172E2
:101090006368653A0042616467653A005369656751
:1010A000653A00434841524745002041444D494E6E
:1010B0000028282129290043686F633A00415543DD
:1010C000554E00564944450020793D004E200041D0
:0910D0005200415600783D000079
:1010DA00F29E35EC0DF07BEC11F093EC11F0E5EC9F
:1010EA0011F0020EE66ED4EC11F0010E0001806FD1
:1010FA00520EAD6EF28E8B948B928F90000E736FA0
:10110A00000E7F6F000E816F000E826F220E096E35
:10111A000D0EFDEC0FF0520E62EC11F0200E62EC97
:10112A0011F0560E62EC11F0200E62EC11F0420E34
:10113A0062EC11F0220E096E0E0EFDEC0FF0300E6D
:10114A0062EC11F0200E62EC11F0300E62EC11F03C
:10115A00200E62EC11F0300E62EC11F0220E096ED4
:10116A000F0EFDEC0FF0310E62EC11F0200E62EC66
:10117A0011F0310E62EC11F0200E62EC11F0310E1A
:10118A0062EC11F0000E0001666F140E156EE60E89
:10119A00166E3C0E176EB40EA3EC10F0140E156EFC
:1011AA00AA0E166E3C0E176E780EA3EC10F0020E05
:1011BA00086E000E096ED8EC0EF0000E096E000ED5
:1011CA00FDEC0FF08D0E086E100E096ED8EC0EF0C5
:1011DA00000E096E070EFDEC0FF084B817D0B10EA1
:1011EA00086E100E096ED8EC0EF04E0E1B6EEB0E4A
:1011FA00E82EFED71B2EFCD700F073C001F0026A5E
:10120A0083EC12F001500001736F06D02D0E086EA8
:10121A00100E096ED8EC0EF0000E096E010EFDECF0
:10122A000FF09C0E086E100E096ED8EC0EF081B409
:10123A0006D0310E62EC11F098EC0FF016D0300E99
:10124A0062EC11F0040E1C6E0C0E1B6E340EE82EAE
:10125A00FED71B2EFCD71C2EFAD773C001F0026AE8
:10126A0083EC12F001500001736F000E096E020E3A
:10127A00FDEC0FF0660E086E100E096ED8EC0EF03B
:10128A00020E47EC11F01B6E1B500F6E106AEEEC4B
:10129A0010F00F5043EC0EF0000E096E030EFDEC39
:1012AA000FF0410E086E100E096ED8EC0EF0030E08
:1012BA0047EC11F01B6E1B500F6E106AEEEC10F02B
:1012CA000F5043EC0EF0000E096E040EFDEC0FF009
:1012DA00B70E086E100E096ED8EC0EF081B604D067
:1012EA00310E62EC11F003D0300E62EC11F0020EF6
:1012FA0000018219D8A406D082C001F0026A91ECDA
:10130A000EF003D08205D8B4F7D7000E096E050E89
:10131A00FDEC0FF07B0E086E100E096ED8EC0EF085
:10132A000001735143EC0EF0000E096E060EFDEC3F
:10133A000FF0710E086E100E096ED8EC0EF084B420
:10134A0005D0640E0001746101D0742B84B604D0F8
:10135A0000017451D8A474070001745143EC0EF0D3
:10136A00000E096E080EFDEC0FF0950E086E100EB9
:10137A00096ED8EC0EF000017F51D8A407D01E0EDA
:10138A00086E100E096ED8EC0EF01ED0020E8219ED
:10139A00D8A407D0840E086E100E096ED8EC0EF091
:1013AA0013D08205D8A407D0AA0E086E100E096EB3
:1013BA00D8EC0EF009D08251D8A406D0BD0E086E22
:1013CA00100E096ED8EC0EF0000E096E090EFDEC37
:1013DA000FF04E0E086E100E096ED8EC0EF00A0EC3
:1013EA0047EC11F0CFEC0FF0000E096E0A0EFDEC7F
:1013FA000FF05A0E086E100E096ED8EC0EF00B0E96
:10140A0047EC11F0CFEC0FF0160E096E050EFDEC4D
:10141A000FF0C30E086E100E096ED8EC0EF01F0EF8
:10142A00096E050EFDEC0FF0A30E086E100E096E84
:10143A00D8EC0EF000016605D8A420D0140E096E6F
:10144A00000EFDEC0FF0D50E086E100E096ED8ECEA
:10145A000EF000016751CFEC0FF0C80E086E100EA7
:10146A00096ED8EC0EF000016851CFEC0FF068C09D
:10147A000FF0000167519BEC0DF001D000F0000164
:10148A008105D8B46FEC12F000018151D8A495D629
:10149A000E0E07EC12F063EC12F0030E0001816FDE
:1014AA008CD6010E0001656F010E696F020E6A6F1C
:1014BA00030E6B6F040E6C6F050E6D6F060E6E6F6A
:1014CA00050E706F690E7025D96EDA6A000EDA227F
:1014DA00DF506F6FFCCF85F0020EFC6EDA0E356EB0
:1014EA00100E366E000E376E35C03AF036C03BF03D
:1014FA003A0E386E000E396E38C0D9FF39C0DAFF9D
:10150A00DF50FD6E384A392A38C0D9FF39C0DAFFB0
:10151A00DF50FE6E384A392A38C0D9FF39C0DAFF9F
:10152A00DF50FF6E070EFC6EE40E356E160E366E39
:10153A00000E376E35C03AF036C03BF03A0E386EC0
:10154A00000E396E38C0D9FF39C0DAFFDF50FD6EA0
:10155A00384A392A38C0D9FF39C0DAFFDF50FE6E5F
:10156A00384A392A38C0D9FF39C0DAFFDF50FF6E4E
:10157A000C0EFC6EBE0E356E180E366E000E376EF1
:10158A0035C03AF036C03BF03A0E386E000E396E6E
:10159A0038C0D9FF39C0DAFFDF50FD6E384A392A20
:1015AA0038C0D9FF39C0DAFFDF50FE6E384A392A0F
:1015BA0038C0D9FF39C0DAFFDF50FF6E110EFC6E5A
:1015CA009C0E356E190E366E000E376E35C03AF027
:1015DA0036C03BF03A0E386E000E396E38C0D9FF6D
:1015EA0039C0DAFFDF50FD6E384A392A38C0D9FFD0
:1015FA0039C0DAFFDF50FE6E384A392A38C0D9FFBF
:10160A0039C0DAFFDF50FF6E160EFC6ED80E356E4B
:10161A00170E366E000E376E35C03AF036C03BF004
:10162A003A0E386E000E396E38C0D9FF39C0DAFF6B
:10163A00DF50FD6E384A392A38C0D9FF39C0DAFF7F
:10164A00DF50FE6E384A392A38C0D9FF39C0DAFF6E
:10165A00DF50FF6E1B0EFC6E920E356E210E366E3B
:10166A00000E376E35C03AF036C03BF03A0E386E8F
:10167A00000E396E38C0D9FF39C0DAFFDF50FD6E6F
:10168A00384A392A38C0D9FF39C0DAFFDF50FE6E2E
:10169A00384A392A38C0D9FF39C0DAFFDF50FF6E1D
:1016AA0085C0FCFF020E0101036F070E0201036FE2
:1016BA000C0E0301036F110E0401036F160E0501D0
:1016CA00036F1B0E0601036F000E0001726F000EFE
:1016DA00716F010ED56EF28A1200000E0001666F5C
:1016EA008F868F980B0E026EB80E016E57EC12F0B1
:1016FA00160EC06E010EC26E030EC26EC2B2FED7C5
:10170A00C4CF0EF0C3CF0FF00FC008F00F0E0816AB
:10171A00D8B404D0000E0E6E000E0F6E090E0E64C1
:10172A00DCD78F968F880B0E026EB80E016E57ECBF
:10173A0012F0160EC06E050EC26E070EC26EC2B24F
:10174A00FED7C4CF10F0C3CF11F011C008F00F0EAE
:10175A000816D8B404D0000E106E000E116E130EC7
:10176A001064BBD70E50086E0F500A6E08C00BF0FB
:10177A001050086E11500C6E08C00DF0B20E0A24FB
:10178A000A6EF30E0B200B6E9C0E0C240C6EE60EEA
:10179A000D200D6E0AC001F00BC002F0000E046E9F
:1017AA00F60E036E29EC10F001500001676F0CC0B1
:1017BA0001F00DC002F0010E046E990E036E29ECC1
:1017CA0010F001507F080001686F010E88D79EA8AB
:1017DA00FED7740EAD6EACA2FED79EA8FED7610EE0
:1017EA00AD6EACA2FED79EA8FED7630EAD6EACA2BC
:1017FA00FED79EA8FED7680EAD6EACA2FED79EA8F5
:10180A00FED7650EAD6EACA2FED79EA8FED7350EEA
:10181A00AD6EACA2FED79EA8FED75F0EAD6EACA28F
:10182A00FED79EA8FED7650EAD6EACA2FED79EA8C7
:10183A00FED76E0EAD6EACA2FED79EA8FED75F0E87
:10184A00AD6EACA2FED79EA8FED7630EAD6EACA25B
:10185A00FED79EA8FED76F0EAD6EACA2FED79EA88D
:10186A00FED7750EAD6EACA2FED79EA8FED7720E3D
:10187A00AD6EACA2FED79EA8FED7730EAD6EACA21B
:10188A00FED7000E026E000E016E014A022AE80E11
:10189A00015CFD0E0258D8A0F8D7000E026E000EA9
:1018AA00016E014A022AE80E015CFD0E0258D8B008
:1018BA008ED7F7D700016605D8A414D0CA0E67657B
:1018CA0011D0D10E67610ED0700E686504D0790E02
:1018DA00686101D08B84780E686504D07F0E6861D8
:1018EA0001D08B946605D8A414D0D60E676511D0A2
:1018FA00DD0E67610ED0700E686504D0790E6861DE
:10190A0001D08B82780E686504D07F0E686101D0A1
:10191A008B926605D8A414D0E20E676511D0E90E41
:10192A0067610ED0700E686504D0790E686101D0C7
:10193A008F80780E686504D07F0E686101D08F9021
:10194A006605D8A411D0B30E67650ED0E60E67619E
:10195A000BD0130E686508D03C0E686105D08B94D5
:10196A008B828F80010E816F6605D8A4A3D7770E6C
:10197A006765A0D7AA0E67619DD7130E68659AD7C7
:10198A003C0E686197D78B948B928F90000E816F73
:10199A0091D79EA8FED7540EAD6EACA2FED79EA8D4
:1019AA00FED7410EAD6EACA2FED79EA8FED7430E5F
:1019BA00AD6EACA2FED79EA8FED7480EAD6EACA205
:1019CA00FED79EA8FED7450EAD6EACA2FED79EA846
:1019DA00FED7340EAD6EACA2FED79EA8FED75F0E20
:1019EA00AD6EACA2FED79EA8FED7450EAD6EACA2D8
:1019FA00FED79EA8FED74E0EAD6EACA2FED79EA80D
:101A0A00FED75F0EAD6EACA2FED79EA8FED7430EE0
:101A1A00AD6EACA2FED79EA8FED74F0EAD6EACA29D
:101A2A00FED79EA8FED7550EAD6EACA2FED79EA8D5
:101A3A00FED7520EAD6EACA2FED79EA8FED7530EAD
:101A4A00AD6EACA2FED7000E026E000E016E014A08
:101A5A00022AE80E015CFD0E0258D8B09AD7F7D7D1
:101A6A00000E096E000E906E1F0E916E000E996E9A
:101A7A00000E9A6E919A918C9198040EF6EC11F0E0
:101A8A0091880C0EF6EC11F00CD0092A0C0EF6EC2B
:101A9A0011F0C80E096405D08B828F808B94F29E58
:101AAA00FFD7ABEC11F00009D8B4EFD70F0E056ED3
:101ABA00210E066E270E7BEC10F0000E056E220E2C
:101ACA00066E000E7BEC10F0000E056E240E066EFC
:101ADA00000E7BEC10F07B0E056E400E066E000EBB
:101AEA007BEC10F0000E056E410E066E280E7BECA4
:101AFA0010F0800E056E420E066E000E7BEC10F0A2
:101B0A00000E056E430E066E280E7BEC10F0800E5A
:101B1A0024EC12F09C0E24EC12F0A00E24EC12F02D
:101B2A00700E056E020E0EEC11F01200146E14C047
:101B3A0007F0086A000E0A6E060E096E1EEC0FF018
:101B4A000F50280DF3CF10F0F4CF11F007501024E6
:101B5A00126E08501120136E1350056E240E066E75
:101B6A0012507BEC10F018D0FD0E24EC12F012008B
:101B7A00FC0E24EC12F01200FB0E24EC12F0120000
:101B8A00FA0E24EC12F01200F90E24EC12F01200F4
:101B9A00F80E24EC12F0120014C001F0026A000ED2
:101BAA00046E060E036E60EC0FF00250000AD8A411
:101BBA0012000150000AD8B4D7D7010AD8B4D8D72E
:101BCA00030AD8B4D9D7010AD8B4DAD7070AD8B4DD
:101BDA00DBD7010AD8A41200DBD795828C968C94A5
:101BEA00000E026E640E016E4BEC12F08C86000E33
:101BFA00056E030E026EE80E016E4BEC12F0052A1A
:101C0A0083A002D0410E056E400E0564F2D783A070
:101C1A0033D0000E066E000E086E000E076E83A209
:101C2A0003D008500109086E08500824086E000EF7
:101C3A00026E640E016E4BEC12F08C84010E026E81
:101C4A00F40E016E4BEC12F08C94010E026E900EA3
:101C5A00016E4BEC12F0072A070E0764E0D7065014
:101C6A000324D96E000E0420DA6E08C0DFFF062AAC
:101C7A0083B0D1D706501200000E1200116E11C0A7
:101C8A0007F0086A000E0A6E640E096E1EEC0FF069
:101C9A000750126E12509C0DF3501124136E13C08C
:101CAA0007F0086A000E0A6E0A0E096E1EEC0FF0A3
:101CBA000750136E12509C0DF3CF0FF01350F60D10
:101CCA00F3500F241124106E1250100F146E01D00D
:101CDA0000F0C00E056E14500EEC11F00009D8B4D5
:101CEA00F7D71350100F146E01D000F0C00E056E16
:101CFA0014500EEC11F00009D8B4F7D71050100F99
:101D0A00146E01D000F0C00E056E14500EEC11F0E6
:101D1A000009D8A41200F6D701040210D8A408D0EA
:101D2A00000E076E320E066E000E096E500E086E19
:101D3A00020E01180210D8A408D0000E076E0F0E6A
:101D4A00066E000E096E190E086E81B4120081A08B
:101D5A0002D081B2120084A8120000018105D8A421
:101D6A0016D084B00DD07351036E046A0650035C1A
:101D7A000450800A056E0750800A0558D8A0732BB4
:101D8A0084B212007351D8B412007307120084B0DF
:101D9A00F7D77351036E046A0850035C0450800A33
:101DAA00056E0950E9D71CD000F0C00E056E08C0B8
:101DBA00F6FF09C0F7FF000EF86E0F0EF76403D0A6
:101DCA000800F55005D0F6CFE9FFF7CFEAFFEF504C
:101DDA00E00F0EEC11F00009D8B4E6D7084A092A38
:101DEA0008C0F6FF09C0F7FF000EF86E0F0EF76481
:101DFA0003D00800F55005D0F6CFE9FFF7CFEAFF88
:101E0A00EF500009D8B4120008C0F6FF09C0F7FF66
:101E1A00000EF86E0F0EF76403D00800F55005D0D7
:101E2A00F6CFE9FFF7CFEAFFEF500009D8B4120066
:101E3A00BCD7000E0C6E0AAE06D0096C0A1ED8B0CA
:101E4A000A2A010E0C6E08AE06D0076C081ED8B01E
:101E5A00082A010E0C1A000E0E6E000E0D6E0950A5
:101E6A000A10D8B41CD0010E0B6E04D0D8900936D3
:101E7A000A360B2A0AAEFAD7D8900D360E36095012
:101E8A00075C0A500858D8A005D00950075E0A50C6
:101E9A00085A0D80D8900A3209320B2EEDD70C5011
:101EAA00D8B404D00D6C0E1ED8B00E2A0DC007F09F
:101EBA000EC008F01200000E066E02AE06D0016CCB
:101ECA00021ED8B0022A010E066E04AE04D0036CBC
:101EDA00041ED8B0042A03500410D8B418D0010E36
:101EEA00056E04D0D89003360436052A04AEFAD714
:101EFA000350015C04500258D8A004D00350015E7C
:101F0A000450025AD89004320332052EF1D70650F3
:101F1A00D8B404D0016C021ED8B0022A01C001F064
:101F2A0002C002F01200000E096E000EFDEC0FF066
:101F3A008D0E086E100E096ED8EC0EF081B007D027
:101F4A00D20E086E100E096ED8EC0EF0120081B295
:101F5A0007D0CF0E086E100E096ED8EC0EF01200E4
:101F6A00CC0E086E100E096ED8EC0EF0040E106E30
:101F7A000C0E0F6E340EE82EFED70F2EFCD7102E45
:101F8A00FAD773C001F0026A83EC12F00150000123
:101F9A00736F1200086E08380F0B096E090E096478
:101FAA0003D00950170F02D00950100F096E01D043
:101FBA0000F0C00E056E09500EEC11F00009D8B4FD
:101FCA00F7D708500F0B096E090E096403D00950A0
:101FDA00170F02D00950100F096E01D000F0C00E81
:101FEA00056E09500EEC11F00009D8A41200F6D7BC
:101FFA000C6E7B0E0E6E000E0D6E0F0E0C6402D070
:10200A00000E0C6E270E096402D0000E096E0C50E9
:10201A00280DF3CF0AF0F4CF0BF009500A26000E70
:10202A000B220D500A240D6E0E500B200E6E01D09D
:10203A0000F00E50056E240E066E0D507BEC10F06B
:10204A000009D8A41200F4D7000E066E000E056E21
:10205A0003500410D8B41CD0010E076E04D0D890D7
:10206A0003360436072A04AEFAD7D8900536063660
:10207A000350015C04500258D8A005D00350015EF9
:10208A000450025A0580D89004320332072EEDD745
:10209A0005C001F006C002F01200000E026E020E28
:1020AA001ED0996891809196919200F087CF03F0A3
:1020BA00918291860350030B036E030E0318D8B462
:1020CA000DD0022A0C0EF6EC11F0F90E026408D0BB
:1020DA00F29E8B948B828F80000E01D0010E046ECB
:1020EA00020E0418D8B4DDD704501200076E000E91
:1020FA00086E52EC10F0E806D8A41ED00C0EF6ECCE
:10210A0011F0075031EC12F052EC10F0E806D8A4A6
:10211A0013D00C0EF6EC11F0055031EC12F052EC23
:10212A0010F0E806D8A408D00C0EF6EC11F0065010
:10213A003EEC12F0010E086E08501200186E18C01C
:10214A0019F00BD015C00FF019509BEC0DF017C009
:10215A000FF019509BEC0DF0192A1950165CD8B0E3
:10216A00F1D715C01AF00BD01AC00FF018509BEC1B
:10217A000DF01AC00FF016509BEC0DF01A2A1A50E7
:10218A00175CD8A01200F0D7750E036E000E046E0D
:10219A00F2EC0DF0096E0950D8B415D0040E0918E6
:1021AA00D8A404D009C07FF0020E07D0080E09187F
:1021BA00D8A405D009C07FF0010E000108D0000E96
:1021CA0000017F6FE1D7000E00017F6F000E826F62
:1021DA00DBD70FC011F010C012F011C001F012C00D
:1021EA0002F0000E046E640E036EC1EC11F001C021
:1021FA0007F002C008F0000E0A6E09681EEC0FF024
:10220A0007C013F008C014F013C00FF014C010F088
:10221A001200066E000E076E52EC10F0E806D8A403
:10222A0013D00C0EF6EC11F0065031EC12F052EC11
:10223A0010F0E806D8A408D00C0EF6EC11F0055000
:10224A003EEC12F0010E076E07501200A00E0F01AD
:10225A00266F000E256F000E246F000E236F258156
:10226A00258325852587248524878B848B828F80E7
:10227A009494949298909896989895949596F19E9D
:10228A00538D1200026E000EC16E160EC06E025001
:10229A001F0B026E0244E846FC0B026E0250010953
:1022AA00C26EC282C2B2FED7C3A003D0000E016EB4
:1022BA0002D0C4CF01F001501200086E200E08604F
:1022CA0002D03F0E086E9F0E086402D03F0E086EC1
:1022DA000850E00F086E01D000F0C00E056E0850DD
:1022EA000EEC11F00009D8A41200F6D7000E056E04
:1022FA00240E066E000E7BEC10F0000E0A6E000E25
:10230A00096EC00E056E000E0EEC11F0094A0A2A7B
:10231A00800E0A180910D8B41200F3D7800E056E81
:10232A00240E066E000E7BEC10F0800E0A6E000E74
:10233A00096EC00E056E000E0EEC11F0094A0A2A4B
:10234A00F80E0A180910D8B41200F3D799689180C8
:10235A009196919200F000F000F087CF01F09182FF
:10236A0091860150030B030AD8A402D0010E01D0B2
:10237A00000E016E0150120001500302F3CF05F066
:10238A00F4CF06F001500402F3500626025003026D
:10239A00F350062605C001F006C002F0120006D06E
:1023AA00010E406E0BD0010E3F6E08D0FF0EE350B7
:1023BA00010AD8B4F5D7030AD8B4F5D7E552120002
:1023CA00949C948E080E656E040ED46EE10EAF6E68
:1023DA00040EAC6E800EAB6E240EAC6E900EAB6E1D
:1023EA001200016E0BD000F000F000F000F000F0D7
:1023FA0000F000F000F000F000F001060150D8B43F
:10240A001200F1D70F6E000E106E10C009F00F50B7
:10241A00FDEC0FF0200E62EC11F0102A270E10646A
:10242A00F4D712002BEC11F056EC0AF0010EE66E0E
:10243A00D4EC11F0D58EF284F28E00F0FED7056E40
:10244A0052EC10F0E806D8A412000C0EF6EC11F0CB
:10245A0005503EEC12F01200016E01C090FF000E12
:10246A00996E91909196919400F000F091849186E2
:10247A001200016E01C090FF000E996E9180919634
:10248A00919400F000F091849186120006D000F039
:10249A0000F000F00106D8A0020601500210D8B4DC
:1024AA001200F5D706D000F000F000F00106D8A01F
:1024BA00020601500210D8B41200F5D7000E096EB8
:1024CA000E0EFDEC0FF0330E086E100E096ED8ECEE
:1024DA000EF01200000E096E0E0EFDEC0FF0010E4A
:1024EA00086E100E096ED8EC0EF01200406A3F6AB0
:1024FA003E6A3D6A3C6A000117EF12F00150021071
:0C250A00D8B412000106D8A0020612008E
:020000040020DA
:08000000FFFFFFFFFFFFFFFF00
:020000040030CA
:0E00000015136100308081FFFFC0FFE0FF405C
:00000001FF
