:0400000096EF01F086
:10000800E1CF16F0E2CF17F0D9CF18F0DACF19F018
:10001800F3CF1AF0F4CF1BF0F6CF1CF0F7CF1DF09A
:10002800F8CF1EF0F5CF1FF01AEEACF0D8CF61F084
:100038000001606FE0CF62F0EACF63F0E9CF64F0CF
:10004800F2BAF2A443D16505D8A404D01B0EFC6E05
:10005800000E656F6FC0EAFF000EE96E60C0EEFF2C
:1000680061C0EEFF62C0EEFFFCCFEEFF63C0EEFFA3
:1000780064C0EEFFE2CFEEFFE1CFEEFFDACFEEFF96
:10008800D9CFEEFFF4CFEEFFF3CFEEFFF8CFEEFFC0
:10009800F7CFEEFFF6CFEEFFF5CFEEFFFBCFEEFF8B
:1000A800FACFEEFF000EE26E000EE16EE6CFEEFF35
:1000B800E6CFEEFFE6CFEEFFE6CFEEFFE6CFEEFFB0
:1000C800E6CFEEFFE6CFEEFFE6CFEEFFE6CFEEFFA0
:1000D800E6CFEEFFE6CFEEFFE6CFEEFFE6CFEEFF90
:1000E800E6CFEEFFE6CFEEFFE6CFEEFFE6CFEEFF80
:1000F800E6CFEEFFE6CFEEFFE6CFEEFFE6CFEEFF70
:10010800E6CFEEFFE6CFEEFFE6CFEEFFE6CFEEFF5F
:10011800E6CFEEFFE6CFEEFFE6CFEEFFE6CFEEFF4F
:10012800E6CFEEFFE6CFEEFFE6CFEEFFE6CFEEFF3F
:10013800E6CFEEFFE6CFEEFFE6CFEEFFE6CFEEFF2F
:10014800E6CFEEFFE6CFEEFFE6CFEEFFE6CFEEFF1F
:10015800E6CFEEFFE6CFEEFFE6CFEEFFE6CFEEFF0F
:10016800E6CFEEFFE6CFEEFFE6CFEEFF8A0ED76EC4
:10017800CF0ED66EF294714B722B702B060E70193F
:10018800D8A402D0000E706F690E7025D96EDA6A95
:10019800000EDA22DF506F6F000EE26E000EE16E85
:1001A8006FC0EAFF120EE96EEECFE6FFEECFE6FF74
:1001B800EECFE6FFEECFE6FFEECFE6FFEECFE6FFAF
:1001C800EECFE6FFEECFE6FFEECFE6FFEECFE6FF9F
:1001D800EECFE6FFEECFE6FFEECFE6FFEECFE6FF8F
:1001E800EECFE6FFEECFE6FFEECFE6FFEECFE6FF7F
:1001F800EECFE6FFEECFE6FFEECFE6FFEECFE6FF6F
:10020800EECFE6FFEECFE6FFEECFE6FFEECFE6FF5E
:10021800EECFE6FFEECFE6FFEECFE6FFEECFE6FF4E
:10022800EECFE6FFEECFE6FFEECFE6FFEECFE6FF3E
:10023800EECFE6FFEECFE6FFEECFE6FFEECFE6FF2E
:10024800EECFE6FFEECFE6FFEECFE6FFEECFE6FF1E
:10025800EECFE6FFEECFE6FFEECFE6FFEECFE6FF0E
:10026800EECFE6FFEECFE6FF6FC0EAFF000EE96EC5
:10027800EECF60F0EECF61F0EECF62F0EECFFCFF94
:10028800EECF63F0EECF64F0EECFE2FFEECFE1FF0A
:10029800EECFDAFFEECFD9FFEECFF4FFEECFF3FFCC
:1002A800EECFF8FFEECFF7FFEECFF6FFEECFF5FF7C
:1002B800EECFFBFFEECFFAFF64C0E9FF63C0EAFFB1
:1002C80062C0E0FF605161C0D8FF100064C0E9FF60
:1002D80063C0EAFF62C0E0FF0001605161C0D8FF5F
:1002E800100054EC08F02AEC0BF08CEC0DF017EC35
:1002F8000CF0A4EC0BF03CEC10F01FC0F5FF1EC096
:10030800F8FF1DC0F7FF1CC0F6FF1BC0F4FF1AC0A2
:10031800F3FF19C0DAFF18C0D9FF17C0E2FF16C0F3
:0C032800E1FF110016EE42F0DFEF10F0D4
:101000000020415543554E20202020202020202024
:101010002020202020004C5546465920202020200A
:1010200020202020202020200054656D702E204894
:1010300075696C653A00582D4A6F79737469636BF2
:101040003A00592D4A6F79737469636B3A0054659D
:101050006D702E204561753A004261747465726945
:10106000653A00566974657373653A004D61726341
:1010700068653A00424947204D554D00426164671A
:10108000653A0053696567653A00282821292900D7
:1010900043686F633A0020793D004E2000783D00A0
:0710A000415200415600001F
:1010A800F29E7EEC0CF0DFEC0FF0F7EC0FF061EC49
:1010B80010F0020EE66E50EC10F0010E0001806F89
:1010C800520EAD6EF28E8B948B928F90000E736FD2
:1010D8000F0E746F000E7F6F220E096E0D0E7BECE3
:1010E8000EF0520EC6EC0FF0200EC6EC0FF0560EA6
:1010F800C6EC0FF0200EC6EC0FF0420EC6EC0FF057
:10110800220E096E0E0E7BEC0EF0300EC6EC0FF0C0
:10111800200EC6EC0FF0300EC6EC0FF0200EC6EC19
:101128000FF0300EC6EC0FF0220E096E0F0E7BEC9E
:101138000EF0310EC6EC0FF0200EC6EC0FF0310E9B
:10114800C6EC0FF0200EC6EC0FF0310EC6EC0FF017
:10115800000E0001666F1E0E0F6EBE0E106E5A0E48
:10116800116E5A0E4CEC0FF01E0E0F6EBE0E106E66
:101178005A0E116E5A0E0FEC10F0000E096E000E8A
:101188007BEC0EF06C0E086E100E096EA7EC0EF0DC
:1011980081B007D0A30E086E100E096EA7EC0EF0F2
:1011A8000FD081B207D0A00E086E100E096EA7EC02
:1011B8000EF006D09A0E086E100E096EA7EC0EF00F
:1011C800000E096E010E7BEC0EF0830E086E100EF9
:1011D800096EA7EC0EF081B404D0310EC6EC0FF006
:1011E80003D0300EC6EC0FF0000E096E020E7BEC39
:1011F8000EF04E0E086E100E096EA7EC0EF0020EE1
:10120800ABEC0FF04DEC0EF0000E096E030E7BEC0C
:101218000EF0290E086E100E096EA7EC0EF0030EE4
:10122800ABEC0FF04DEC0EF0000E096E040E7BECEB
:101238000EF0900E086E100E096EA7EC0EF081B637
:1012480004D0310EC6EC0FF003D0300EC6EC0FF010
:10125800000E096E050E7BEC0EF0630E086E100E84
:10126800096EA7EC0EF084B002D00001732B84B293
:1012780002D000017307000173514DEC0EF0000E0F
:10128800096E060E7BEC0EF0590E086E100E096EF4
:10129800A7EC0EF084B402D00001742B84B602D0FF
:1012A80000017407000174514DEC0EF0000E096E38
:1012B800070E7BEC0EF084B807D08A0E086E100E6D
:1012C800096EA7EC0EF006D0100E086E100E096E0F
:1012D800A7EC0EF0000E096E080E7BEC0EF07C0EEB
:1012E800086E100E096EA7EC0EF000017F51D8A40D
:1012F80007D0010E086E100E096EA7EC0EF012D082
:10130800000E156E0AD0750E1524D96EDA6A000E15
:10131800DA22DF504DEC0EF0152A00017F51155CE2
:10132800D8A0F1D7000E096E090E7BEC0EF0360E30
:10133800086E100E096EA7EC0EF00A0EABEC0FF05B
:101348004DEC0EF0000E096E0A0E7BEC0EF0420E0C
:10135800086E100E096EA7EC0EF00B0EABEC0FF03A
:101368004DEC0EF0000E096E0D0E7BEC0EF0740EB7
:10137800086E100E096EA7EC0EF000016605D8A4E1
:1013880023D0310E676518D0960E676115D0090E07
:1013980068651AD0320E686117D00E0E83EC10F013
:1013A800000E096E0E0E7BEC0EF0160E086E100E77
:1013B800096EA7EC0EF008D00E0E83EC10F0000EAC
:1013C800096E0E0E7BEC0EF000016605D8A420D045
:1013D800140E096E000E7BEC0EF09D0E086E100EBA
:1013E800096EA7EC0EF0000167514DEC0EF0960E59
:1013F800086E100E096EA7EC0EF0000168514DEC56
:101408000EF068C009F000016751E4EC0CF0B5D6A5
:1014180000F0B3D6010E0001656F010E696F020E70
:101428006A6F030E6B6F040E6C6F050E6D6F060E00
:101438006E6F050E706F690E7025D96EDA6A000E30
:10144800DA22DF506F6FFCCF20F0020EFC6EA80E80
:101458002D6E100E2E6E000E2F6E2DC032F02EC087
:1014680033F0320E306E000E316E30C0D9FF31C00D
:10147800DAFFDF50FD6E304A312A30C0D9FF31C063
:10148800DAFFDF50FE6E304A312A30C0D9FF31C052
:10149800DAFFDF50FF6E070EFC6E540E2D6E160E2F
:1014A8002E6E000E2F6E2DC032F02EC033F0320E8D
:1014B800306E000E316E30C0D9FF31C0DAFFDF5018
:1014C800FD6E304A312A30C0D9FF31C0DAFFDF5013
:1014D800FE6E304A312A30C0D9FF31C0DAFFDF5002
:1014E800FF6E0C0EFC6E180E2D6E1B0E2E6E000E6F
:1014F8002F6E2DC032F02EC033F0320E306E000E3B
:10150800316E30C0D9FF31C0DAFFDF50FD6E304A8E
:10151800312A30C0D9FF31C0DAFFDF50FE6E304AC1
:10152800312A30C0D9FF31C0DAFFDF50FF6E110E0B
:10153800FC6E2E0E2D6E180E2E6E000E2F6E2DC008
:1015480032F02EC033F0320E306E000E316E30C0E5
:10155800D9FF31C0DAFFDF50FD6E304A312A30C082
:10156800D9FF31C0DAFFDF50FE6E304A312A30C071
:10157800D9FF31C0DAFFDF50FF6E160EFC6E480E41
:101588002D6E170E2E6E000E2F6E2DC032F02EC04F
:1015980033F0320E306E000E316E30C0D9FF31C0DC
:1015A800DAFFDF50FD6E304A312A30C0D9FF31C032
:1015B800DAFFDF50FE6E304A312A30C0D9FF31C021
:1015C800DAFFDF50FF6E1B0EFC6E780E2D6E200EBC
:1015D8002E6E000E2F6E2DC032F02EC033F0320E5C
:1015E800306E000E316E30C0D9FF31C0DAFFDF50E7
:1015F800FD6E304A312A30C0D9FF31C0DAFFDF50E2
:10160800FE6E304A312A30C0D9FF31C0DAFFDF50D0
:10161800FF6E20C0FCFF020E0101036F070E0201DE
:10162800036F0C0E0301036F110E0401036F160EF6
:101638000501036F1B0E0601036F000E0001726F98
:10164800000E716F010ED56EF28A1200000E0001B5
:10165800666F8F868F980B0E026EB80E016ED3ECF4
:1016680010F0160EC06E010EC26E030EC26EC2B22C
:10167800FED7C4CF0EF0C3CF0FF00FC008F00F0E87
:101688000816D8B404D0000E0E6E000E0F6E090EA8
:101698000E64DCD78F968F880B0E026EB80E016E23
:1016A800D3EC10F0160EC06E050EC26E070EC26E99
:1016B800C2B2FED7C4CF10F0C3CF11F011C008F0EA
:1016C8000F0E0816D8B404D0000E106E000E116E5E
:1016D800130E1064BBD70E50086E0F500A6E08C068
:1016E8000BF01050086E11500C6E08C00DF0B20EC1
:1016F8000A240A6EF30E0B200B6E9C0E0C240C6E43
:10170800E60E0D200D6E0AC001F00BC002F0000EAF
:10171800046EF60E036ED2EC0EF001500001676FF6
:101728000CC001F00DC002F0010E046E990E036E9C
:10173800D2EC0EF001507F080001686F010E88D7C7
:101748009EA8FED7740EAD6EACA2FED79EA8FED79B
:10175800610EAD6EACA2FED79EA8FED7630EAD6E2D
:10176800ACA2FED79EA8FED7680EAD6EACA2FED77F
:101778009EA8FED7650EAD6EACA2FED79EA8FED77A
:10178800350EAD6EACA2FED79EA8FED75F0EAD6E2D
:10179800ACA2FED79EA8FED7650EAD6EACA2FED752
:1017A8009EA8FED76E0EAD6EACA2FED79EA8FED741
:1017B8005F0EAD6EACA2FED79EA8FED7630EAD6ECF
:1017C800ACA2FED79EA8FED76F0EAD6EACA2FED718
:1017D8009EA8FED7750EAD6EACA2FED79EA8FED70A
:1017E800720EAD6EACA2FED79EA8FED7730EAD6E7C
:1017F800ACA2FED7000E026E000E016E014A022A4C
:10180800E80E015CFD0E0258D8A0F8D7000E026E53
:10181800000E016E014A022AE80E015CFD0E025814
:10182800D8B08ED7F7D79EA8FED7540EAD6EACA20F
:10183800FED79EA8FED7410EAD6EACA2FED79EA8DD
:10184800FED7430EAD6EACA2FED79EA8FED7480EBB
:10185800AD6EACA2FED79EA8FED7450EAD6EACA26B
:10186800FED79EA8FED7340EAD6EACA2FED79EA8BA
:10187800FED75F0EAD6EACA2FED79EA8FED7450E72
:10188800AD6EACA2FED79EA8FED74E0EAD6EACA232
:10189800FED79EA8FED75F0EAD6EACA2FED79EA85F
:1018A800FED7430EAD6EACA2FED79EA8FED74F0E54
:1018B800AD6EACA2FED79EA8FED7550EAD6EACA2FB
:1018C800FED79EA8FED7520EAD6EACA2FED79EA83C
:1018D800FED7530EAD6EACA2FED7000E026E000E00
:1018E800016E014A022AE80E015CFD0E0258D8B0CA
:1018F8009AD7F7D7000E096E000E906E1F0E916EE4
:10190800000E996E000E9A6E919A918C9198040E21
:1019180072EC10F091880C0E72EC10F00CD0092AC1
:101928000C0E72EC10F0C80E096405D08B828F8003
:101938008B94F29EFFD726EC10F00009D8B4EFD7AD
:101948000F0E056E210E066E270E24EC0FF0000E0A
:10195800056E220E066E000E24EC0FF0000E056ECA
:10196800240E066E000E24EC0FF07B0E056E400E62
:10197800066E000E24EC0FF0000E056E410E066E8A
:10198800280E24EC0FF0800E056E420E066E000E37
:1019980024EC0FF0000E056E430E066E280E24ECA4
:1019A8000FF0800EA0EC10F09C0EA0EC10F0A00E32
:1019B800A0EC10F0700E056E020E72EC0FF0120023
:1019C8000E6E0EC001F0026A000E046E060E036E63
:1019D800D3EC0DF00950280DF3CF0AF0F4CF0BF03B
:1019E80001500A240C6E02500B200D6E0D50056E2E
:1019F800240E066E0C5024EC0FF018D0FD0EA0EC4F
:101A080010F01200FC0EA0EC10F01200FB0EA0EC7F
:101A180010F01200FA0EA0EC10F01200F90EA0EC73
:101A280010F01200F80EA0EC10F012000EC001F039
:101A3800026A000E046E060E036E15EC0EF00250DC
:101A4800000AD8A412000150000AD8B4D7D7010A56
:101A5800D8B4D8D7030AD8B4D9D7010AD8B4DAD7B2
:101A6800070AD8B4DBD7010AD8A41200DBD79582BD
:101A78008C968C94000E026E640E016EC7EC10F00A
:101A88008C86000E056E030E026EE80E016EC7EC22
:101A980010F0052A83A002D0410E056E400E0564A1
:101AA800F2D783A033D0000E066E000E086E000E2B
:101AB800076E83A203D008500109086E0850082455
:101AC800086E000E026E640E016EC7EC10F08C8476
:101AD800010E026EF40E016EC7EC10F08C94010E2C
:101AE800026E900E016EC7EC10F0072A070E07640D
:101AF800E0D706500324D96E000E0420DA6E08C021
:101B0800DFFF062A83B0D1D706501200000E12005C
:101B180000016605D8A414D0CA0E676511D0D10E8D
:101B280067610ED0700E686504D0790E686101D0C7
:101B38008B84780E686504D07F0E686101D08B9421
:101B48006605D8A414D0D60E676511D0DD0E67617E
:101B58000ED0700E686504D0790E686101D08B8252
:101B6800780E686504D07F0E686101D08B92660597
:101B7800D8A4CED7E20E6765CBD7E90E6761C8D780
:101B8800700E686504D0790E686101D08F80780E78
:101B98006865BED77F0E6861BBD78F90B9D7000E36
:101BA800066E04AE06D0036C041ED8B0042A010EDB
:101BB800066E02AE06D0016C021ED8B0022A010ED3
:101BC800061A000E086E000E076E03500410D8B4F3
:101BD8001CD0010E056E04D0D89003360436052AB1
:101BE80004AEFAD7D890073608360350015C045083
:101BF8000258D8A005D00350015E0450025A07804D
:101C0800D89004320332052EEDD70650D8B404D04C
:101C1800076C081ED8B0082A07C001F008C002F0F7
:101C28001200000E066E02AE06D0016C021ED8B07D
:101C3800022A010E066E04AE04D0036C041ED8B04E
:101C4800042A03500410D8B418D0010E056E04D02D
:101C5800D89003360436052A04AEFAD70350015C3F
:101C680004500258D8A004D00350015E0450025A10
:101C7800D89004320332052EF1D70650D8B404D0D8
:101C8800016C021ED8B0022A01C001F002C002F0A5
:101C98001200086E08380F0B096E090E096403D08C
:101CA8000950170F02D00950100F096E01D000F02B
:101CB800C00E056E095072EC0FF00009D8B4F7D7C2
:101CC80008500F0B096E090E096403D00950170F4D
:101CD80002D00950100F096E01D000F0C00E056E39
:101CE800095072EC0FF00009D8A41200F6D70C6E58
:101CF8007B0E0E6E000E0D6E0F0E0C6402D0000EE1
:101D08000C6E270E096402D0000E096E0C50280DC7
:101D1800F3CF0AF0F4CF0BF009500A26000E0B227D
:101D28000D500A240D6E0E500B200E6E01D000F0DF
:101D38000E50056E240E066E0D5024EC0FF00009AF
:101D4800D8A41200F4D713D000F0C00E056E08C056
:101D5800F6FF09C0F7FF000EF86E0800F550E00F17
:101D680072EC0FF00009D8B4EFD7084A092A08C066
:101D7800F6FF09C0F7FF000EF86E0800F5500009DD
:101D8800D8B4120008C0F6FF09C0F7FF000EF86EBD
:101D98000800F5500009D8B41200D7D7000E066E17
:101DA800000E056E03500410D8B41CD0010E076E47
:101DB80004D0D89003360436072A04AEFAD7D89050
:101DC800053606360350015C04500258D8A005D0E9
:101DD8000350015E0450025A0580D8900432033241
:101DE800072EEDD705C001F006C002F01200000E64
:101DF800026E020E1ED0996891809196919200F021
:101E080087CF03F0918291860350030B036E030E74
:101E18000318D8B40DD0022A0C0E72EC10F0F90E8B
:101E2800026408D0F29E8B948B828F80000E01D0C2
:101E3800010E046E020E0418D8B4DDD70450120047
:101E4800076E000E086EFBEC0EF0E806D8A41ED054
:101E58000C0E72EC10F00750ADEC10F0FBEC0EF02D
:101E6800E806D8A413D00C0E72EC10F00550ADECB7
:101E780010F0FBEC0EF0E806D8A408D00C0E72ECBB
:101E880010F00650BAEC10F0010E086E085012005F
:101E9800126E12C013F00BD00FC009F01350E4EC0F
:101EA8000CF011C009F01350E4EC0CF0132A135095
:101EB800105CD8B0F1D70FC014F00BD014C009F0E3
:101EC8001250E4EC0CF014C009F01050E4EC0CF0E3
:101ED800142A1450115CD8A01200F0D7066E000E18
:101EE800076EFBEC0EF0E806D8A413D00C0E72ECCB
:101EF80010F00650ADEC10F0FBEC0EF0E806D8A49C
:101F080008D00C0E72EC10F00550BAEC10F0010E6F
:101F1800076E07501200A00E0F01266F000E256FE6
:101F2800000E246F000E236F2581258325852587C4
:101F3800248524878B848B828F80949494929890A4
:101F48009896989895949596F19E538D1200026EE6
:101F5800000EC16E160EC06E02501F0B026E0244B8
:101F6800E846FC0B026E02500109C26EC282C2B280
:101F7800FED7C3A003D0000E016E02D0C4CF01F07B
:101F880001501200086E200E086002D03F0E086E45
:101F98009F0E086402D03F0E086E0850E00F086ECE
:101FA80001D000F0C00E056E085072EC0FF0000969
:101FB800D8A41200F6D7000E056E240E066E000E89
:101FC80024EC0FF0000E0A6E000E096EC00E056EAE
:101FD800000E72EC0FF0094A0A2A800E0A1809103E
:101FE800D8B41200F3D7800E056E240E066E000ECC
:101FF80024EC0FF0800E0A6E000E096EC00E056EFE
:10200800000E72EC0FF0094A0A2AF80E0A18091095
:10201800D8B41200F3D7126E0FC014F00ED012C04D
:1020280013F006D014C009F01350E4EC0CF0132A96
:102038001350105CD8B0F6D7142A1450115CD8A0ED
:102048001200EDD7996891809196919200F000F076
:1020580000F087CF01F0918291860150030B030AAB
:10206800D8A402D0010E01D0000E016E015012005A
:10207800750E036E000E046E3BEC0DF0096E0950F0
:10208800D8B406D00A0E096003D009C07FF0F0D793
:10209800000E00017F6FECD706D0010E386E0BD012
:1020A800010E376E08D0FF0EE350010AD8B4F5D7F9
:1020B800030AD8B4F5D7E5521200949C948E080E02
:1020C800656E040ED46EE10EAF6E040EAC6E800E1B
:1020D800AB6E240EAC6E900EAB6E1200016E0BD080
:1020E80000F000F000F000F000F000F000F000F068
:1020F80000F000F001060150D8B41200F1D70F6EBD
:10210800000E106E10C009F00F507BEC0EF0200E80
:10211800C6EC0FF0102A270E1064F4D712008FECCB
:102128000FF00EEC0AF0010EE66E50EC10F0D58EB2
:10213800F284F28E00F0FED7056EFBEC0EF0E80696
:10214800D8A412000C0E72EC10F00550BAEC10F086
:102158001200016E01C090FF000E996E9190919649
:10216800919400F000F0918491861200016E01C0F4
:1021780090FF000E996E91809196919400F000F076
:1021880091849186120006D000F000F000F001065C
:10219800D8A0020601500210D8B41200F5D706D014
:1021A80000F000F000F00106D8A00206015002106D
:1021B800D8B41200F5D7386A376A366A356A346A8D
:0621C800000193EF10F08E
:020000040020DA
:08000000FFFFFFFFFFFFFFFF00
:020000040030CA
:0E00000015136100308081FFFFC0FFE0FF405C
:00000001FF
