:040000009EEF01F07E
:10000800E9CF15F0EACF16F0E1CF17F0E2CF18F0FC
:10001800D9CF19F0DACF1AF0F3CF1BF0F4CF1CF0D8
:10002800F6CF1DF0F7CF1EF0F8CF1FF0F5CF20F078
:100038001AEEACF0D8CF61F00001606FE0CF62F04B
:10004800EACF63F0E9CF64F0F2BAF2A443D16505D0
:10005800D8A404D01B0EFC6E000E656F6FC0EAFFBB
:10006800000EE96E60C0EEFF61C0EEFF62C0EEFFF9
:10007800FCCFEEFF63C0EEFF64C0EEFFE2CFEEFF01
:10008800E1CFEEFFDACFEEFFD9CFEEFFF4CFEEFFF0
:10009800F3CFEEFFF8CFEEFFF7CFEEFFF6CFEEFF90
:1000A800F5CFEEFFFBCFEEFFFACFEEFF000EE26ECC
:1000B800000EE16EE6CFEEFFE6CFEEFFE6CFEEFFF5
:1000C800E6CFEEFFE6CFEEFFE6CFEEFFE6CFEEFFA0
:1000D800E6CFEEFFE6CFEEFFE6CFEEFFE6CFEEFF90
:1000E800E6CFEEFFE6CFEEFFE6CFEEFFE6CFEEFF80
:1000F800E6CFEEFFE6CFEEFFE6CFEEFFE6CFEEFF70
:10010800E6CFEEFFE6CFEEFFE6CFEEFFE6CFEEFF5F
:10011800E6CFEEFFE6CFEEFFE6CFEEFFE6CFEEFF4F
:10012800E6CFEEFFE6CFEEFFE6CFEEFFE6CFEEFF3F
:10013800E6CFEEFFE6CFEEFFE6CFEEFFE6CFEEFF2F
:10014800E6CFEEFFE6CFEEFFE6CFEEFFE6CFEEFF1F
:10015800E6CFEEFFE6CFEEFFE6CFEEFFE6CFEEFF0F
:10016800E6CFEEFFE6CFEEFFE6CFEEFFE6CFEEFFFF
:10017800E6CFEEFF8A0ED76ECF0ED66EF294714B95
:10018800722B702B060E7019D8A402D0000E706F57
:10019800690E7025D96EDA6A000EDA22DF506F6FA9
:1001A800000EE26E000EE16E6FC0EAFF120EE96EFD
:1001B800EECFE6FFEECFE6FFEECFE6FFEECFE6FFAF
:1001C800EECFE6FFEECFE6FFEECFE6FFEECFE6FF9F
:1001D800EECFE6FFEECFE6FFEECFE6FFEECFE6FF8F
:1001E800EECFE6FFEECFE6FFEECFE6FFEECFE6FF7F
:1001F800EECFE6FFEECFE6FFEECFE6FFEECFE6FF6F
:10020800EECFE6FFEECFE6FFEECFE6FFEECFE6FF5E
:10021800EECFE6FFEECFE6FFEECFE6FFEECFE6FF4E
:10022800EECFE6FFEECFE6FFEECFE6FFEECFE6FF3E
:10023800EECFE6FFEECFE6FFEECFE6FFEECFE6FF2E
:10024800EECFE6FFEECFE6FFEECFE6FFEECFE6FF1E
:10025800EECFE6FFEECFE6FFEECFE6FFEECFE6FF0E
:10026800EECFE6FFEECFE6FFEECFE6FFEECFE6FFFE
:100278006FC0EAFF000EE96EEECF60F0EECF61F0DE
:10028800EECF62F0EECFFCFFEECF63F0EECF64F07E
:10029800EECFE2FFEECFE1FFEECFDAFFEECFD9FFF0
:1002A800EECFF4FFEECFF3FFEECFF8FFEECFF7FF80
:1002B800EECFF6FFEECFF5FFEECFFBFFEECFFAFF66
:1002C80064C0E9FF63C0EAFF62C0E0FF605161C03B
:1002D800D8FF100064C0E9FF63C0EAFF62C0E0FF16
:1002E8000001605161C0D8FF10006DEC08F057ECB8
:1002F8000BF044EC0CF0B3EC0CF0D1EC0BF030EC60
:1003080010F020C0F5FF1FC0F8FF1EC0F7FF1DC08A
:10031800F6FF1CC0F4FF1BC0F3FF1AC0DAFF19C0B8
:10032800D9FF18C0E2FF17C0E1FF16C0EAFF15C0E9
:0C033800E9FF110016EE42F0E5EF11F0B5
:1010000000415454454E54494F4E20766F7573201D
:101010006574657320706C65696E21212100204123
:101020005543554E20202020202020202020202005
:10103000202000524F5545534259474E4F4C45537F
:101040000054656D702E204875696C653A00582D06
:101050004A6F79737469636B3A00592D4A6F7973DB
:101060007469636B3A0054656D702E204561753A62
:101070000042617474657269653A005669746573FB
:1010800073653A004F70657261746F72004D6172E2
:101090006368653A0042616467653A005369656751
:1010A000653A00434841524745002041444D494E6E
:1010B0000028282129290043686F633A00415543DD
:1010C000554E00564944450020793D004E20007899
:0910D0003D0041520041560000B0
:1010DA00F29E1AEC0DF0F8EC10F010EC11F04FEC57
:1010EA0011F0020EE66E3EEC11F0010E0001806F67
:1010FA00520EAD6EF28E8B948B928F90000E736FA0
:10110A000F0E746F000E7F6F000E816F000E826FDC
:10111A00220E096E0D0E64EC0FF0520EDFEC10F089
:10112A00200EDFEC10F0560EDFEC10F0200EDFEC94
:10113A0010F0420EDFEC10F0220E096E0E0E64EC77
:10114A000FF0300EDFEC10F0200EDFEC10F0300E56
:10115A00DFEC10F0200EDFEC10F0300EDFEC10F0B8
:10116A00220E096E0F0E64EC0FF0310EDFEC10F058
:10117A00200EDFEC10F0310EDFEC10F0200EDFEC69
:10118A0010F0310EDFEC10F0000E0001666F140E45
:10119A000F6EE60E106E3C0E116EB40E0AEC10F0D5
:1011AA00140E0F6EAA0E106E3C0E116E780E0AEC1B
:1011BA0010F0020E086E000E096E76EC0EF0000EAC
:1011CA00096E000E64EC0FF08D0E086E100E096E9B
:1011DA0076EC0EF081B007D0D50E086E100E096EAF
:1011EA0076EC0EF00FD081B207D0D20E086E100E38
:1011FA00096E76EC0EF006D0CC0E086E100E096E53
:10120A0076EC0EF0000E096E070E64EC0FF084B84F
:10121A0007D0B10E086E100E096E76EC0EF006D0ED
:10122A002D0E086E100E096E76EC0EF0000E096E89
:10123A00010E64EC0FF09C0E086E100E096E76EC2F
:10124A000EF081B404D0310EDFEC10F003D0300E72
:10125A00DFEC10F0000E096E020E64EC0FF0660E61
:10126A00086E100E096E76EC0EF0020EC4EC10F049
:10127A0028EC0EF0000E096E030E64EC0FF0410E1E
:10128A00086E100E096E76EC0EF0030EC4EC10F028
:10129A0028EC0EF0000E096E040E64EC0FF0B70E87
:1012AA00086E100E096E76EC0EF081B604D0310E7F
:1012BA00DFEC10F003D0300EDFEC10F0020E00016C
:1012CA008219D8A403D0A9EC10F004D08205D8B4AE
:1012DA008EEC10F0000E096E050E64EC0FF07B0E1A
:1012EA00086E100E096E76EC0EF00001735128ECB0
:1012FA000EF0000E096E060E64EC0FF0710E086E09
:10130A00100E096E76EC0EF084B405D0640E00015E
:10131A00746101D0742B84B604D000017451D8A42E
:10132A0074070001745128EC0EF0000E096E080EC5
:10133A0064EC0FF0950E086E100E096E76EC0EF046
:10134A0000017F51D8A407D01E0E086E100E096E38
:10135A0076EC0EF01ED0020E8219D8A407D0840EA5
:10136A00086E100E096E76EC0EF013D08205D8A422
:10137A0007D0AA0E086E100E096E76EC0EF009D090
:10138A008251D8A406D0BD0E086E100E096E76ECF6
:10139A000EF0000E096E090E64EC0FF04E0E086E88
:1013AA00100E096E76EC0EF00A0EC4EC10F036EC54
:1013BA000FF0000E096E0A0E64EC0FF05A0E086E5A
:1013CA00100E096E76EC0EF00B0EC4EC10F036EC33
:1013DA000FF0160E096E050E64EC0FF0C30E086EC0
:1013EA00100E096E76EC0EF01F0E096E050E64ECF7
:1013FA000FF0A30E086E100E096E76EC0EF00001C7
:10140A006605D8A420D0140E096E000E64EC0FF005
:10141A00CF0E086E100E096E76EC0EF000016751C1
:10142A0036EC0FF0C80E086E100E096E76EC0EF050
:10143A000001685136EC0FF068C009F000016751ED
:10144A0080EC0DF001D000F000018105D8B4D9EC90
:10145A0011F000018151D8A4B2D60E0E71EC11F030
:10146A00CDEC11F0030E0001816FA9D6010E000127
:10147A00656F010E696F020E6A6F030E6B6F040EC1
:10148A006C6F050E6D6F060E6E6F050E706F690E2E
:10149A007025D96EDA6A000EDA22DF506F6FFCCF40
:1014AA0021F0020EFC6EDA0E2E6E100E2F6E000E5A
:1014BA00306E2EC033F02FC034F0330E316E000E72
:1014CA00326E31C0D9FF32C0DAFFDF50FD6E314AC9
:1014DA00322A31C0D9FF32C0DAFFDF50FE6E314AFC
:1014EA00322A31C0D9FF32C0DAFFDF50FF6E070E51
:1014FA00FC6EAE0E2E6E160E2F6E000E306E2EC0C5
:10150A0033F02FC034F0330E316E000E326E31C01C
:10151A00D9FF32C0DAFFDF50FD6E314A322A31C0BC
:10152A00D9FF32C0DAFFDF50FE6E314A322A31C0AB
:10153A00D9FF32C0DAFFDF50FF6E0C0EFC6E880E48
:10154A002E6E180E2F6E000E306E2EC033F02FC086
:10155A0034F0330E316E000E326E31C0D9FF32C014
:10156A00DAFFDF50FD6E314A322A31C0D9FF32C06C
:10157A00DAFFDF50FE6E314A322A31C0D9FF32C05B
:10158A00DAFFDF50FF6E110EFC6E660E2E6E190E1C
:10159A002F6E000E306E2EC033F02FC034F0330E93
:1015AA00316E000E326E31C0D9FF32C0DAFFDF5021
:1015BA00FD6E314A322A31C0D9FF32C0DAFFDF501C
:1015CA00FE6E314A322A31C0D9FF32C0DAFFDF500B
:1015DA00FF6E160EFC6EA20E2E6E170E2F6E000EEA
:1015EA00306E2EC033F02FC034F0330E316E000E41
:1015FA00326E31C0D9FF32C0DAFFDF50FD6E314A98
:10160A00322A31C0D9FF32C0DAFFDF50FE6E314ACA
:10161A00322A31C0D9FF32C0DAFFDF50FF6E1B0E0B
:10162A00FC6E600E2E6E200E2F6E000E306E2EC0D7
:10163A0033F02FC034F0330E316E000E326E31C0EB
:10164A00D9FF32C0DAFFDF50FD6E314A322A31C08B
:10165A00D9FF32C0DAFFDF50FE6E314A322A31C07A
:10166A00D9FF32C0DAFFDF50FF6E21C0FCFF020E45
:10167A000101036F070E0201036F0C0E0301036FD2
:10168A00110E0401036F160E0501036F1B0E0601EE
:10169A00036F000E0001726F000E716F010ED56E9E
:1016AA00F28A1200000E0001666F8F868F980B0E69
:1016BA00026EB80E016EC1EC11F0160EC06E010E6C
:1016CA00C26E030EC26EC2B2FED7C4CF0EF0C3CF33
:1016DA000FF00FC008F00F0E0816D8B404D0000E91
:1016EA000E6E000E0F6E090E0E64DCD78F968F8871
:1016FA000B0E026EB80E016EC1EC11F0160EC06E22
:10170A00050EC26E070EC26EC2B2FED7C4CF10F06B
:10171A00C3CF11F011C008F00F0E0816D8B404D0C8
:10172A00000E106E000E116E130E1064BBD70E5011
:10173A00086E0F500A6E08C00BF01050086E115058
:10174A000C6E08C00DF0B20E0A240A6EF30E0B20BE
:10175A000B6E9C0E0C240C6EE60E0D200D6E0AC04C
:10176A0001F00BC002F0000E046EF60E036E90EC50
:10177A000FF001500001676F0CC001F00DC002F0BC
:10178A00010E046E990E036E90EC0FF001507F0863
:10179A000001686F010E88D79EA8FED7740EAD6E41
:1017AA00ACA2FED79EA8FED7610EAD6EACA2FED744
:1017BA009EA8FED7630EAD6EACA2FED79EA8FED73A
:1017CA00680EAD6EACA2FED79EA8FED7650EAD6EB2
:1017DA00ACA2FED79EA8FED7350EAD6EACA2FED740
:1017EA009EA8FED75F0EAD6EACA2FED79EA8FED70E
:1017FA00650EAD6EACA2FED79EA8FED76E0EAD6E7C
:10180A00ACA2FED79EA8FED75F0EAD6EACA2FED7E5
:10181A009EA8FED7630EAD6EACA2FED79EA8FED7D9
:10182A006F0EAD6EACA2FED79EA8FED7750EAD6E3A
:10183A00ACA2FED79EA8FED7720EAD6EACA2FED7A2
:10184A009EA8FED7730EAD6EACA2FED7000E026E36
:10185A00000E016E014A022AE80E015CFD0E0258D2
:10186A00D8A0F8D7000E026E000E016E014A022AB5
:10187A00E80E015CFD0E0258D8B08ED7F7D70001EA
:10188A006605D8A414D0CA0E676511D0D10E676157
:10189A000ED0700E686504D0790E686101D08B8411
:1018AA00780E686504D07F0E686101D08B94660556
:1018BA00D8A414D0D60E676511D0DD0E67610ED09C
:1018CA00700E686504D0790E686101D08B82780E3B
:1018DA00686504D07F0E686101D08B926605D8A432
:1018EA0014D0E20E676511D0E90E67610ED0700E52
:1018FA00686504D0790E686101D08F80780E6865BA
:10190A0004D07F0E686101D08F906605D8A411D0EB
:10191A00B30E67650ED0E60E67610BD0130E6865CD
:10192A0008D03C0E686105D08B948B828F80010EA3
:10193A00816F6605D8A4A3D7770E6765A0D7AA0ECC
:10194A0067619DD7130E68659AD73C0E686197D771
:10195A008B948B928F90000E816F91D79EA8FED7A1
:10196A00540EAD6EACA2FED79EA8FED7410EAD6E48
:10197A00ACA2FED79EA8FED7430EAD6EACA2FED790
:10198A009EA8FED7480EAD6EACA2FED79EA8FED783
:10199A00450EAD6EACA2FED79EA8FED7340EAD6E34
:1019AA00ACA2FED79EA8FED75F0EAD6EACA2FED744
:1019BA009EA8FED7450EAD6EACA2FED79EA8FED756
:1019CA004E0EAD6EACA2FED79EA8FED75F0EAD6ED0
:1019DA00ACA2FED79EA8FED7430EAD6EACA2FED730
:1019EA009EA8FED74F0EAD6EACA2FED79EA8FED71C
:1019FA00550EAD6EACA2FED79EA8FED7520EAD6EA6
:101A0A00ACA2FED79EA8FED7530EAD6EACA2FED7EF
:101A1A00000E026E000E016E014A022AE80E015CF7
:101A2A00FD0E0258D8B09AD7F7D7000E096E000EED
:101A3A00906E1F0E916E000E996E000E9A6E919A1C
:101A4A00918C9198040E60EC11F091880C0E60EC68
:101A5A0011F00CD0092A0C0E60EC11F0C80E0964C2
:101A6A0005D08B828F808B94F29EFFD728EC11F0E1
:101A7A000009D8B4EFD70F0E056E210E066E270E99
:101A8A00E2EC0FF0000E056E220E066E000EE2EC7E
:101A9A000FF0000E056E240E066E000EE2EC0FF03B
:101AAA007B0E056E400E066E000EE2EC0FF0000E85
:101ABA00056E410E066E280EE2EC0FF0800E056EE2
:101ACA00420E066E000EE2EC0FF0000E056E430E9B
:101ADA00066E280EE2EC0FF0800E8EEC11F09C0ED2
:101AEA008EEC11F0A00E8EEC11F0700E056E020E47
:101AFA0055EC10F012000E6E0EC001F0026A000ED4
:101B0A00046E060E036EBCEC0EF00950280DF3CFDE
:101B1A000AF0F4CF0BF001500A240C6E02500B208D
:101B2A000D6E0D50056E240E066E0C50E2EC0FF091
:101B3A0018D0FD0E8EEC11F01200FC0E8EEC11F096
:101B4A001200FB0E8EEC11F01200FA0E8EEC11F060
:101B5A001200F90E8EEC11F01200F80E8EEC11F054
:101B6A0012000EC001F0026A000E046E060E036E29
:101B7A00FEEC0EF00250000AD8A412000150000A2E
:101B8A00D8B4D7D7010AD8B4D8D7030AD8B4D9D782
:101B9A00010AD8B4DAD7070AD8B4DBD7010AD8A41D
:101BAA001200DBD795828C968C94000E026E640E1E
:101BBA00016EB5EC11F08C86000E056E030E026EF6
:101BCA00E80E016EB5EC11F0052A83A002D0410E91
:101BDA00056E400E0564F2D783A033D0000E066E60
:101BEA00000E086E000E076E83A203D0085001098A
:101BFA00086E08500824086E000E026E640E016E0C
:101C0A00B5EC11F08C84010E026EF40E016EB5EC87
:101C1A0011F08C94010E026E900E016EB5EC11F06B
:101C2A00072A070E0764E0D706500324D96E000E70
:101C3A000420DA6E08C0DFFF062A83B0D1D7065027
:101C4A001200000E12000B6E0BC001F0026A000EA9
:101C5A00046E640E036EBCEC0EF001500C6E0C5058
:101C6A009C0DF3500B240D6E0DC001F0026A000E9C
:101C7A00046E0A0E036EBCEC0EF001500D6E0C5091
:101C8A009C0DF3CF09F00D50F60DF35009240B24E7
:101C9A000A6E0C50100F0E6E01D000F0C00E056EC9
:101CAA000E5055EC10F00009D8B4F7D70D50100FAC
:101CBA000E6E01D000F0C00E056E0E5055EC10F0FD
:101CCA000009D8B4F7D70A50100F0E6E01D000F0F1
:101CDA00C00E056E0E5055EC10F00009D8A4120083
:101CEA00F6D71CD000F0C00E056E08C0F6FF09C07A
:101CFA00F7FF000EF86E0F0EF76403D00800F550D8
:101D0A0005D0F6CFE9FFF7CFEAFFEF50E00F55EC29
:101D1A0010F00009D8B4E6D7084A092A08C0F6FF25
:101D2A0009C0F7FF000EF86E0F0EF76403D0080023
:101D3A00F55005D0F6CFE9FFF7CFEAFFEF500009DB
:101D4A00D8B4120008C0F6FF09C0F7FF000EF86EFB
:101D5A000F0EF76403D00800F55005D0F6CFE9FF5F
:101D6A00F7CFEAFFEF500009D8B41200BCD7000E33
:101D7A00066E04AE06D0036C041ED8B0042A010E07
:101D8A00066E02AE06D0016C021ED8B0022A010EFF
:101D9A00061A000E086E000E076E03500410D8B41F
:101DAA001CD0010E056E04D0D89003360436052ADD
:101DBA0004AEFAD7D890073608360350015C0450AF
:101DCA000258D8A005D00350015E0450025A078079
:101DDA00D89004320332052EEDD70650D8B404D079
:101DEA00076C081ED8B0082A07C001F008C002F024
:101DFA001200000E066E02AE06D0016C021ED8B0AA
:101E0A00022A010E066E04AE04D0036C041ED8B07A
:101E1A00042A03500410D8B418D0010E056E04D059
:101E2A00D89003360436052A04AEFAD70350015C6B
:101E3A0004500258D8A004D00350015E0450025A3C
:101E4A00D89004320332052EF1D70650D8B404D004
:101E5A00016C021ED8B0022A01C001F002C002F0D1
:101E6A001200086E08380F0B096E090E096403D0B8
:101E7A000950170F02D00950100F096E01D000F057
:101E8A00C00E056E095055EC10F00009D8B4F7D70A
:101E9A0008500F0B096E090E096403D00950170F79
:101EAA0002D00950100F096E01D000F0C00E056E65
:101EBA00095055EC10F00009D8A41200F6D70C6EA0
:101ECA007B0E0E6E000E0D6E0F0E0C6402D0000E0D
:101EDA000C6E270E096402D0000E096E0C50280DF4
:101EEA00F3CF0AF0F4CF0BF009500A26000E0B22AA
:101EFA000D500A240D6E0E500B200E6E01D000F00C
:101F0A000E50056E240E066E0D50E2EC0FF000091D
:101F1A00D8A41200F4D7000E066E000E056E035008
:101F2A000410D8B41CD0010E076E04D0D890033622
:101F3A000436072A04AEFAD7D89005360636035077
:101F4A00015C04500258D8A005D00350015E045029
:101F5A00025A0580D89004320332072EEDD705C005
:101F6A0001F006C002F01200000E026E020E1ED030
:101F7A00996891809196919200F087CF03F09182AF
:101F8A0091860350030B036E030E0318D8B40DD0C9
:101F9A00022A0C0E60EC11F0F90E026408D0F29ECF
:101FAA008B948B828F80000E01D0010E046E020E7C
:101FBA000418D8B4DDD704501200076E000E086E5C
:101FCA00B9EC0FF0E806D8A41ED00C0E60EC11F0A4
:101FDA0007509BEC11F0B9EC0FF0E806D8A413D027
:101FEA000C0E60EC11F005509BEC11F0B9EC0FF0FF
:101FFA00E806D8A408D00C0E60EC11F00650A8EC44
:10200A0011F0010E086E08501200126E12C013F081
:10201A000BD00FC009F0135080EC0DF011C009F07D
:10202A00135080EC0DF0132A1350105CD8B0F1D77E
:10203A000FC014F00BD014C009F0125080EC0DF050
:10204A0014C009F0105080EC0DF0142A1450115CE1
:10205A00D8A01200F0D7750E036E000E046ED7ECEE
:10206A000DF0096E0950D8B415D0040E0918D8A479
:10207A0004D009C07FF0020E07D0080E0918D8A4B0
:10208A0005D009C07FF0010E000108D0000E000142
:10209A007F6FE1D7000E00017F6F000E826FDBD7E2
:1020AA00066E000E076EB9EC0FF0E806D8A413D03E
:1020BA000C0E60EC11F006509BEC11F0B9EC0FF02D
:1020CA00E806D8A408D00C0E60EC11F00550A8EC74
:1020DA0011F0010E076E07501200A00E0F01266FB5
:1020EA00000E256F000E246F000E236F25812583B5
:1020FA0025852587248524878B848B828F809494D9
:10210A00949298909896989895949596F19E538D56
:10211A00120081A002D081B2120084A8120000012C
:10212A008105D8A40DD084B004D0320E736101D0D9
:10213A00732B84B212007351D8B4120073071200C1
:10214A0084B0F7D7500EF2D781A002D081B2120024
:10215A0084A8120000018105D8A40DD084B004D04F
:10216A000F0E736101D0732B84B212007351D8B46D
:10217A0012007307120084B0F7D7190EF2D7026E55
:10218A00000EC16E160EC06E02501F0B026E024484
:10219A00E846FC0B026E02500109C26EC282C2B24C
:1021AA00FED7C3A003D0000E016E02D0C4CF01F047
:1021BA0001501200086E200E086002D03F0E086E11
:1021CA009F0E086402D03F0E086E0850E00F086E9A
:1021DA0001D000F0C00E056E085055EC10F0000951
:1021EA00D8A41200F6D7000E056E240E066E000E55
:1021FA00E2EC0FF0000E0A6E000E096EC00E056EBC
:10220A00000E55EC10F0094A0A2A800E0A18091025
:10221A00D8B41200F3D7800E056E240E066E000E97
:10222A00E2EC0FF0800E0A6E000E096EC00E056E0B
:10223A00000E55EC10F0094A0A2AF80E0A1809107D
:10224A00D8B41200F3D7996891809196919200F0D0
:10225A0000F000F087CF01F0918291860150030BC4
:10226A00030AD8A402D0010E01D0000E016E01505B
:10227A00120006D0010E396E0BD0010E386E08D04E
:10228A00FF0EE350010AD8B4F5D7030AD8B4F5D73C
:10229A00E5521200949C948E080E656E040ED46E5C
:1022AA00E10EAF6E040EAC6E800EAB6E240EAC6EF9
:1022BA00900EAB6E1200016E0BD000F000F000F031
:1022CA0000F000F000F000F000F000F000F001066D
:1022DA000150D8B41200F1D70F6E000E106E10C064
:1022EA0009F00F5064EC0FF0200EDFEC10F0102A0A
:1022FA00270E1064F4D7120072EC10F03BEC0AF0CF
:10230A00010EE66E3EEC11F0D58EF284F28E00F0EC
:10231A00FED7056EB9EC0FF0E806D8A412000C0E31
:10232A0060EC11F00550A8EC11F01200016E01C02A
:10233A0090FF000E996E91909196919400F000F0A2
:10234A00918491861200016E01C090FF000E996E71
:10235A0091809196919400F000F0918491861200F8
:10236A0006D000F000F000F00106D8A002060150E5
:10237A000210D8B41200F5D706D000F000F000F031
:10238A000106D8A0020601500210D8B41200F5D7EF
:10239A00000E096E0E0E64EC0FF0330E086E100E6E
:1023AA00096E76EC0EF01200000E096E0E0E64EC49
:1023BA000FF0010E086E100E096E76EC0EF0120088
:1023CA00396A386A376A366A356A000181EF11F06C
:020000040020DA
:08000000FFFFFFFFFFFFFFFF00
:020000040030CA
:0E00000015136100308081FFFFC0FFE0FF405C
:00000001FF
