:0400000096EF01F086
:10000800E1CF12F0E2CF13F0D9CF14F0DACF15F028
:10001800F3CF16F0F4CF17F0F6CF18F0F7CF19F0AA
:10002800F8CF1AF0F5CF1BF01AEEACF0D8CF61F08C
:100038000001606FE0CF62F0EACF63F0E9CF64F0CF
:10004800F2BAF2A443D16505D8A404D01B0EFC6E05
:10005800000E656F6FC0EAFF000EE96E60C0EEFF2C
:1000680061C0EEFF62C0EEFFFCCFEEFF63C0EEFFA3
:1000780064C0EEFFE2CFEEFFE1CFEEFFDACFEEFF96
:10008800D9CFEEFFF4CFEEFFF3CFEEFFF8CFEEFFC0
:10009800F7CFEEFFF6CFEEFFF5CFEEFFFBCFEEFF8B
:1000A800FACFEEFF000EE26E000EE16EE6CFEEFF35
:1000B800E6CFEEFFE6CFEEFFE6CFEEFFE6CFEEFFB0
:1000C800E6CFEEFFE6CFEEFFE6CFEEFFE6CFEEFFA0
:1000D800E6CFEEFFE6CFEEFFE6CFEEFFE6CFEEFF90
:1000E800E6CFEEFFE6CFEEFFE6CFEEFFE6CFEEFF80
:1000F800E6CFEEFFE6CFEEFFE6CFEEFFE6CFEEFF70
:10010800E6CFEEFFE6CFEEFFE6CFEEFFE6CFEEFF5F
:10011800E6CFEEFFE6CFEEFFE6CFEEFFE6CFEEFF4F
:10012800E6CFEEFFE6CFEEFFE6CFEEFFE6CFEEFF3F
:10013800E6CFEEFFE6CFEEFFE6CFEEFFE6CFEEFF2F
:10014800E6CFEEFFE6CFEEFFE6CFEEFFE6CFEEFF1F
:10015800E6CFEEFFE6CFEEFFE6CFEEFFE6CFEEFF0F
:10016800E6CFEEFFE6CFEEFFE6CFEEFF8A0ED76EC4
:10017800CF0ED66EF294714B722B702B060E70193F
:10018800D8A402D0000E706F690E7025D96EDA6A95
:10019800000EDA22DF506F6F000EE26E000EE16E85
:1001A8006FC0EAFF120EE96EEECFE6FFEECFE6FF74
:1001B800EECFE6FFEECFE6FFEECFE6FFEECFE6FFAF
:1001C800EECFE6FFEECFE6FFEECFE6FFEECFE6FF9F
:1001D800EECFE6FFEECFE6FFEECFE6FFEECFE6FF8F
:1001E800EECFE6FFEECFE6FFEECFE6FFEECFE6FF7F
:1001F800EECFE6FFEECFE6FFEECFE6FFEECFE6FF6F
:10020800EECFE6FFEECFE6FFEECFE6FFEECFE6FF5E
:10021800EECFE6FFEECFE6FFEECFE6FFEECFE6FF4E
:10022800EECFE6FFEECFE6FFEECFE6FFEECFE6FF3E
:10023800EECFE6FFEECFE6FFEECFE6FFEECFE6FF2E
:10024800EECFE6FFEECFE6FFEECFE6FFEECFE6FF1E
:10025800EECFE6FFEECFE6FFEECFE6FFEECFE6FF0E
:10026800EECFE6FFEECFE6FF6FC0EAFF000EE96EC5
:10027800EECF60F0EECF61F0EECF62F0EECFFCFF94
:10028800EECF63F0EECF64F0EECFE2FFEECFE1FF0A
:10029800EECFDAFFEECFD9FFEECFF4FFEECFF3FFCC
:1002A800EECFF8FFEECFF7FFEECFF6FFEECFF5FF7C
:1002B800EECFFBFFEECFFAFF64C0E9FF63C0EAFFB1
:1002C80062C0E0FF605161C0D8FF100064C0E9FF60
:1002D80063C0EAFF62C0E0FF0001605161C0D8FF5F
:1002E80010004AEC08F0E7EC0AF049EC0DF0D4EC09
:1002F8000BF061EC0BF0BCEC0FF01BC0F5FF1AC063
:10030800F8FF19C0F7FF18C0F6FF17C0F4FF16C0B2
:10031800F3FF15C0DAFF14C0D9FF13C0E2FF12C003
:0C032800E1FF110016EE42F04FEF10F064
:101000000020415543554E20202020202020202024
:1010100020202020200054656D702E204875696CBA
:10102000653A00582D4A6F79737469636B3A0059B9
:101030002D4A6F79737469636B3A0054656D702E35
:10104000204561753A0042617474657269653A00C1
:10105000566974657373653A004D61726368653AE9
:1010600000424947204D554D0042616467653A0092
:1010700053696567653A0028282129290043686F6C
:10108000633A0020793D004E2000783D0041520037
:1010900041560000F29E3BEC0CF076EC0FF08EEC2B
:1010A0000FF0E1EC0FF0020EE66ED0EC0FF0010E47
:1010B0000001806F520EAD6EF28E8B948B928F90EA
:1010C000000E736F0F0E746F000E7F6F220E096E8D
:1010D0000D0E38EC0EF0520E5DEC0FF0200E5DECB4
:1010E0000FF0560E5DEC0FF0200E5DEC0FF0420E8F
:1010F0005DEC0FF0220E096E0E0E38EC0EF0300E85
:101100005DEC0FF0200E5DEC0FF0300E5DEC0FF09B
:10111000200E5DEC0FF0300E5DEC0FF0220E096E2C
:101120000F0E38EC0EF0310E5DEC0FF0200E5DEC82
:101130000FF0310E5DEC0FF0200E5DEC0FF0310E74
:101140005DEC0FF0000E0001666F000E096E000EE0
:1011500038EC0EF0590E086E100E096E64EC0EF0AD
:1011600081B007D0900E086E100E096E64EC0EF080
:101170000FD081B207D08D0E086E100E096E64EC90
:101180000EF006D0870E086E100E096E64EC0EF09D
:10119000000E096E010E38EC0EF0700E086E100E87
:1011A000096E64EC0EF081B404D0310E5DEC0FF0EA
:1011B00003D0300E5DEC0FF0000E096E020E38EC1D
:1011C0000EF03B0E086E100E096E64EC0EF0020E6F
:1011D00042EC0FF00AEC0EF0000E096E030E38EC34
:1011E0000EF0160E086E100E096E64EC0EF0030E73
:1011F00042EC0FF00AEC0EF0000E096E040E38EC13
:101200000EF07D0E086E100E096E64EC0EF081B6C5
:1012100004D0310E5DEC0FF003D0300E5DEC0FF01A
:10122000000E096E050E38EC0EF0500E086E100E12
:10123000096E64EC0EF084B002D00001732B84B20E
:1012400002D000017307000173510AEC0EF0000E8A
:10125000096E060E38EC0EF0460E086E100E096E82
:1012600064EC0EF084B402D00001742B84B602D07A
:1012700000017407000174510AEC0EF0000E096EB3
:10128000070E38EC0EF084B807D0770E086E100EFB
:10129000096E64EC0EF006D0100E086E100E096E8A
:1012A00064EC0EF0000E096E080E38EC0EF0690EBC
:1012B000086E100E096E64EC0EF000017F51D8A488
:1012C00007D0010E086E100E096E64EC0EF012D0FD
:1012D000000E0F6E0AD0750E0F24D96EDA6A000E5A
:1012E000DA22DF500AEC0EF00F2A00017F510F5C6A
:1012F000D8A0F1D7000E096E090E38EC0EF0230EBF
:10130000086E100E096E64EC0EF00A0E42EC0FF03F
:101310000AEC0EF0000E096E0A0E38EC0EF02F0EDD
:10132000086E100E096E64EC0EF00B0E42EC0FF01E
:101330000AEC0EF0000E096E0D0E38EC0EF0610E88
:10134000086E100E096E64EC0EF000016605D8A45C
:1013500020D0140E096E000E38EC0EF08A0E086EC6
:10136000100E096E64EC0EF0000167510AEC0EF0ED
:10137000830E086E100E096E64EC0EF000016851C9
:101380000AEC0EF068C009F000016751A1EC0CF006
:10139000DCD600F0DAD6010E0001656F010E696F30
:1013A000020E6A6F030E6B6F040E6C6F050E6D6F8D
:1013B000060E6E6F050E706F690E7025D96EDA6AB3
:1013C000000EDA22DF506F6FFCCF1CF0020EFC6EB5
:1013D000940E296E100E2A6E000E2B6E29C02EF070
:1013E0002AC02FF02E0E2C6E000E2D6E2CC0D9FFB1
:1013F0002DC0DAFFDF50FD6E2C4A2D2A2CC0D9FFFC
:101400002DC0DAFFDF50FE6E2C4A2D2A2CC0D9FFEA
:101410002DC0DAFFDF50FF6E070EFC6ECE0E296E78
:10142000150E2A6E000E2B6E29C02EF02AC02FF04A
:101430002E0E2C6E000E2D6E2CC0D9FF2DC0DAFFA3
:10144000DF50FD6E2C4A2D2A2CC0D9FF2DC0DAFFAB
:10145000DF50FE6E2C4A2D2A2CC0D9FF2DC0DAFF9A
:10146000DF50FF6E0C0EFC6E920E296E1A0E2A6E65
:10147000000E2B6E29C02EF02AC02FF02E0E2C6EDF
:10148000000E2D6E2CC0D9FF2DC0DAFFDF50FD6E8F
:101490002C4A2D2A2CC0D9FF2DC0DAFFDF50FE6E5A
:1014A0002C4A2D2A2CC0D9FF2DC0DAFFDF50FF6E49
:1014B000110EFC6EA80E296E170E2A6E000E2B6EF2
:1014C00029C02EF02AC02FF02E0E2C6E000E2D6E8D
:1014D0002CC0D9FF2DC0DAFFDF50FD6E2C4A2D2A1B
:1014E0002CC0D9FF2DC0DAFFDF50FE6E2C4A2D2A0A
:1014F0002CC0D9FF2DC0DAFFDF50FF6E160EFC6E38
:10150000C20E296E160E2A6E000E2B6E29C02EF00A
:101510002AC02FF02E0E2C6E000E2D6E2CC0D9FF7F
:101520002DC0DAFFDF50FD6E2C4A2D2A2CC0D9FFCA
:101530002DC0DAFFDF50FE6E2C4A2D2A2CC0D9FFB9
:101540002DC0DAFFDF50FF6E1B0EFC6E780E296E89
:101550001F0E2A6E000E2B6E29C02EF02AC02FF00F
:101560002E0E2C6E000E2D6E2CC0D9FF2DC0DAFF72
:10157000DF50FD6E2C4A2D2A2CC0D9FF2DC0DAFF7A
:10158000DF50FE6E2C4A2D2A2CC0D9FF2DC0DAFF69
:10159000DF50FF6E1CC0FCFF020E0101036F070E3F
:1015A0000201036F0C0E0301036F110E0401036FA0
:1015B000160E0501036F1B0E0601036F000E0001DE
:1015C000726F000E716F010ED56EF28A1200000E5E
:1015D0000001666F8F868F980B0E026EB80E016E3B
:1015E00043EC10F0160EC06E010EC26E030EC26EFA
:1015F000C2B2FED7C4CF0EF0C3CF0FF00FC008F0B9
:101600000F0E0816D8B404D0000E0E6E000E0F6E2A
:10161000090E0E64DCD78F968F880B0E026EB80E03
:10162000016E43EC10F0160EC06E050EC26E070E72
:10163000C26EC2B2FED7C4CF10F0C3CF11F011C03A
:1016400008F00F0E0816D8B404D0000E106E000E6D
:10165000116E130E1064BBD70E50086E0F500A6E39
:1016600008C00BF01050086E11500C6E08C00DF041
:10167000B20E0A240A6EF30E0B200B6E9C0E0C2485
:101680000C6EE60E0D200D6E0AC001F00BC002F0CC
:10169000000E046EF60E036E8FEC0EF0015000018A
:1016A000676F0CC001F00DC002F0010E046E990EC0
:1016B000036E8FEC0EF001507F080001686F010E81
:1016C00088D79EA8FED7740EAD6EACA2FED79EA89A
:1016D000FED7610EAD6EACA2FED79EA8FED7630EFC
:1016E000AD6EACA2FED79EA8FED7680EAD6EACA2C2
:1016F000FED79EA8FED7650EAD6EACA2FED79EA803
:10170000FED7350EAD6EACA2FED79EA8FED75F0EFB
:10171000AD6EACA2FED79EA8FED7650EAD6EACA294
:10172000FED79EA8FED76E0EAD6EACA2FED79EA8C9
:10173000FED75F0EAD6EACA2FED79EA8FED7630E9D
:10174000AD6EACA2FED79EA8FED76F0EAD6EACA25A
:10175000FED79EA8FED7750EAD6EACA2FED79EA892
:10176000FED7720EAD6EACA2FED79EA8FED7730E4A
:10177000AD6EACA2FED7000E026E000E016E014AE5
:10178000022AE80E015CFD0E0258D8A0F8D7000E20
:10179000026E000E016E014A022AE80E015CFD0E87
:1017A0000258D8B08ED7F7D79EA8FED7540EAD6E8C
:1017B000ACA2FED79EA8FED7410EAD6EACA2FED75E
:1017C0009EA8FED7430EAD6EACA2FED79EA8FED754
:1017D000480EAD6EACA2FED79EA8FED7450EAD6EEC
:1017E000ACA2FED79EA8FED7340EAD6EACA2FED73B
:1017F0009EA8FED75F0EAD6EACA2FED79EA8FED708
:10180000450EAD6EACA2FED79EA8FED74E0EAD6EB5
:10181000ACA2FED79EA8FED75F0EAD6EACA2FED7DF
:101820009EA8FED7430EAD6EACA2FED79EA8FED7F3
:101830004F0EAD6EACA2FED79EA8FED7550EAD6E74
:10184000ACA2FED79EA8FED7520EAD6EACA2FED7BC
:101850009EA8FED7530EAD6EACA2FED7000E026E50
:10186000000E016E014A022AE80E015CFD0E0258CC
:10187000D8B09AD7F7D7000E096E000E906E1F0EE3
:10188000916E000E996E000E9A6E919A918C9198BD
:10189000040EF2EC0FF091880C0EF2EC0FF00CD06D
:1018A000092A0C0EF2EC0FF0C80E096405D08B82E9
:1018B0008F808B94F29EFFD7A6EC0FF00009D8B46E
:1018C000EFD70F0E056E210E066E270EE1EC0EF01F
:1018D000000E056E220E066E000EE1EC0EF0000EFC
:1018E000056E240E066E000EE1EC0EF07B0E056E0A
:1018F000400E066E000EE1EC0EF0000E056E410E7D
:10190000066E280EE1EC0EF0800E056E420E066E9D
:10191000000EE1EC0EF0000E056E430E066E280E72
:10192000E1EC0EF0800E10EC10F09C0E10EC10F0BC
:10193000A00E10EC10F0700E056E020E09EC0FF008
:1019400012000E6E0EC001F0026A000E046E060E4A
:10195000036E90EC0DF00950280DF3CF0AF0F4CF90
:101960000BF001500A240C6E02500B200D6E0D502E
:10197000056E240E066E0C50E1EC0EF018D0FD0E34
:1019800010EC10F01200FC0E10EC10F01200FB0E28
:1019900010EC10F01200FA0E10EC10F01200F90E1C
:1019A00010EC10F01200F80E10EC10F012000EC047
:1019B00001F0026A000E046E060E036ED2EC0DF00A
:1019C0000250000AD8A412000150000AD8B4D7D798
:1019D000010AD8B4D8D7030AD8B4D9D7010AD8B4E1
:1019E000DAD7070AD8B4DBD7010AD8A41200DBD7AC
:1019F00095828C968C94000E026E640E016E37EC0C
:101A000010F08C86000E056E030E026EE80E016E5D
:101A100037EC10F0052A83A002D0410E056E400E6F
:101A20000564F2D783A033D0000E066E000E086E58
:101A3000000E076E83A203D008500109086E0850FB
:101A40000824086E000E026E640E016E37EC10F072
:101A50008C84010E026EF40E016E37EC10F08C9443
:101A6000010E026E900E016E37EC10F0072A070E81
:101A70000764E0D706500324D96E000E0420DA6E06
:101A800008C0DFFF062A83B0D1D706501200000E2F
:101A9000120000016605D8A414D0CA0E676511D0E3
:101AA000D10E67610ED0700E686504D0790E686142
:101AB00001D08B84780E686504D07F0E686101D0F8
:101AC0008B946605D8A414D0D60E676511D0DD0EB0
:101AD00067610ED0700E686504D0790E686101D020
:101AE0008B82780E686504D07F0E686101D08B927E
:101AF0006605D8A4CED7E20E6765CBD7E90E67613D
:101B0000C8D7700E686504D0790E686101D08F80E7
:101B1000780E6865BED77F0E6861BBD78F90B9D746
:101B2000000E066E04AE06D0036C041ED8B0042A64
:101B3000010E066E02AE06D0016C021ED8B0022A5B
:101B4000010E061A000E086E000E076E03500410F8
:101B5000D8B41CD0010E056E04D0D89003360436DC
:101B6000052A04AEFAD7D890073608360350015C30
:101B700004500258D8A005D00350015E0450025A08
:101B80000780D89004320332052EEDD70650D8B422
:101B900004D0076C081ED8B0082A07C001F008C09E
:101BA00002F01200000E066E02AE06D0016C021E9C
:101BB000D8B0022A010E066E04AE04D0036C041ED7
:101BC000D8B0042A03500410D8B418D0010E056E02
:101BD00004D0D89003360436052A04AEFAD7035051
:101BE000015C04500258D8A004D00350015E045098
:101BF000025AD89004320332052EF1D70650D8B4D9
:101C000004D0016C021ED8B0022A01C001F002C04B
:101C100002F01200086E08380F0B096E090E0964F5
:101C200003D00950170F02D00950100F096E01D0D0
:101C300000F0C00E056E095009EC0FF00009D8B491
:101C4000F7D708500F0B096E090E096403D009502D
:101C5000170F02D00950100F096E01D000F0C00E0E
:101C6000056E095009EC0FF00009D8A41200F6D750
:101C70000C6E7B0E0E6E000E0D6E0F0E0C6402D0FD
:101C8000000E0C6E270E096402D0000E096E0C5077
:101C9000280DF3CF0AF0F4CF0BF009500A26000EFE
:101CA0000B220D500A240D6E0E500B200E6E01D02B
:101CB00000F00E50056E240E066E0D50E1EC0EF095
:101CC0000009D8A41200F4D713D000F0C00E056E9E
:101CD00008C0F6FF09C0F7FF000EF86E0800F550C7
:101CE000E00F09EC0FF00009D8B4EFD7084A092A31
:101CF00008C0F6FF09C0F7FF000EF86E0800F550A7
:101D00000009D8B4120008C0F6FF09C0F7FF000EA2
:101D1000F86E0800F5500009D8B41200D7D7000EAD
:101D2000066E000E056E03500410D8B41CD0010ED0
:101D3000076E04D0D89003360436072A04AEFAD7CB
:101D4000D890053606360350015C04500258D8A0DE
:101D500005D00350015E0450025A0580D890043229
:101D60000332072EEDD705C001F006C002F01200C5
:101D7000000E026E020E1ED099689180919691928B
:101D800000F087CF03F0918291860350030B036E1E
:101D9000030E0318D8B40DD0022A0C0EF2EC0FF08B
:101DA000F90E026408D0F29E8B948B828F80000E15
:101DB00001D0010E046E020E0418D8B4DDD7045011
:101DC0001200076E000E086EB8EC0EF0E806D8A4FC
:101DD0001ED00C0EF2EC0FF007501DEC10F0B8EC1A
:101DE0000EF0E806D8A413D00C0EF2EC0FF005505C
:101DF0001DEC10F0B8EC0EF0E806D8A408D00C0EDC
:101E0000F2EC0FF006502AEC10F0010E086E0850AC
:101E10001200066E000E076EB8EC0EF0E806D8A4AD
:101E200013D00C0EF2EC0FF006501DEC10F0B8ECD5
:101E30000EF0E806D8A408D00C0EF2EC0FF0055016
:101E40002AEC10F0010E076E07501200A00E0F01D1
:101E5000266F000E256F000E246F000E236F258164
:101E6000258325852587248524878B848B828F80F5
:101E70009494949298909896989895949596F19EAB
:101E8000538D1200026E000EC16E160EC06E02500F
:101E90001F0B026E0244E846FC0B026E0250010961
:101EA000C26EC282C2B2FED7C3A003D0000E016EC2
:101EB00002D0C4CF01F001501200086E200E08605D
:101EC00002D03F0E086E9F0E086402D03F0E086ECF
:101ED0000850E00F086E01D000F0C00E056E0850EB
:101EE00009EC0FF00009D8A41200F6D7000E056E19
:101EF000240E066E000EE1EC0EF0000E0A6E000ECF
:101F0000096EC00E056E000E09EC0FF0094A0A2A90
:101F1000800E0A180910D8B41200F3D7800E056E8F
:101F2000240E066E000EE1EC0EF0800E0A6E000E1E
:101F3000096EC00E056E000E09EC0FF0094A0A2A60
:101F4000F80E0A180910D8B41200F3D799689180D6
:101F50009196919200F000F000F087CF01F091820D
:101F600091860150030B030AD8A402D0010E01D0C0
:101F7000000E016E01501200750E036E000E046E0D
:101F8000F8EC0CF0096E0950D8B406D00A0E0960BE
:101F900003D009C07FF0F0D7000E00017F6FECD7AF
:101FA00006D0010E346E0BD0010E336E08D0FF0E3A
:101FB000E350010AD8B4F5D7030AD8B4F5D7E552EF
:101FC0001200949C948E080E656E040ED46EE10E81
:101FD000AF6E040EAC6E800EAB6E240EAC6E900E27
:101FE000AB6E1200016E0BD000F000F000F000F0BC
:101FF00000F000F000F000F000F000F001060150E9
:10200000D8B41200F1D726EC0FF0CBEC09F0010E9A
:10201000E66ED0EC0FF0D58EF284F28E00F0FED793
:10202000056EB8EC0EF0E806D8A412000C0EF2EC27
:102030000FF005502AEC10F01200016E01C090FF65
:10204000000E996E91909196919400F000F0918419
:1020500091861200016E01C090FF000E996E918072
:102060009196919400F000F091849186120006D030
:1020700000F000F000F00106D8A0020601500210A6
:10208000D8B41200F5D706D000F000F000F0010639
:10209000D8A0020601500210D8B41200F5D7346A55
:0E20A000336A326A316A306A000103EF10F0D1
:020000040020DA
:08000000FFFFFFFFFFFFFFFF00
:020000040030CA
:0E00000015136100308081FFFFC0FFE0FF405C
:00000001FF
